:02000002D0002C
:1040000000400D007C9F0D00000006000C00050123
:0840100004017E050000000020
:0440180000960D0001
:1040200009480A49884208B505D0094A824202D0A7
:10403000121A05F0E6F90748074A0021121A05F09E
:10404000EBF9014808BD00BF4CD10320509E0D0084
:1040500050D2032050D20320F0E7032070B503F0C4
:1040600047FC074C074BE41AA40800251E46A5424E
:1040700004D056F8253098470135F8E770BD00BFE9
:10408000509E0D00C49D0D0000F0F0B808B500F082
:1040900079FBBDE8084003F0F9BB03F0BBB803F0BF
:1040A000C1B803F0BFB80078B0FA80F0400970479B
:1040B0000123037070477047083001F0CDBE07B58B
:1040C00002AB012203F8011D0830194601F0C4FEBD
:1040D00003B05DF804FB10B52C21044604F0E3FBAB
:1040E000204610BD7FB5024608461379956833B166
:1040F0003DB90C4904B0BDE8704003F0C3BA0A4BA7
:1041000000E00A4B167B0A4C0A49527B0292012EB0
:1041100008BF214601910095074A002103F02CFBBE
:1041200004B070BD49960D0021990D0038960D0020
:1041300041960D0045960D005F960D0010B50446A2
:10414000043003F0A7F9204610BD10B504463C30FA
:1041500003F0A0F904F1280003F09CF9204603F0D5
:1041600099F9204610BD000038B584690A4B0360F8
:1041700005467CB16368013B63605BB923682046F8
:104180009B689847A368013BA3601BB9236820463E
:10419000DB689847284638BD749B0D0010B504466F
:1041A000FFF7E2FF204610BD10B50446FFF7DCFF25
:1041B00020461C2104F077FB204610BD00B58BB0D3
:1041C00000230A46014601A88DF804308DF8053019
:1041D00001F0F3FD0BB05DF804FB000013460A4646
:1041E0000149096801F0E9BDB8E3032030B585B0A5
:1041F0001C4B009313798DF8043093680293137B62
:104200008DF80C3000F58C65537B8DF80D3004462D
:104210000A466B4600F26C41284602F065F9F0B19F
:10422000256004F23C45284601F0C0FD01212046EE
:1042300002F003F8014668B12146284601F0E1FB8F
:1042400068B194F83C3413F0700316BF064B18465F
:104250001D6005E0204601F0F0FF0028ECD10020B1
:1042600005B030BD1C960D00B8E303202DE9F041E8
:1042700098B003F055FC4FF4E13103F03FFC03F03C
:104280004FFC03F042FC0028F9D04FF47A6003F0B1
:10429000BFFA354D354C03F043FC354903F005FAC0
:1042A00003F03EFC334903F000FA284605F0F6F827
:1042B0008046204605F0F2F84C260746324600219B
:1042C00005A805F0A9F803232B488DF82830002312
:1042D000194605AA4068089405960695CDF81C80F5
:1042E000099702F06FFF03F0A3FC00224FF4165170
:1042F00003F094FC214B0021188804F061FA042497
:104300001F4800F0A4FE88B9013C0FD04FF47A702A
:1043100003F07EFA03F004FC0546194800F097FE0E
:104320000A220146284603F01DFAE9E71549164816
:10433000FFF744FF154802F0D7FB144802F0DBFBFF
:1043400070B1002302931F230193102300930122D5
:1043500040F2E47105A802F09BFB05A802F0D2FB35
:1043600018B0BDE8F08100BF78D1032030D703201A
:104370007D960D0083960D0004E7032074D1032081
:10438000A4DF0320A8D10320E8D6032080DF032088
:104390007FB53A4A3A4B029201220E4600938DF8BD
:1043A0000C2000230E2104466A4636488DF804305E
:1043B0008DF80D30FFF71AFF31463348FFF7FEFE48
:1043C000002858D104F1080540F201223146284660
:1043D000FFF704FF284601F0B3FC2C49204603F008
:1043E00051F92C21204603F051F92949204603F0C8
:1043F00049F92849204603F045F92749204603F0AA
:1044000041F92649204603F03DF92549204603F0AD
:1044100039F92449204603F035F92349204603F0B1
:1044200031F92249204603F02DF92149204603F0B5
:1044300029F92049204603F025F91F49204603F0B9
:1044400021F91E49204603F01DF91D49204603F0BD
:1044500019F91C49204603F015F91B49204603F0C1
:1044600011F91A49204603F00DF9204603F011F91D
:10447000284601F09BFC04B070BD00BF80F0FA023A
:104480001C960D00ACD20320E8D603208C960D00BC
:1044900091960D00A0960D00AF960D00BF960D00F1
:1044A000C9960D00D3960D00DE960D00E4960D0022
:1044B000EA960D00F1960D00F8960D00FF960D009E
:1044C00007970D0011970D001A970D0027970D0003
:1044D0002DE9FF479C4A9D4B0292012204460D465E
:1044E00000938DF80C2000236A460E2198488DF821
:1044F00004308DF80D30FFF779FE29469548FFF717
:104500005DFE04F1080610B940F2012200E0092224
:1045100029463046904DDFF860A2DFF86092DFF860
:1045200060828E4FFFF75AFE304601F009FC297871
:104530000A2201F5FA61204603F012F92D212046E6
:1045400003F0A4F80A226978204603F0E5F82D214B
:10455000204603F09BF80A22A978204603F0DCF8F5
:104560007F49204603F08EF80A22E978204603F0BE
:10457000D3F83A21204603F089F80A222979204607
:1045800003F0CAF83A21204603F080F80A2269793C
:10459000744D204603F0C0F8734BDFED746AD3ED21
:1045A000007A734BBDEEE77A2C218AED007AB8EEE3
:1045B000C77A204637EEC77AD3ED007A27EE267AFF
:1045C000BDEEC77A89ED007ABDEEE77A88ED007A14
:1045D000B8EEC77A77EEC77A67EEA67AFDEEE77A8D
:1045E000C7ED007A03F052F82C21204603F04EF874
:1045F0000A226988204603F0B3F82C21204603F0F4
:1046000045F80A22A988204603F0AAF82C21204662
:1046100003F03CF80A22E988204603F0A1F82C2197
:10462000204603F033F80A222989204603F098F83F
:104630002C21204603F02AF80A226989204603F03B
:104640008FF82C21204603F021F80A22A989204660
:1046500003F086F82C21204603F018F80A22E98995
:10466000204603F07DF82C21204603F00FF80A22A3
:10467000298A204603F074F82C21204603F006F81E
:104680000A22698A204603F06BF82C21204602F0AA
:10469000FDFF0A22A98A204603F062F82C21204659
:1046A00002F0F4FF0A22E98A204603F059F82C218F
:1046B000204602F0EBFF0A22298B204603F050F837
:1046C0002C21204602F0E2FF0A22A98B204603F0AB
:1046D00047F82C21204602F0D9FF264B0A22196800
:1046E000204603F03DF82C21204602F0CFFF0A229D
:1046F000DAF80010204603F033F82E21204602F0AD
:10470000C5FF0A22D9F80010204603F029F82C2111
:10471000204602F0BBFF0A22D8F80010204603F022
:104720001FF82E21204602F0B1FF0A2239682046E8
:1047300003F016F8204602F0ACFF304601F036FBDD
:1047400004B0BDE8F08700BF80F0FA021C960D00AF
:10475000ACD20320E8D6032031D7032080DB03202E
:10476000FE990D0082DF0320B4E303200000C8425D
:104770006CDF0320C8DF032070DF0320B0DF0320DD
:10478000A0DF03202DE9F0472DED028B684C0022BD
:10479000AAB01146606802F0EDFC034648B9014634
:1047A0000246606802F0CEFC03F0BAF9614902F0FB
:1047B0007CFF5F4916A803F0FFFE03F039FA036897
:1047C0005B69984710F5827F00F0E9815A4D5B4B99
:1047D0002A681340002BBEBF03F1FF3363F00103CF
:1047E0000133012B564B0AD10102012A196040F016
:1047F000CD81422800F0CA8100232B60C6E11B68EE
:10480000023A18441E2A00F2C181DFE812F01F00AC
:10481000BF011F00BF012200BF012500BF0128000A
:10482000BF012B00BF012E00BF013100BF013400CA
:10483000BF013700BF013A00BF013D00BF0140008A
:10484000BF014300BF01BF01BF0146003D4B1880BF
:104850009CE13C4B588099E13A4B988096E1394B6A
:10486000D88093E1374B188190E1364B58818DE128
:10487000344B98818AE1334BD88187E1314B1882E0
:1048800084E1304B588281E12E4B98827EE12D4BA2
:10489000D8827BE12B4B188378E12A4C2A4EA083E7
:1048A0001FA802F09FF9294B1F981860BDF88020BF
:1048B00027489A8000F040FA254886ED000A9FEDCF
:1048C000258A00F07DFAD6ED007A67EE887AF0EE60
:1048D000408AF5EEC07AF1EE10FA17EE900A06DB88
:1048E00004F090FA00221C4B04F02EF905E004F0CD
:1048F00089FA0022184B04F025F904F0E9FC07EED0
:10490000900AF8EEE77A28EE880A87EE887AB5EE04
:10491000C00AF1EE10FA86ED007A10EE100A1DDBE7
:1049200004F070FA00220C4B04F00EF91CE000BFFA
:1049300004E7032031970D008CD103200100008093
:1049400054D2032082DF03206CDF032031D7032001
:10495000A4DF03200000C8420000E03F04F052FA48
:104960000022914B04F0EEF804F0B2FC07EE900A3E
:10497000F8EEE77ADFF898828C4FD8F8003087EEAF
:10498000887A002B87ED007A1DDCDFF8589209F158
:10499000080CBCE80F000DF1840EAEE80F00BCE877
:1049A0000F00AEE80F00DCF80030CEF80030D9F888
:1049B000043020937E497F4B1F931FA8FFF7E8FC2C
:1049C0000123C8F800307C4BDFF848821888DFF8F4
:1049D0004892002103F01EFF784B1860D8F8003091
:1049E0001844C8F8000002F001FAD9F80030C01AE3
:1049F000734B1B68984240F2BE80D8F80000DFF885
:104A00001CA204F0DDF9CDE9140102F0EFF9D9F8A8
:104A10000030C01A04F0D4F900226A4B04F046FAC0
:104A200002460B46DDE9140104F06AFB04F078FC51
:104A30000023C8F80030CAF80000306804F0E2F93A
:104A4000CDE91201386804F0DDF9CDE91001A38B3E
:104A50000F93238B0E93E38A0D93A38A0C93638A9F
:104A60000B93238A0A93E3890993A38908936389A3
:104A7000079323890693E3880593A38804936388A7
:104A80000393514B0293514B0193514B514A009365
:104A90004FF47A71504B514802F0D4FB03F040F8C8
:104AA0004E4902F002FE4E4802F006F88046306899
:104AB00004F0A8F9CDE90E0138684A4F04F0A2F9D4
:104AC000CDE90C01DAF8000004F09CF9CDE90A0107
:104AD000238B0893E38A0793A38A0693638A05933B
:104AE000238A0493E3890393E3880293A3880193C1
:104AF000638800933C4A3D4843464FF47A7107F17E
:104B0000080602F09FFB0FCE21AC0FC40FCE0FC4DE
:104B1000336823607B6820932549264B1F931FA889
:104B2000FFF7D6FCD023009399220F2380211FA8E2
:104B300020AE02F075FF0FCE2D4F07F114040FC405
:104B4000336823702B4B25491B68BB6307F1280092
:104B500002F0FAFC284B294A00933946284B294891
:104B600000F0BCFA02F0DCFF274902F09EFD02F0E3
:104B70003DF9C9F8000003F05BF803F053F803F0C7
:104B800057F800224FF4165103F048F82B68013310
:104B90002B602B68212B02BF1C4B01221A602AB00C
:104BA000BDEC028BBDE8F0870000E03FB4E30320DA
:104BB000A8D1032028960D0074D1032078DF0320AC
:104BC00090D10320000024404CD10320BCD103200D
:104BD00094D103203F970D0060D10320CCDF032048
:104BE00031D7032054DB032016980D0084DB03200B
:104BF00060D20320E0D10320CB980D00B4DF032066
:104C0000D0D1032038D70320CF980D008CD10320BA
:104C10007CDF032074DF032058D203205CD2032002
:104C200070B5304C304D314E02F060F8002101205B
:104C300002F06CFA204600F024FA20462C4C2D4954
:104C40002A4603F02BFE3146204602F06AFC04F1AE
:104C5000100002F0A1FE314604F1280002F061FCD0
:104C6000314604F13C0002F05CFC2046224C234912
:104C70002A4603F013FE3146201D02F052FC2A465C
:104C80001F49204603F00AFE1E4B1F481F4964229D
:104C900083F860241E4AC3F870240122002483F89C
:104CA00074241C4ADC7183F83C4483F83D4483F847
:104CB0006A44C3F8784483F87C4483F87D44C3F89D
:104CC0006C240472144B44722A464460036003F05F
:104CD000E5FD2146114801F08DFE1148BDE8704008
:104CE00000F024B838D7032050D2032021990D00BA
:104CF00060D203209D410D00B4DF03204B410D0025
:104D00003D410D00ACD2032054DB0320B7400D0021
:104D10001C960D0014E7032028960D0031D70320C0
:104D2000A4DF03200368C9B29B68184740220272BF
:104D3000002242600260704710B5044603F08EFD09
:104D400094F9081002F0F3FF03F088FD0368F521E1
:104D50009B68984703F082FD002102F0EBFF1920C9
:104D600002F056FD03F07AFD94F90810032202F0D8
:104D7000D5FF03F073FD03685B69984784B203F0C5
:104D80006DFD03685B69984740EA042004B203F0B4
:104D900065FD03685B699847A3B207EE903A9FED03
:104DA000067AF8EE677AB9EE080A67EE877A9FED21
:104DB000037AA7EE870A10BD0000FA420000803790
:104DC00010B5044603F04AFD94F9081002F0AFFF55
:104DD00003F044FD0368F3219B68984703F03EFD10
:104DE000002102F0A7FF192002F012FD03F036FDAA
:104DF000032294F9081002F091FF03F02FFD0368DD
:104E00005B69984784B203F029FD03685B699847A2
:104E100040EA042004B203F021FD03685B6998476F
:104E2000A0B207EE900AF8EE677A17EE900A03F048
:104E3000E9FF10A3D3E9002304F038F804F070FA76
:104E4000DFED0B7A07EE100A67EE277A17EE900A6D
:104E500003F0D8FF04A3D3E9002303F073FE04F0AA
:104E60005FFA00EE100A10BDCDCCCCCCCC6C474024
:104E700000008037D7A3703D0AF7654010B504469F
:104E800003F0ECFC94F9081002F051FF03F0E6FC8B
:104E90000368FE219B68984703F0E0FC02F04EFF98
:104EA0003220BDE8104002F0B3BC10B5044603F058
:104EB000D5FC94F9081002F03AFF03F0CFFC002172
:104EC000FFF730FF03F0CAFC0F21FFF72BFF03F0C1
:104ED000C5FC02F033FF03F0C1FC082294F908106E
:104EE00002F01CFF03F0BAFC03685B69984720607E
:104EF00003F0B4FC03685B69984723681B022360D6
:104F000003F0ACFC03685B69984723681843206092
:104F100003F0A4FC03685B69984723681B022360C5
:104F200003F09CFC03685B69984723681843206082
:104F300003F094FC03685B69984723681B022360B5
:104F400003F08CFC03685B69984723681843206072
:104F500003F084FC03685B69984703F07FFC94F9D5
:104F6000081002F0E4FE03F079FC0021FFF7DAFEFE
:104F700003F074FCC921FFF7D5FE03F06FFC02F0CB
:104F8000DDFE03F06BFC94F90810082202F0C6FE67
:104F900003F064FC03685B699847606003F05EFCA3
:104FA00003685B69984763681B02636003F056FC03
:104FB00003685B69984763681843606003F04EFCC0
:104FC00003685B69984763681B02636003F046FCF3
:104FD00003685B69984763681843606003F03EFCB0
:104FE00003685B69984763681B02636003F036FCE3
:104FF00003685B69984763681843606003F02EFCA0
:105000000368BDE810405B69184738B504460D4693
:1050100003F024FC94F9081002F089FE03F01EFC52
:10502000036829469B68984703F018FC002102F0AA
:1050300081FE03F013FC012294F9081002F06EFEC9
:1050400003F00CFC03685B699847C0B238BD10B52B
:10505000044603F003FC02F04FFE2046FFF70EFF6C
:10506000E7212046FFF7D1FF3A2804D12046FFF779
:105070001CFF012010BD002010BD01F037BE01F063
:1050800035BE10B5044603F0BBF9204610BD000044
:1050900038B50446154602F0F5FA0549204602F0F7
:1050A000F1FA29462046BDE8384002F0FEBA00BFBA
:1050B000029A0D0038B50446154602F0E3FA054998
:1050C000204602F0DFFA294620460A22BDE8384091
:1050D00002F048BB029A0D0001F008BE2DE9F04F26
:1050E0000D461E464FF0FF338FB00446136000217B
:1050F0002846174602F054FAD5F8388060B9296876
:10510000B8F1000F02D01FFA88F200E0502200230D
:10511000204602F0C5FF14E0744B089305F1140C0F
:10512000BCE80F000DF1240EAEE80F00DCF80030F3
:105130008EF800301FFA88F2002308A9204603F0F9
:1051400031F8003018BF012018B9204603F0A4F848
:10515000C8E01899204602F095FA6549204602F009
:1051600091FAA96A204602F08DFA6249204602F0BF
:1051700089FA6149614A2046FFF78AFF00212846E3
:1051800002F00EFA20B92A685D492046FFF780FF39
:1051900005F13C080021404602F002FA08B96A6CA9
:1051A00005E05849189804F067F9024618B95649BD
:1051B0002046FFF77FFF5EB1316849B17268204633
:1051C00012B1FFF765FF01E002F06FFA0836F3E76E
:1051D000204602F05EFA204602F08AFE0021404698
:1051E00002F0DEF918B9E96B204602F05EFA04F12C
:1051F0001C084FF480620021404604F00DF901F0D4
:10520000F5FD814601F0F2FD0026354641F2883A6F
:10521000204603F059F8D8B1204602F0FEFE83463E
:1052200001F0E4FD40F2FE339D42814603D863194C
:1052300083F81CB00AE040F2FF339D4206D1002300
:1052400084F81B34204603F027F801260135DFE7F8
:105250006319187701F0CAFDC9EB000B26B9D345D5
:1052600002D8C82002F0D4FA204602F042FE18B15B
:10527000D34501D8002ECBD0204603F00DF841468F
:10528000684602F04EF90C230922694604A802F090
:10529000ABF91E4908A802F044F908A9684602F0D3
:1052A000A0F9044608A802F0F5F8631C14D03D1DCF
:1052B0001749284602F048F9221D694608A802F05D
:1052C000BBF908A9284602F067F908A802F0E2F83D
:1052D000049804F075F8386004A802F0DBF868461A
:1052E00002F0D8F80FB0BDE8F08F00BF889A0D002B
:1052F000FE990D00E7980D00F9980D00F3980D0048
:1053000004990D0018990D0009990D001D990D00C3
:1053100021990D0001F0EABC01F0E8BC10B504468B
:10532000243000F07BFE28B104F50C70BDE810407D
:1053300000F074BE10BD411E00F10A0200204308B7
:1053400043EAC01011F8013F53FA80F08A42C0B21C
:10535000F5D170472DE9F0470378202B00F10104C7
:1053600001D12046F8E7704F886005462C1A2E467A
:1053700015F8013B0BB32F2B01D1031917E05C2B60
:1053800002D10020BDE8F087A3F12204E4B21D2C75
:1053900003D827FA04F4E407F3D403F0BF043C2C49
:1053A000EFD0203B5E2BE1D9EBE72F2D05D11E4638
:1053B00013F8015B202DF8D1F9E716600319984224
:1053C000C0EB030809D013F8012D2E2AF7D0202AAC
:1053D000F5D0B8F1FF0FD4DC01E04FF00008C1F8C0
:1053E000048001F10C0301F11702202403F8014F9E
:1053F0009342FBD103461A1A13F8014B2E2CFAD014
:10540000202CF8D0B2FA82F4640908F1FF36731C3C
:1054100007D100274FF0070E3D46BA464FF0080966
:1054200009E0835D2E2BF4D0013EF0E7835C202B56
:1054300004D1002401324245F8DB4BE02E2B02D18F
:10544000B242F6D103E0222B17D07C2B15D0A3F16A
:105450002A0CBCF1050F01D82D2B0ED1A3F13A0C6B
:10546000BCF1050F09D9A3F15B0CBCF1020F04D903
:10547000A3F1210CBCF15D0F02D9B2420ED149E07B
:10548000B24247D0754521D8A3F1610CBCF1190F88
:1054900008D8203BDBB249EA07070AE0754515D872
:1054A00000245F23A3F1410CBCF1190F98BF49EA16
:1054B0000A0A05F1010C5FFA8CFC0D44BCF1060FE1
:1054C0006B7301D881F80CC06546B3E7BEF10A0FD3
:1054D00017D100244B7B202B3FF453AF3CB11AEA89
:1054E000070F18BF02270F700120BDE8F0870B7B64
:1054F0000120087019447E234B7331238B73BDE860
:10550000F087B242E5DC32464FF00A0E08254FF034
:1055100010098EE7BEF10A0FDBD032464FF00A0EBB
:1055200008254FF0100985E7010100312DE9F84306
:1055300091F80C9006460D4602247E2701F10D08D5
:105540006968AA6863189BB21144914206D012F8A8
:10555000010B03EB431343409BB2F6E7B9F1030F92
:1055600028BF4FF0030909F10402D2B203F00F0182
:10557000A818013A0929D2B294BF30313731914588
:1055800041734FEA1313F1D305EB090300215F7355
:10559000304600F01EFB0121304600F0FDFA0146C6
:1055A00028B97078B0FA80F04009BDE8F883037834
:1055B0004BB1C37A1B07EED40B22404603F012FF17
:1055C0000028E8D102E00120BDE8F8830134A4B24C
:1055D000642CB5D1BDE8F8832DE9F04F9B460B78DC
:1055E00089B013F0700F05900E46914601D100204E
:1055F000A0E1059B1B78002BF9D153680293137827
:105600009B0700F08D81029B0D270C33B3FBF7F74E
:105610000137FFB20021304600F0DBFA4FF00008FE
:1056200009F10D02CDF80C80434644464546CDF8BD
:10563000108006927269079301213046C2F34F1A17
:1056400000F0AAFA079B20B97378002B00F0908035
:10565000CDE70278E52A00D042B9002C08BFD04639
:10566000BC423CBF0134E4B222B981E0BC4238BF45
:10567000002403E0E52A01D10025DBE72E2AFBD038
:10568000C17A0F2952D13DB95106D3D5437B03933B
:1056900002F01F052B4607E0013BDBB29A42EBD13B
:1056A000427B03999142E7D15A1E4FF00D0C0CFB3F
:1056B00002FC029A6245DFD94FF0000EBEF1040FE2
:1056C0005FFA8EF204D800EB4E02B2F801200CE033
:1056D0000A2A95BF0EF1FF320EF1010200EB4202E1
:1056E00000EB420294BFD28892880299614503D1AF
:1056F000002A18BF00259DE7FF2ABDD8D2B2A2F12B
:1057000041011929D9F8081011F80C1098BF20325E
:105710000CF1010AA1F1410C98BFD2B2BCF1190FF2
:105720009CBF2031C9B29142A6D1FBE00907A3D4A6
:105730004DB1012B7FF45BAFFFF7FDFD039B83426F
:105740007FF455AF0FE00B220699079303F04AFE52
:10575000079B00287FF46EAF99F80020D20702D58E
:105760000122049266E71BF4006F00F0D1803EE74F
:105770001BF4007F3FF43BAF0BF00303013B012B15
:105780003FF635AF002C08BFD046BC4202D3049B85
:10579000CBB91FE00021304600F0FEF910B9737854
:1057A0005BB124E70134E4B2EFE7B3681B79012B66
:1057B000EDD81034E4B2A742E9D9304600F0D2F86F
:1057C0000028F2D113E749463046FFF7AFFE002824
:1057D0003FF40DAF4FEA4811304600F0FAF90028C7
:1057E0003FF405AF7D1EEDB22C464FF0000A4FF09E
:1057F0000F0841E00021304600F0CEF907460028AE
:105800003FF4F5AEB26892F82430AC4243F00103A5
:1058100082F824300CBF44F040022246027080F827
:105820000B8080F80CA009F10D000392FFF783FDB7
:10583000039A787387F81AA087F81BA002F01F025A
:105840000D23013AD9F808E05A4300230299914206
:1058500015D91EF80210042B5FFA83FC03F1010036
:1058600013D807EB4303A3F801100D2802F101023E
:105870000346EBD1013CE4B2002CBBD10EE014BFD7
:105880004FF0FF31002189B2E5E7BCF10A0F94BF68
:1058900007EB430307EB40039980E6E77369214672
:1058A0003046C3F34F1A00F077F9074600283FF45B
:1058B0009EAE2022214603F0AFFD4B4653F80D2F3C
:1058C0003A605A687A601A893A819B7ABB7299F871
:1058D000003003F018033B73184B1B682BB107F122
:1058E0000E0107F11000984706E021233B7428239E
:1058F0007B740823BC73FB733B8A7B823B83FB89ED
:10590000FB82B26892F8243043F0010382F824301D
:1059100000955B4652463146059800F0A3F909E030
:10592000012777E60EF1010EBEF10D0F3FF482AEB6
:10593000D446C3E609B0BDE8F08F00BFBCE3032046
:1059400001F0D4B901F0D2B901F0D0B901F0CEB96B
:105950008378016943F00403837000F110028068CA
:1059600000F012BC2DE9F041037803F02003044657
:1059700003F0FF050BB100262EE04269184B9A4256
:10598000F9D8FFF7E5FF06460028F4D02169A068A2
:1059900000F08FFB0746A06805223946243000F04E
:1059A00064FB80460028E6D029464FF4007203F0DD
:1059B00033FD0125A3681A79AA4209D94246E9199B
:1059C000186800F0CFFE0028D5D00135EDB2F1E720
:1059D000636903EB422363613046BDE8F08100BF99
:1059E000FFFD1F0010B5044680680A462430A169F7
:1059F00000F03BFB20B1A38803F00F0300EB431042
:105A000010BD70B5047805460E4684B9242221469F
:105A100003F002FDAE60F379102B03D0202B06D1EA
:105A2000402300E0202301202B70A87070BD0020CF
:105A300070BD2DE9F74F03780446894615464BB1F2
:105A40008278D10706D50CE05A46216900F037FB71
:105A500000283DDA637843F0020363704FF0FF30B3
:105A600097E01A0703D5E36962699B1A07E09A0673
:105A700008D5A3681A896369C3EB42139BB29D42A0
:105A800028BF1D462E464FF0000804F1100B002ED3
:105A900035D022786369A06812F0200FC3F3080A9A
:105AA0004FEA532102D0036A19441DE090F80580A3
:105AB00001EA0808BAF1000F10D1B8F1000F0DD1BA
:105AC000002BC1D153064CBF036A236A236105E052
:105AD00004D1237813F0700F11D1BBE72169A068BE
:105AE00000F0E7FA08EB0001A068BAF1000F35D129
:105AF000B6F5007F32D3C36A994202D12EE0A81BCB
:105B000047E0B6F5806F1BD3227897064FEA562AF6
:105B100006D40279C8EB0202D2B2924528BF92465F
:105B200099424FEA4A2707D2A06853464A4600687E
:105B300000F0D6FD60B98DE75344994221D3F3E7D5
:105B40004A46006800F084FD002883D04FF40077B7
:105B500063693B44B9446361F61B98E70022243033
:105B600000F083FA00283FF475AFCAF50077B7421A
:105B700028BF374600EB0A013A46484603F041FC8D
:105B8000E6E72430019100F049FA01990028CBD1D1
:105B900060E703B0BDE8F08F37B54369C3F3431541
:105BA000044605B169B901220DF107012046FFF74E
:105BB00040FF40B2012801D0002008E063691F3394
:105BC00000E02033A0686361303000EB451003B083
:105BD00030BD2DE9F0410E460178076904460029E1
:105BE00039D04569B5423AD00EB9066131E00B07AC
:105BF00003D5C3699E422ED807E0880605D5A36861
:105C00001B89B6EB431F26D823E0D4F808E09EF8A2
:105C100006306A1E03F10900731EC240C3409A4257
:105C200000D84DB94A064CBFDEF82020226A226116
:105C30001D4604F110080AE09B1AF9E74246216963
:105C4000A06800F03CFA002805F1FF3503DD002DC7
:105C5000F4D1666103E027610020BDE8F0810120F6
:105C6000BDE8F081F8B50F46154600212422044610
:105C70001E4603F0D1FBB868A06005F00F02A580B6
:105C800000F1300152013B6AE3601144CB7A1D07F9
:105C90004CD4831893F83B3003F017032370C97A70
:105CA00011F0180F04BF43F0080323709DF818305B
:105CB000E37006F00303012B09D0022B05D0002B63
:105CC00034D1710532D4012302E0032300E0022322
:105CD000A370A1788B0703D5237813F0110F25D17A
:105CE0004BB216F4005F06F0080114BF6FF07F0797
:105CF000002719433943A170C36AA36102447505A3
:105D0000B2F84410B2F84A3043EA014104D581B1F7
:105D100000F075FA68B909E02162D36CE36173049D
:105D20000CD5E1692046FFF754FF38B900202070F8
:105D3000F8BDA37843F00403A370F0E70120F8BD99
:105D400038B5037804460BB9012038BD83785A076B
:105D500023D50121FFF746FE054628B9637843F0B5
:105D600001036370002038BD0378E52BF6D023785B
:105D70001B0744BFE369C361238C4383638C838225
:105D8000094B1B682BB100F11601183098472B8B7B
:105D90006B82A37823F00403A370A068FFF7BEFA18
:105DA0000028DBD0D0E700BFBCE3032010B50446D9
:105DB000FFF7C6FF0023237010BDF0B593B01F4658
:105DC00000238DF824308DF82530037801920646A3
:105DD0000C460BB100203DE00B7813F0700FF9D0AA
:105DE00013782F2B12D1019B1A782F2A02D101335D
:105DF0000193F8E7A1681AB93046FFF702FE29E0DF
:105E000009A8FFF7FEFD0028E4D009AC01AA03A908
:105E10000198FFF79FFA0028DCD0019B1B789BB10B
:105E2000002303AA21463046FFF7D6FB0028D1D035
:105E300035460FCD09AC0FC40FCD0FC42B682360BE
:105E40003046FFF7B3FFE0E73B4603AA2146304662
:105E5000FFF7C2FB13B0F0BD2DE9F0470378894688
:105E600019070446904608D583789A0705D51B077D
:105E70000BD5E169FFF7ADFE38B9637843F0010354
:105E800063704FF0FF30BDE8F0876369DB439845EE
:105E9000F3D846464FF0000A6369002E00F0818077
:105EA000A068427912EA5325C3F308071CD1DFB971
:105EB000216971B104F1100200F001F90028DCDB66
:105EC00040F08E802046FFF743FD002840F0888098
:105ED000D3E7236A3BB92046FFF73AFD0028CCD030
:105EE0002369236200E023612169A06800F0E1F8E2
:105EF000291817B9B6F5007F21D2C7F50075B5424C
:105F000028BF354637B96369E269934234BF01223D
:105F1000052200E00122A068243000F0A6F8002845
:105F2000ABD038442A4649462F4403F06AFAB7F505
:105F3000007F30D1A068243000F070F817E0B6F58B
:105F4000806FA06815D30279521B730AD2B29342B4
:105F500028BF1346C26A91424FEA432502D31A442E
:105F6000914237D3A7684A46386800F06DFC90B973
:105F700083E7C36A994202BF4FF0FF3380F824A041
:105F8000C362A3684A46186800F0ECFB00283FF49F
:105F900074AF4FF4007563692B446361A944761BA9
:105FA0007AE7E269934201D9E36102E00F4B1B6893
:105FB0001BB1A37843F00403A37094F90230002BC3
:105FC00002DB4046BDE8F0872046FFF7B9FE002817
:105FD000F7D152E74FF0FF3280F824A0C262C1E748
:105FE0002169A06800F065F8014683E7BCE303205F
:105FF00000F07CBE70B505460C46084649B103F07A
:106000004DFA2B68024621462846DB68BDE8704001
:10601000184770BD00F06ABE00F068BE70B5037826
:10602000DA0704461ED54368816800F10C06324643
:10603000186800F097FB054608B9002513E023789F
:106040009B0704D4237823F0010323700BE06368DB
:10605000A068196932460144186800F083FB0028E3
:10606000F0D1EAE70125284670BD70B583688B4200
:1060700004460E46154614D0FFF7D0FF08B900209D
:1060800070BD6B0703D500232370A66009E0636829
:1060900004F10C023146186800F0DAFA0028F2D157
:1060A000EDE72378204605F003051D4300F80C5B5F
:1060B00070BD8379406902399940084470470129CD
:1060C00070B505460C46164602D84FF0FF3070BD3D
:1060D000C3699942F9D8C379202B10D18169022272
:1060E00001EBD41100F50C70FFF7BFFF0028ECD0D6
:1060F00004F07F0450F8243023F070430FE0102B9D
:10610000E3D18369C1F307210222194400F50C7021
:10611000FFF7ABFF0028D8D0E4B230F81430EA69BA
:1061200093429ABF33600120002070BD012938B529
:106130000C46154601D8002038BDC3699942FAD8EB
:10614000C379202B0ED18169032201EBD41100F514
:106150000C70FFF78AFF0028EDD004F07F0440F8B0
:1061600024500FE0102BE6D18369C1F307210322ED
:10617000194400F50C70FFF778FF0028DBD0E4B27B
:1061800020F81450012038BD2DE9F341C4688C4239
:1061900005460E46904607D20C460027EB690134AF
:1061A0009C4203D9CFB9EC680127F7E7A64214D087
:1061B00001AA21462846FFF782FF00280DDBEDD01B
:1061C000019B002BEAD107B1EC606FF070422146D1
:1061D0002846FFF7ABFF074608B900270BE016B9C2
:1061E000C8F8004007E0224631462846FFF79EFFE8
:1061F0000028F5D1F1E7384602B0BDE8F08173B56B
:1062000005460C4601AA21462846FFF758FF061E00
:1062100001DA00200FE0002221462846FFF786FF22
:106220000028F6D0EB689C429CBF04F1FF34EC6080
:10623000019C002EE6D102B070BD70B5012304466A
:106240000022C3604FF0FF33C2710D46A06280F898
:106250002420C362C4F8340280F83022C0F83832F7
:10626000A1B104295DD811462430FFF7FEFE0028B5
:1062700057D000EB051393F8AE315B0651D11B35B7
:1062800000EB0515D5F80650002D4AD0002229460E
:1062900004F12400FFF7E9FE002842D0B0F80B30EB
:1062A000B3F5007F3DD1037C022B3AD1C389002B8B
:1062B00037D0417B21714B1E63710023A3710926E6
:1062C00001238B4207D0013E2BD0A2795B00013223
:1062D000DBB2A271F5E7C28A02B9426A2261C689BD
:1062E0002E44A661B0F81130238106EB42012162F1
:1062F000B0F81120520102F2FF1201EB622262613A
:10630000B0F8133003B9036AAD1A2B44A57923FA08
:1063100005F56B1CE36140F6F4739D4203D80C2332
:10632000E371002070BD4FF6F4739D4285BFC36AD0
:10633000236210232023E371012070BD00F0D6BC3E
:1063400000F0D4BC00F0D2BC70B50E4C0E46154621
:1063500000F044FD2368C01A0B4B984208D900F0A6
:1063600045FD0A4B186000F045FF00F037FD206046
:1063700000F03CFD80B2801BA842D4BF0020012069
:1063800070BD00BFC0E30320A086010034E70320F6
:1063900038B5057A04464DB9406800F07DFA636867
:1063A0002946187D02F01DFA0123237238BD10B56D
:1063B000037A04466BB143680121187D02F011FA9B
:1063C000FF21606800F09AFA606800F079FA002313
:1063D000237210BDF8B504460D46164600F006FDC2
:1063E00087B2606800F06FFAFF28607209D14FF43D
:1063F0007A7239462046FFF7A7FF0028F1D05523CF
:106400000BE0FE2801D0502307E0324629466068A1
:1064100000F05EFA607230B1602320462370FFF70F
:10642000C6FF0020F8BD606800F04DFA606800F01B
:106430004AFA0120F8BD70B504460E4600F0D6FCBD
:1064400085B2324629462046FFF77EFF30B96068A4
:1064500000F039FAFF28F4D1012070BD002070BD92
:10646000F7B5037A019204460D460BB9FFF790FF8A
:1064700025B14FF496712046FFF7DDFF45F040014E
:10648000606800F03BFA0DF107060DF1030716F8FE
:106490000119606800F032FABE42F8D1002D0CBF3D
:1064A00095218721606800F029FA606800F00BFAF6
:1064B0000B25606800F007FA0306607203D5013D02
:1064C00015F0FF05F5D103B0F0BD70B504460D46DB
:1064D000164637210022FFF7C3FF324629462046E1
:1064E000BDE87040FFF7BCBF2DE9F0410025057203
:1064F000057085724160044690461E4600F076FCA9
:1065000041460746606800F0CBF963684F4A1D7248
:106510004FF00108DA605D7483F810802046FFF7C1
:1065200037FF63684146187D02F05BF90A25FF21B9
:106530006068013D00F0E2F915F0FF05F7D16368EE
:106540002946187D02F04DF90A2500221146204601
:10655000FFF786FF0128804612D0013D15F0FF05A8
:1065600001D1202357E0FD21606800F0C7F94FF406
:106570000278606800F0A7F9B8F10108F9D1E4E702
:106580004FF4D57208212046FFF76AFF052802D193
:1065900084F80A800FE00425606800F094F9013D5A
:1065A00015F0FF056072F7D1AA2802D10223A37269
:1065B00001E025232FE0A37A022B0CBF4FF080458A
:1065C0000025BFB22A4629212046FFF77EFF02465A
:1065D00048B14FF4FA6239462046FFF7B5FE00286D
:1065E000F0D0432317E0A37A022B0ED02046FFF70A
:1065F000DEFE6368B0683479317B727B5A74D86090
:106600001C7219740120BDE8F0813A212046FFF781
:1066100027FF38B1372320462370FFF7C8FE00203C
:10662000BDE8F081606800F04EF900F0C000C028BD
:1066300004BF0323A372606800F045F9606800F0AE
:1066400042F9606800F03FF9D0E700BF90D0030046
:1066500038B5837A032B18BF490215460A46112123
:106660000446FFF7FDFE10B1302323700BE02946EE
:106670004FF400722046FFF7ADFE054618B12046E4
:10668000FFF795FE03E02046FFF791FE0025284620
:1066900038BD10B5837A032B0A4618BF4A0212216F
:1066A0000446FFF7DDFE30B1312320462370FFF7AB
:1066B0007EFE002010BD012010BD10B500220C216F
:1066C0000446FFF7CDFE30B1282320462370FFF7A4
:1066D0006EFE002010BD2046FFF769FE012010BDB0
:1066E000F8B5054616461F46FFF7D3FF98B10024BC
:1066F000A3B29F4206EB442108D94FF4007228460A
:10670000FFF768FE01340028F2D104E02846BDE816
:10671000F840FFF7D2BF0020F8BD38B50446154653
:10672000406800F0EBF84FF400722946606800F012
:10673000E9F8FF21606800F0E1F8FF21606800F0EF
:10674000DDF8606800F0BFF8607200F01F000528F7
:1067500006D0572320462370FFF729FE002038BDBE
:10676000012038BD70B5837A032B18BF4902154646
:106770000A4618210446FFF773FE064608B1322385
:106780001DE02A46FE212046FFF7C7FFC0B14FF4A7
:10679000FA612046FFF74FFE054608B95A230EE07E
:1067A00032460D212046FFF75BFE38B9606800F0E5
:1067B0008AF818B92046FFF7FAFD05E0292323706F
:1067C0002046FFF7F4FD0025284670BD38B50D467C
:1067D0004FF4FA610446FFF72EFE10B95B232370D5
:1067E00005E02A46FC212046FFF797FF18B920460E
:1067F000FFF7DDFD002038BD10B5837A032B0A4674
:1068000018BF4A0219210446FFF72AFE30B133238C
:1068100020462370FFF7CBFD002010BD012010BDE6
:1068200038B54FF4FA610446FFF705FE054620B17E
:10683000FD21606800F062F801E0562323702046D5
:10684000FFF7B5FD284638BDF8B5054616461F4684
:10685000FFF7D2FF70B10024BC4206EB442128466A
:1068600004D0FFF7B3FF28B10134F5E7BDE8F840E5
:10687000FFF7D6BF2846FFF79AFD0020F8BD00F0CD
:1068800035BA00F033BA00F031BA0000014B0122F2
:106890001A707047C4E30320011D006800F062BD58
:1068A00010B504460175006800F03EFD207D012111
:1068B00001F086FF207D0121BDE8104001F091BF6D
:1068C000006800F036BDFF21006800F0BBBD00008D
:1068D00037B5084B00930025074C00682570134618
:1068E0000A46294600F0B4FD2378002BFCD0002096
:1068F00003B030BD8D680D00C4E30320006800F0D4
:10690000A1BD000037B5074B00930025064C006879
:10691000257013462A4600F09BFD2378002BFCD0FF
:1069200003B030BD8D680D00C4E3032000F0DEB974
:10693000B0F5FA6F30B528BFA0F5FA60104D28BF4A
:1069400080B292B200230133DCB2A14205D9EC1827
:1069500014F8014C224492B2F5E7022903D98307C7
:1069600004BF013292B200EBC003C11C00EBC300B4
:1069700000EB8000431E03EBA100104480B230BD49
:1069800022990D0038B50C46054601F067FF6821D5
:1069900001F0C9F901F062FF036829469B68984736
:1069A00001F05CFF036821469B68984701F056FFA1
:1069B000BDE8384001F0C2B910B5044601F04EFF01
:1069C000682101F0B0F901F049FF036821469B6896
:1069D000984701F043FF01F0B1F901F03FFF0122B8
:1069E000682101F098F901F039FF03685B69984765
:1069F000C0B210BD234B3C220B4430B5B3FBF2F4C4
:106A000002FB14314171B4FBF2F102FB1142182474
:106A100002714FF46162B3FBF2F2B2FBF4F104FBDA
:106A20001122C270184AB3FBF2F300229BB202702B
:106A3000017811F003040CBF0122002202F5B675A3
:106A40009D4207DAC2F57E429332134401319BB274
:106A50000170EDE701220D4D427041786A1812F87D
:106A6000012C1CB9022904BF0132D2B292B2934266
:106A700004D39B1A01319BB24170EEE7013383705E
:106A800030BD00BF80BC92C78051010022990D002B
:106A9000B1F5FA6F83709DF80030C37028BFA1F57F
:106AA000FA619DF80430037128BF89B29DF808305F
:106AB000017042704371704710B504468278417886
:106AC0000078FFF735FFE278182303FB00202379D5
:106AD0003C2202FB0030637902FB0033014818447A
:106AE00010BD00BF80436D3808B501F0B7FE01F05E
:106AF00003F9012008BD08B50F20FFF75DFFC0F3C3
:106B0000C01008BD38B5054601F0A8FE682101F0A7
:106B10000EF901F0A3FE036800219B68984701F07D
:106B20009DFE6B790A24B3FBF4F101EB410103EB09
:106B300041010368C9B29B68984701F08FFE2B7929
:106B4000B3FBF4F101EB410103EB41010368C9B26E
:106B50009B68984701F082FEEB78B3FBF4F101EB00
:106B6000410103EB41010368C9B29B68984701F0FA
:106B700075FE036800219B68984701F06FFEAB78B3
:106B8000B3FBF4F101EB410103EB41010368C9B22E
:106B90009B68984701F062FE6B78B3FBF4F101EB60
:106BA000410103EB41010368C9B29B68984701F0BA
:106BB00055FE29780368B1FBF4F404EB440401EBBF
:106BC00044019B68C9B2984701F048FE01F0B6F84D
:106BD0000F20FFF7F1FEBDE8384000F07F010F20E5
:106BE000FFF7D0BE2DE9F843044601F037FE6821D7
:106BF00001F09DF801F032FE036800219B68984780
:106C000001F02CFE01F09AF801F028FE072268211D
:106C100001F084F801F022FE03685B69984700F0F8
:106C20007F000511A5EB850500EB4500C5B201F01D
:106C300015FE03685B699847C0F30316A6EB86064A
:106C400000EB4600C6B201F009FE03685B69984795
:106C5000C0F30317A7EB870700EB4700C7B201F0AB
:106C6000FDFD03685B69984701F0F8FD03685B6907
:106C70009847C0F30318A8EB880800EB48005FFAB8
:106C800080F801F0EBFD03685B699847C0F30319D6
:106C9000A9EB890900EB49005FFA80F901F0DEFDFC
:106CA00003685B699847C0F30313A3EB830300EB0E
:106CB0004300207084F8019084F80280E770267108
:106CC00065712046BDE8F88300F010B808B5024BA6
:106CD0001B689B68019308BD6802030008B5024B5E
:106CE0001B68DB68019308BD6802030008B5024B0E
:106CF0001B681B68019308BD2C02030008B5024BFA
:106D00001B689B68019308BD2C02030008B5024B69
:106D10001B68DB68019308BD2C02030008B5024B19
:106D20001B681B69019308BD2C02030008B5024BC8
:106D30001B68DB6C019308BD2C02030008B5024BF5
:106D40001B681B68019308BD3002030008B5024BA5
:106D50001B685B69019308BD3002030008B5024B54
:106D60001B68DB69019308BD3002030008B5024BC4
:106D70001B681B6A019308BD3002030008B5024B73
:106D80001B685B6A019308BD3002030008B5024B23
:106D90001B689B6A019308BD3002030008B5024BD3
:106DA0001B689B6B019308BD3002030008B5024BC2
:106DB0001B68DB6B019308BD3002030008B5024B72
:106DC0001B685B69019308BD6C02030008B5024BA8
:106DD0001B685B68019308BD1802030008B5024BED
:106DE0001B681B69019308BD1802030008B5024B1C
:106DF0001B685B69019308BD1802030008B5024BCC
:106E00001B689B68019308BD4802030008B5024B4C
:106E10001B681B69019308BD4802030008B5024BBB
:106E20001B685B69019308BD4802030008B5024B6B
:106E30001B681B6B019308BD4802030008B5024B99
:106E40001B689B6B019308BD4802030008B5024B09
:106E50001B681B6C019308BD4802030008B5024B78
:106E60001B685B6C019308BD4802030008B5024B28
:106E70001B685B69019308BD6402030008B5024BFF
:106E80001B681B6A019308BD6402030008B5024B2E
:106E90001B689B6A019308BD6402030008B5024B9E
:106EA0001B681B68019308BD3C02030008B5024B38
:106EB0001B689B68019308BD3C02030008B5024BA8
:106EC0001B68DB68019308BD3C02030008B5024B58
:106ED0001B681B69019308BD3C02030008B5024B07
:106EE0001B685B69019308BD3C02030008B5024BB7
:106EF0001B689B69019308BD3C02030008B5024B67
:106F00001B68DB69019308BD3C02030008B5024B16
:106F10001B681B6A019308BD3C02030008B5024BC5
:106F20001B689B6A019308BD3C02030008B5024B35
:106F30001B68DB6A019308BD3C02030008B5024BE5
:106F40001B68DB68019308BD2802030008B5024BEB
:106F50001B685B69019308BD2802030008B5024B5A
:106F60001B689B69019308BD2802030008B5024B0A
:106F70001B68DB69019308BD2802030008B5024BBA
:106F80001B681B6A019308BD2802030008B5024B69
:106F90001B685B6A019308BD2802030008B5024B19
:106FA0001B689B6A019308BD2802030008B5024BC9
:106FB0001B68DB6A019308BD2802030008B5024B79
:106FC0001B681B6B019308BD2802030008B5024B28
:106FD0001B685B6B019308BD2802030008B5024BD8
:106FE0001B681B6C019308BD2802030008B5024B07
:106FF0001B689B69019308BD3802030008B5024B6A
:107000001B68DB69019308BD3802030008B5024B19
:107010001B681B6A019308BD3802030008B5024BC8
:107020001B689B6A019308BD3802030008B5024B38
:107030001B681B6B019308BD3802030008B5024BA7
:107040001B689B6B019308BD3802030008B5024B17
:107050001B681B68019308BD4C02030008B5024B76
:107060001B685B68019308BD4C02030008B5024B26
:107070001B681B69019308BD4C02030008B5024B55
:107080001B685B69019308BD4C02030008B5024B05
:107090001B689B69019308BD4C02030008B5024BB5
:1070A0001B68DB69019308BD4C02030008B5024B65
:1070B0001B681B6A019308BD4C02030008B5024B14
:1070C0001B685B6A019308BD4C02030008B5024BC4
:1070D0001B685B6F019308BD7402030008B5024B87
:1070E0001B681B6D019308BD6002030008B5024BCD
:1070F0001B685B68019308BD2002030008B5024BC2
:107100001B685B69019308BD2002030008B5024BB0
:107110001B68DB6A019308BD2002030008B5034B1E
:107120001B68D3F88830019308BD000020020300DB
:1071300008B5034B1B68D3F89430019308BD0000D9
:107140002002030008B5024B1B685B68019308BD71
:107150004002030008B5024B1B689B68019308BD01
:107160004002030008B5024B1B68DB68019308BDB1
:107170004002030008B5024B1B681B69019308BD60
:107180004002030008B5024B1B685B69019308BD10
:107190004002030008B5024B1B689B69019308BDC0
:1071A0004002030008B5024B1B68DB69019308BD70
:1071B0004002030008B5024B1B681B6A019308BD1F
:1071C0004002030008B5024B1B689B6A019308BD8F
:1071D0004002030008B5024B1B681B6B019308BDFE
:1071E0004002030008B5024B1B685B6B019308BDAE
:1071F0004002030008B5024B1B689B68019308BD61
:107200004402030008B5024B1B68DB6B019308BD09
:107210004402030008B5024B1B681B68019308BDBC
:107220001C02030008B5024B1B685B68019308BD94
:107230001C02030008B5024B1B689B68019308BD44
:107240001C02030008B5024B1B68DB69019308BDF3
:107250001C02030008B5024B1B685B6A019308BD62
:107260001C02030008B5024B1B68DB6B019308BDD1
:107270001C020300002211464068FFF79BBF00225A
:1072800011464068FFF7AEBF00224068FFF7A2BF7B
:10729000002281F001014068FFF784BF00231A46F5
:1072A00019464068FFF776BF00231A461946406822
:1072B000FFF768BF002211464068FFF75BBF00225E
:1072C00011464068FFF746BF002202214068FFF7E1
:1072D00049BF00231A464068FFF734BF024B032220
:1072E0005A60024A1A607047C8E3032038990D00BB
:1072F000704710B51021044601F0D5FA204610BDA4
:1073000070B5084B0360044600250E4640F80C5F3C
:10731000FFF78CFD30462671FFF720FDA560204663
:1073200070BD00BF6C990D004FF6FF710079FFF73B
:1073300005BDC068FFF78ABD400830B5186000245D
:1073400018688842E5B206D90134082C02D04008FA
:107350001860F5E70725024B5B5D137030BD00BF79
:1073600074990D002DE9F04380468FB0C0680F4638
:10737000FFF764FD98F804401422002109A802F0E8
:107380004BF80B232046002209A9ADF82430FFF763
:10739000F5FC9DF82D404CB19DF82C502DB90C9E5C
:1073A0009DF834909DF8354003E00024A146264620
:1073B00001253B790DB1002B40D19D420BD1BA681C
:1073C000B24208D18DF820908DF82140BDF82010F0
:1073D000BA89914232D023BB8DF80F300DF10F02E4
:1073E00004ABB9680A98FFF7A7FF3B7905B113BB57
:1073F000AB4209D000213B7B01917C7B9DF80F20A3
:1074000098F80400009413E0BB68B342F2D38DF8FF
:1074100020908DF82140BDF82020BB899A42E9D107
:1074200009E0002398F80400019300931A46012113
:10743000FFF7BCFC02E0049BB342DBD100200FB09D
:10744000BDE8F08308B50079FFF780FCC0B208BD45
:1074500030B587B004460A9D00790095FFF796FC89
:107460003DB902A92079FFF799FC9DF81430DB079C
:10747000F7D407B030BD0079FFF778BC044B00208B
:107480004FF6FF72187058809A80FFF72FBE00BF2A
:10749000D0E3032010B504460068FFF7C3FE204682
:1074A00010BD10B50446006808B1FFF7BBFE00230D
:1074B0002360A360636010BD38B504460D460068C4
:1074C0000131FFF7B7FE10B184E82100012038BD7B
:1074D00010B50368044613B143688B4207D22046B7
:1074E000FFF7EAFF20B1A3680BB9226813700120EF
:1074F00010BD70B50E46114604461546FFF7E8FF6D
:1075000018B92046FFF7CDFF09E02A463146A560AD
:10751000206801F076FF2268A3680021D15420463C
:1075200070BD38B500230446036043608360037375
:107530000D4639B1084601F0B1FF29460246204602
:10754000FFF7D7FF204638BD38B505460C4641B198
:10755000084601F0A3FF214602462846FFF7C9FF6F
:1075600001E0FFF79EFF284638BD70B504460E4681
:1075700009B9002070BD6AB18368D5182946FFF7A4
:10758000A7FF0028F5D02068A3683146184401F011
:107590007DFFA560012070BD8A680968FFF7E5BF1F
:1075A00008B582680B4612B919B9012008BD11B996
:1075B0000368187802E0006801F05EFFB0FA80F01E
:1075C000400908BD10B58368934207D9046809686B
:1075D000A01801F06BFF08B1001B10BD4FF0FF3089
:1075E00010BD0022FFF7EEBF2DE9F0419A420E4692
:1075F0001C46104988BF13461546074684BF2546DA
:107600001C46FFF78EFFB1688D420FD88C4228BF11
:107610000C463368002213F804801A553168384646
:107620002944FFF791FF336803F804803846BDE82A
:10763000F08100BF21990D0010B504468B68FFF75B
:10764000D3FF204610BD0000024800230360FFF76F
:1076500005BC00BFD8E30320F8B506460D468F18D9
:107660000024BD420CD0336815F8011B9B683046DE
:107670009847002801DB0444F3E7002C08BF0446C8
:107680002046F8BD08B5FEF7B5FC08BD03689B6849
:10769000184738B50D210546FFF7F8FF0A210446C3
:1076A0002846FFF7F3FF204438BD38B50546FEF7FE
:1076B000A1FC04462846FFF7ECFF204438BD30B556
:1076C0008BB00B4600218DF82410012A98BF0A22A6
:1076D0000DF12304B3FBF2F505FB123303F0FF03B6
:1076E000092B94BF30333733DBB2214604F801391C
:1076F0002B46002DEED1FEF77DFC0BB030BD10B453
:107700002AB903685DF8044B9B68C9B21847D2B226
:107710005DF8044BFFF7D3BFFFF7F1BF2DE9F04150
:1077200007460E4615462AB90368C9B29B68BDE8EC
:10773000F04118470A2A02D1002901DA04E0D2B246
:10774000BDE8F041FFF7BBBF2D21FFF79FFF2A46A1
:10775000044671423846FFF7B2FF2044BDE8F0818D
:10776000FFF7DCBF38B50546FFF7D8FF04462846CB
:10777000FFF78FFF204438BD0CB42DE9F04387B0EC
:1077800000AF07F13804054654F8049B3C600E46F0
:1077900023464A461421381DFFF75CFD132805D8FF
:1077A000391D2846FEF726FC044613E000F10803C5
:1077B00023F00703E846ADEB030D411C23464A4680
:1077C00068463C60FFF746FD69462846FEF712FC16
:1077D0000446C5461EB12846FFF75BFF0444204619
:1077E0001C37BD46BDE8F04302B07047014B024A6A
:1077F0001A607047DCE30320EF990D00024B1A6812
:10780000024B1A60704700BFE4D10320E0E303207D
:107810000021FFF773BC10B58368044613B103223F
:1078200001469847204610BD10B50446FFF7F3FF08
:10783000204610BD0348044A04490023836001F038
:107840002DB800BFE4E3032050D2032029780D00B7
:1078500008B50C4B33B100F063F903681B69984716
:10786000002809DC084B63B100F0E2F903681B69EA
:107870009847002803DC08BDAFF30080F2E7AFF3C0
:10788000008008BD000000000000000008B5FFF700
:10789000DFFFFFF7ABFA014B186008BD34E70320A8
:1078A00007B5002300931A466FF07701FFF740FCFD
:1078B00003B05DF804FB000007B543880A2B08D02D
:1078C000502B09D1094B1B683BB103B05DF804EBA9
:1078D0001847FFF7E5FF06E0002300931A466FF014
:1078E0007701FFF725FC03B05DF804FBF4E3032008
:1078F00010B5FFF76BFA044601F096FD074B13B184
:107900002046AFF3008000210448FFF77BFC0021F4
:107910000348BDE81040FFF701BC00BF00000000B5
:10792000B9780D00704710B51821044600F0BBFF70
:10793000204610BDF0B5037D062B8DB00E4600F13C
:1079400004074FF0000402D000F1080518E00CAD68
:10795000394605F8304D2F232A460A20FFF786FACC
:10796000284601F09BFD33680246DB682946304615
:1079700098470FE024B12E213046FFF787FE0444DC
:1079800015F8011D0A223046FFF7C6FEBD42044429
:10799000F0D120460DB0F0BD10B5054B04461122C4
:1079A00040F8043B002101F037FD204610BD00BF28
:1079B000889A0D000346074A10B543F8042B01F1DD
:1079C000100251F8044B43F8044B9142F9D10A7864
:1079D0001A7010BD889A0D00037D042B01D14068F8
:1079E00008E0062B0AD1436853B9836843B9C368DA
:1079F00033B90069003018BF01207047002070477C
:107A00000120704710B59DF8084044EA032343EA7B
:107A1000024242EA016104234160037510BD000087
:107A200037B5044D05609DF818500095FFF7EAFF43
:107A300003B030BD889A0D0037B50D788B784A7841
:107A4000C97800912946FFF7DDFF03B030BD4174CE
:107A50007047704708B50021007CFFF717FB30EA3C
:107A6000200028BF4FF0FF3008BD08B50121007C81
:107A7000FFF70CFB30EA200028BF4FF0FF3008BDB5
:107A800008B5007CFFF7FAFA20EAE07008BD08B5F7
:107A9000007CFFF7EBFA20EAE07008BD007CFFF7FE
:107AA00005BB10B51421044600F0FDFE204610BDB4
:107AB00038B50446007C0D46FFF7E0FA002801DCEB
:107AC000607C28B12946207CFFF7E8FA20EAE070C4
:107AD00038BD000010B50446002363604FF47A738C
:107AE000A360054B2360012308462174637411468B
:107AF000FFF7ACFA204610BD9C9A0D000022007CD6
:107B0000FFF7ACBA007CFFF7D9BAFFF7FBBF10B59F
:107B100014220446002101F07FFC204610BD000025
:107B200030B50E4D87B001A8FFF7F1FF296811F0BD
:107B3000010410D12846FCF7B6FA60B101AA21462B
:107B40000748FFF7C7FF2846FCF7B2FA054A06497F
:107B5000034800F0A3FE024807B030BDF8E303205D
:107B6000FCE3032050D20320537A0D007047417488
:107B7000704708B5007CFFF7D1F920EAE07008BD36
:107B800008B5007CFFF7A2F920EAE07008BD08B54F
:107B9000007CFFF7ABF930EA200028BF4FF0FF3040
:107BA00008BD08B5007CFFF799F930EA200028BF2E
:107BB0004FF0FF3008BD007CFFF7A0B910B51421CD
:107BC000044600F070FE204610BD70B5457C0446AA
:107BD0000E4625B9007CFFF7A1F9002805DD3146E6
:107BE000207CBDE87040FFF769B9284670BD0000F1
:107BF00010B5044608461146002262604FF47A72BE
:107C0000A260054A22600122207462741A46FFF7BE
:107C100045F9204610BD00BFCC9A0D000023007C22
:107C2000FFF784B9007CFFF741B9007CFFF76EB91C
:107C300038B50C4D296811F0010411D12846FCF724
:107C400032FA68B1084A094B09482146FFF7D0FFCC
:107C50002846FCF72DFA074A0749054800F01EFEA2
:107C6000034838BDA8E40320ACE4032024E4032047
:107C700010E4032050D203206D7B0D007047F8B54F
:107C8000064615460C468F18BC4206D0336814F8D9
:107C9000011B9B6830469847F6E72846F8BD00224E
:107CA000007CFFF76BB90021007CFFF76FB9002162
:107CB000007CFFF773B90021007CFFF777B9002142
:107CC000007CFFF77BB910B51421044600F0EBFDF2
:107CD000204610BD10B504464FF47A730846A360E1
:107CE0000021044B207461602360FFF777F9204680
:107CF00010BD00BFFC9A0D0000231A461946007CF7
:107D0000FFF71CB913B50024007C0094FFF71EF99F
:107D1000C0B202B010BD0123FFF7F4BF0123D2B2FD
:107D2000C9B2FFF7EFBF0022007CFFF717B9C9B255
:107D3000FFF7F9BF0022007CFFF718B90121FFF718
:107D4000F9BF0021007CFFF741B9002211464068CD
:107D5000FFF730BA002211464068FFF743BA00220D
:107D60004068FFF737BA002281F001014068FFF751
:107D700019BA00231A4601214068FFF70BBA002305
:107D80001A4619464068FFF7FDB9002211464068BF
:107D9000FFF7F0B9002211464068FFF7DBB9002277
:107DA00002214068FFF7DEB900231A464068FFF75A
:107DB000C9B938B5054688B104684CB1A3681BB190
:107DC00003222146204698471021204600F06BFDF3
:107DD00028461421BDE8384000F065BD38BD10B11B
:107DE00003685B681847704710B503680446BBB169
:107DF0005868FFF703F878B923685A7C12B95868B5
:107E0000FFF704F823685868FFF708F82068002394
:107E1000236028B1FFF7CDFF206808B1FFF7C9FF45
:107E2000204610BD38B50C4B03600446D0F8CC0199
:107E300008B1FCF736F9D4F8C45135B12846FFF73C
:107E4000D3FF0421284600F02EFDA06808B1FFF7FB
:107E5000C6FF204638BD00BF249B0D0038B50E4C30
:107E60000E4B23600025022304F5E4706360A560D7
:107E7000C4F8C451C4F8C851FEF7F0FF084BC4F869
:107E8000CC5184F8D05123602046064A0649BDE80B
:107E9000384000F003BD00BF30E50320309C0D00EA
:107EA000249B0D0050D20320257E0D0037B502AC77
:107EB000036804F8011DDD6B01224FF0FF332146FA
:107EC000A84703B030BD10B40368DC6B4FF0FF333C
:107ED000A4465DF8044B604737B502AC036804F86C
:107EE000011DDD6B214613460122A84703B030BDBA
:107EF000704738B543691A68002A044605DAB3F8B2
:107F00008620B3F884309A4201D001250BE0036843
:107F10001B699847002814BF0125002503D1236859
:107F20002046DB6A9847284638BD43691868C04335
:107F3000C00F704770470020704710B514210446E9
:107F400000F0B1FC204610BDFCF7A9B87FB516467D
:107F500000224260029203925A1C04460D4608D049
:107F60004FF47A72B3FBF2F1029102FB11314A43F2
:107F7000039260690823009341F205026B4440F6C6
:107F8000FF710068FFF732F8002808DB6069002302
:107F9000324629460068FFF749F8002804DAFFF75F
:107FA00061F903686360002004B070BD10B5036818
:107FB00004469B689847A368013BA3602BB92368DC
:107FC0002046DB68BDE81040184710BD70B5044678
:107FD0004D69054B44F8043B8C3506460FCD0FC464
:107FE0002B682370304670BD889A0D0010B5436928
:107FF000B3F88620B3F884309A42044605D062690B
:10800000B2F884301344187910BD03681B6998478F
:108010000028F4D14FF0FF3010BD10B54369B3F81C
:108020008620B3F884309A42044608D06269B2F8D8
:108030008430591C1344A2F88410187910BD0368C9
:108040001B6998470028F1D14FF0FF3010BDF8B5FB
:1080500043691746B3F88620B3F884309A42054640
:108060000E4606D103681B69984710B94FF0FF34DC
:1080700014E06969B1F88430B1F88640E41ABC4272
:1080800028BF3C46194422460431304601F0B9F974
:108090006A69B2F884302344A2F884302046F8BDDF
:1080A0002DE9F0439846036893B0DB6A0D46064617
:1080B0001746984712AB002443F8484D2246214604
:1080C0002846FEF70BFE814600283DD1009B002B81
:1080D00056D05B69002B53D006A8FFF75DFC009BD0
:1080E0005C696378022B01D1211D13E00A2B14D1A6
:1080F0001122494601A801F08FF9A36833BBE36858
:1081000023BB4FF6FF702569FEF7B8FE85421DD1EF
:1081100004F1140106A8FFF78FFC06A8FFF75CFC2A
:1081200000282DD0336807ADD3F82090184B0C935E
:108130000FCD0DAC0FC42B6823703A4643460CA9F3
:108140003046C84781461BE0A14619E004F1080308
:1081500001AD1834186859682A4603C20833A3428F
:108160001546F7D1062301A90CA80DAD8DF81430E2
:10817000FFF720FC0FCD07AC0FC42B682370CCE7B2
:108180000098FEF7A3FD484613B0BDE8F08300BF9A
:10819000889A0D0042690023A2F884304269A2F84F
:1081A000863070472DE9F0411E4603680C468AB0C0
:1081B000DB6A054617469847237DD5F81480042BC3
:1081C0000CBF02200A2006220121FEF737FFC8F863
:1081D00000006B691B68002B18DB2846FFF7DAFFED
:1081E000D6B1002303A9F0B20393ADF81030FEF727
:1081F000E5FD58B968690623009341F20B0203AB11
:1082000040F6FF710068FEF7F1FE28B12B682846A2
:10821000DB6A002498473BE01C263246002103A875
:1082200001F0FAF8237D8DF80C60042B0CD10223A9
:1082300038468DF80D30FEF729FEADF80E00606867
:10824000FEF71CFE049013E00A2338468DF80D302B
:10825000FEF71CFE05AEADF80E00231D04F1140759
:1082600018685968324603C20833BB421646F7D134
:108270006B691C2203A91868FEF7C8FE0028C5D147
:1082800004340FCC6D698C350FC523682B70012425
:1082900020460AB0BDE8F08110B54369044618686D
:1082A000002801DBFEF7AAFE63694FF0FF321A6077
:1082B0006069112200218C3001F0AEF82046BDE843
:1082C0001040FFF767BF000030B54269B2F8863052
:1082D0008BB004461BB1B2F884209A4240D0636947
:1082E000186800283FDBB3F886507F2D3BD8191D56
:1082F000C5F1800208232944FEF790FE00280CDD1A
:108300006369B3F886200AB9A3F884206269B2F8D9
:1083100086301844A2F8860025E0FEF7A3FF036824
:108320000B2B20D0FEF79EFF03680B2B1BD02023C6
:10833000002502930395FEF795FF036801930E4B0A
:10834000009302AA2B460D493220FEF7C7FE63694F
:108350001868FEF753FE63694FF0FF321A6002E0BF
:10836000FFF718FFBBE76269B2F88630B2F8840005
:10837000181A0BB030BD00BFBF9B0D00B89B0D009D
:1083800010B5002304460160A0F88430A0F88630C0
:108390008830FFF701FB204610BD00004FF47A72D1
:1083A00070B500238260144A4360026043618361B8
:1083B0000446A0200E46FBF770FE054610B131467C
:1083C000FFF7DEFF1420FBF768FE034628B1012209
:1083D00042608260094A02600561A0696561A3612B
:1083E00028B14368013B43600BB9FFF7DFFD20462E
:1083F000FFF7D0FE204670BD749B0D00589B0D000A
:1084000010B54FF0FF310446FFF7C8FF204610BDFE
:1084100010B504460068002801DBFEF7EFFD20469A
:1084200010BD10B504692046FFF7F2FF24B12046C5
:10843000BDE81040FBF733BE10BD70470120704708
:1084400083891BB10369B3F1004F02D19FED050A87
:10845000704707EE903A9FED047AF8EEE77A87EEE0
:10846000870A7047000000000000C84283891BB1E2
:108470008369B3F1004F02D19FED050A704707EE03
:10848000903A9FED047AF8EEE77A87EE870A704714
:10849000000000000000C842002211464068FEF7BC
:1084A00069BE10B52421044600F0FDF9204610BD38
:1084B000002211464068FEF77DBE0022114640684A
:1084C000FEF790BE00224068FEF784BE002281F0D5
:1084D00001014068FEF766BE00231A46194640684F
:1084E000FEF758BE00231A4619464068FEF74ABEFA
:1084F000002211464068FEF72DBE0022022140688E
:10850000FEF730BE00231A464068FEF71BBE00008F
:1085100083897BB1036A002B0CDB07EE903ADFED19
:10852000076A9FED070AB8EEE77AC7EE267A27EECC
:10853000800A7047BFEE000A704700BF00FF7F4708
:108540000000C84283897BB14369002B0CDB07EE36
:10855000903ADFED076A9FED070AB8EEE77AC7EEBB
:10856000267A27EE800A7047BFEE000A704700BFE8
:1085700000FF7F470000C84270B50D46064600F177
:108580000C040FCD0FC495E8030084E803003369A1
:10859000B3F1004F0EBF0223642293FBF2F373602A
:1085A000B369B3F1004F0EBF0023642293FBF2F3D3
:1085B000B360012070BD00002DE9F041164B03604F
:1085C000002588460227182686B047608560324617
:1085D000294604460C3000F01FFF2A462946D8F8E9
:1085E0000400FEF7C7FD90B132462946684600F008
:1085F00013FF2A4669462846ADF80060FEF766FD7F
:1086000020B969462046FFF7B7FF00E067602046C3
:1086100006B0BDE8F08100BF0C9C0D00024B0422A7
:108620005A60024A1A60704704E70320D89B0D0085
:1086300000231A464068FEF785BD002202214068EB
:10864000FEF790BD002211464068FEF783BD002270
:1086500011464068FEF78EBD00231A461946406851
:10866000FEF790BD00231A4619464068FEF792BDFA
:10867000002281F001014068FEF794BD00224068AD
:10868000FEF7A8BD002211464068FEF7ABBD0022F0
:1086900011464068FEF78EBD2DE9F043002495B0E9
:1086A00016460D460746FFF777F9214620220CA80B
:1086B000009400F0B1FE40230C9321466B460CAAB7
:1086C0003046FEF70BFB0446002844D10246012148
:1086D0006868FEF74FFD0221804622466868FEF773
:1086E00049FD009E81462146002E34D0002932D11A
:1086F0007368022B02D00A2B09D02AE0B8F1000FD0
:1087000027D0716938460431FFF796F920E0B9F1B6
:10871000000F1ED07469112201A800F07DFE06230F
:108720008DF8143001AD04F1080318341868596845
:108730002A4603C20833A3421546F7D101A906A869
:1087400007ADFFF737F90FCD3C1D0FC42B68237021
:108750000121F669C8E70098FEF7B8FA384615B067
:10876000BDE8F083024B034A1A6000225A6070474A
:108770000CE70320309C0D0010B504460F48FEF7AF
:108780007AFE28B1A4F10B03022B01D8002010BD02
:1087900000F064F8FFF7D5FA08B1012CF6D9FFF71D
:1087A00047FAFFF742FA18B1A4F10903012BEDD9FA
:1087B000232C8CBF0020012010BD00BF14E7032034
:1087C000232838B504460D460AD8FF2908D0FFF7FC
:1087D000D3FF28B129462046BDE83840FEF78EBABF
:1087E00038BD38B504460D46FEF790FAFF2810D084
:1087F000062804D84D2323FA00F0C30709D42046E5
:10880000FFF7BAFF28B129462046BDE83840FEF7F9
:1088100085BA38BDFEF78ABA70B50C4C0C4E0D4DBA
:1088200000212046FEF76CFD20460B4C32462946BF
:1088300000F034F801212046FEF762FD3246294659
:108840002046BDE8704000F029B800BF14E70320BF
:1088500050D20320F1720D0024E7032038B50B4DF0
:10886000296811F001040FD12846FBF71CFC58B110
:1088700021460748FFF72EFA2846FBF719FC054A60
:108880000549034800F00AF8014838BD38E70320DD
:108890003CE7032050D203207D7C0D000B460146AF
:1088A000184600F091BDFBF7FABB0000184B1A68A0
:1088B000D1075CBF01221A60164B1A68D2075CBF51
:1088C00001221A60144B1A68D0075CBF01221A609B
:1088D000124B1A68D1075CBF01221A60104B1A684C
:1088E000D2075CBF01221A600E4B1A68D0075CBF2A
:1088F00001221A600C4B1A68D1075CBF01221A6072
:108900000A4B1A68D2075CBF01221A60704700BF89
:108910006CE7032068E7032064E7032060E7032097
:108920005CE7032058E7032054E7032050E70320C7
:10893000244B1A68D0075CBF01221A60224B1A68C8
:10894000D1075CBF01221A60204B1A68D2075CBFB6
:1089500001221A601E4B1A68D0075CBF01221A6000
:108960001C4B1A68D1075CBF01221A601A4B1A68A7
:10897000D2075CBF01221A60184B1A68D0075CBF8F
:1089800001221A60164B1A68D1075CBF01221A60D7
:10899000144B1A68D2075CBF01221A60124B1A6886
:1089A000D0075CBF01221A60104B1A68D1075CBF68
:1089B00001221A600E4B1A68D2075CBF01221A60AE
:1089C000704700BF9CE7032098E7032094E703204B
:1089D00090E703208CE7032088E7032084E7032047
:1089E00080E703207CE7032078E7032074E7032077
:1089F00070E70320244B1A68D0075CBF01221A607D
:108A0000224B1A68D1075CBF01221A60204B1A68FA
:108A1000D2075CBF01221A601E4B1A68D0075CBFE8
:108A200001221A601C4B1A68D1075CBF01221A6030
:108A30001A4B1A68D2075CBF01221A60184B1A68D9
:108A4000D0075CBF01221A60164B1A68D1075CBFC1
:108A500001221A60144B1A68D2075CBF01221A6007
:108A6000124B1A68D0075CBF01221A60104B1A68BB
:108A7000D1075CBF01221A600E4B1A68D2075CBF97
:108A800001221A60704700BFCCE70320C8E703202B
:108A9000C4E70320C0E70320BCE70320B8E70320B6
:108AA000B4E70320B0E70320ACE70320A8E70320E6
:108AB000A4E70320A0E70320184B1A68D1075CBF86
:108AC00001221A60164B1A68D2075CBF01221A6095
:108AD000144B1A68D0075CBF01221A60124B1A6847
:108AE000D1075CBF01221A60104B1A68D2075CBF25
:108AF00001221A600E4B1A68D0075CBF01221A606F
:108B00000C4B1A68D1075CBF01221A600A4B1A6825
:108B1000D2075CBF01221A60704700BFECE7032058
:108B2000E8E70320E4E70320E0E70320DCE7032095
:108B3000D8E70320D4E70320D0E7032081F00041E9
:108B400002E000BF83F0004330B54FEA41044FEA32
:108B5000430594EA050F08BF90EA020F1FBF54EACD
:108B6000000C55EA020C7FEA645C7FEA655C00F069
:108B7000E2804FEA5454D4EB5555B8BF6D420CDD3A
:108B80002C4480EA020281EA030382EA000083EABD
:108B9000010180EA020281EA0303362D88BF30BD5D
:108BA00011F0004F4FEA01314FF4801C4CEA1131B3
:108BB00002D0404261EB410113F0004F4FEA033312
:108BC0004CEA133302D0524263EB430394EA050F9D
:108BD00000F0A780A4F10104D5F1200E0DDB02FA0C
:108BE0000EFC22FA05F2801841F1000103FA0EF2A0
:108BF000801843FA05F359410EE0A5F120050EF166
:108C0000200E012A03FA0EFC28BF4CF0020C43FA96
:108C100005F3C01851EBE37101F0004507D54FF0A3
:108C2000000EDCF1000C7EEB00006EEB0101B1F5F3
:108C3000801F1BD3B1F5001F0CD349085FEA300039
:108C40004FEA3C0C04F101044FEA445212F5800F44
:108C500080F09A80BCF1004F08BF5FEA500C50F1E1
:108C6000000041EB045141EA050130BD5FEA4C0CC4
:108C7000404141EB010111F4801FA4F10104E9D14D
:108C800091F0000F04BF01460020B1FA81F308BF44
:108C90002033A3F10B03B3F120020CDA0C3208DD10
:108CA00002F1140CC2F10C0201FA0CF021FA02F1EB
:108CB0000CE002F11402D8BFC2F1200C01FA02F15B
:108CC00020FA0CFCDCBF41EA0C019040E41AA2BF80
:108CD00001EB0451294330BD6FEA04041F3C1CDA48
:108CE0000C340EDC04F11404C4F1200220FA04F068
:108CF00001FA02F340EA030021FA04F345EA030112
:108D000030BDC4F10C04C4F1200220FA02F001FAD3
:108D100004F340EA0300294630BD21FA04F0294655
:108D200030BD94F0000F83F4801306BF81F48011EE
:108D30000134013D4EE77FEA645C18BF7FEA655C61
:108D400029D094EA050F08BF90EA020F05D054EA33
:108D5000000C04BF1946104630BD91EA030F1EBF38
:108D60000021002030BD5FEA545C05D1400049413C
:108D700028BF41F0004130BD14F580043CBF01F52F
:108D8000801130BD01F0004545F0FE4141F4700115
:108D90004FF0000030BD7FEA645C1ABF19461046F0
:108DA0007FEA655C1CBF0B46024650EA013406BFF1
:108DB00052EA033591EA030F41F4002130BD00BFB0
:108DC00090F0000F04BF0021704730B54FF480646D
:108DD00004F132044FF000054FF0000150E700BFEE
:108DE00090F0000F04BF0021704730B54FF480644D
:108DF00004F1320410F0004548BF40424FF000013A
:108E00003EE700BF42004FEAE2014FEA31014FEA7C
:108E100002701FBF12F07F4393F07F4F81F06051CB
:108E2000704792F0000F14BF93F07F4F704730B53A
:108E30004FF4607401F0004521F0004120E700BFCD
:108E400050EA010208BF704730B54FF000050AE054
:108E500050EA010208BF704730B511F0004502D555
:108E6000404261EB41014FF4806404F132045FEA57
:108E7000915C3FF4DCAE4FF003025FEADC0C18BFFC
:108E800003325FEADC0C18BF033202EBDC02C2F1F2
:108E9000200300FA03FC20FA02F001FA03FE40EA84
:108EA0000E0021FA02F11444C1E600BF70B54FF084
:108EB000FF0C4CF4E06C1CEA11541DBF1CEA135566
:108EC00094EA0C0F95EA0C0F00F0DEF82C4481EACE
:108ED000030621EA4C5123EA4C5350EA013518BFEE
:108EE00052EA033541F4801143F4801338D0A0FBDB
:108EF00002CE4FF00005E1FB02E506F00042E0FB88
:108F000003E54FF00006E1FB03569CF0000F18BF8D
:108F10004EF0010EA4F1FF04B6F5007F64F5407435
:108F200004D25FEA4E0E6D4146EB060642EAC621C8
:108F300041EA55514FEAC52040EA5E504FEACE2E35
:108F4000B4F1FD0C88BFBCF5E06F1ED8BEF1004F38
:108F500008BF5FEA500E50F1000041EB045170BDB4
:108F600006F0004646EA010140EA020081EA0301F8
:108F7000B4EB5C04C2BFD4EB0C0541EA045170BDF4
:108F800041F480114FF0000E013C00F3AB8014F16E
:108F9000360FDEBF002001F0004170BDC4F10004B7
:108FA000203C35DA0C341BDC04F11404C4F1200538
:108FB00000FA05F320FA04F001FA05F240EA020093
:108FC00001F0004221F0004110EBD37021FA04F6C9
:108FD00042EB06015EEA430E08BF20EAD37070BD83
:108FE000C4F10C04C4F1200500FA04F320FA05F0E2
:108FF00001FA04F240EA020001F0004110EBD370E4
:1090000041F100015EEA430E08BF20EAD37070BD53
:10901000C4F1200500FA05F24EEA020E20FA04F32C
:1090200001FA05F243EA020321FA04F001F00041DB
:1090300021FA04F220EA020000EBD3705EEA430E4C
:1090400008BF20EAD37070BD94F0000F0FD101F07B
:109050000046400041EB010111F4801F08BF013CB4
:10906000F7D041EA060195F0000F18BF704703F0F2
:109070000046520043EB030313F4801F08BF013D79
:10908000F7D043EA0603704794EA0C0F0CEA135535
:1090900018BF95EA0C0F0CD050EA410618BF52EAEF
:1090A0004306D1D181EA030101F000414FF00000F5
:1090B00070BD50EA410606BF1046194652EA430603
:1090C00019D094EA0C0F02D150EA013613D195EA77
:1090D0000C0F05D152EA03361CBF104619460AD1BF
:1090E00081EA030101F0004141F0FE4141F47001C9
:1090F0004FF0000070BD41F0FE4141F4780170BDB9
:1091000070B54FF0FF0C4CF4E06C1CEA11541DBF1D
:109110001CEA135594EA0C0F95EA0C0F00F0A7F81F
:10912000A4EB050481EA030E52EA03354FEA01314C
:1091300000F088804FEA03334FF0805545EA13135F
:1091400043EA12634FEA022245EA111545EA106527
:109150004FEA00260EF000419D4208BF964244F1BE
:10916000FD0404F5407402D25B084FEA3202B61ADD
:1091700065EB03055B084FEA32024FF480104FF4B1
:10918000002CB6EB020E75EB030E22BFB61A754625
:1091900040EA0C005B084FEA3202B6EB020E75EBB8
:1091A000030E22BFB61A754640EA5C005B084FEA20
:1091B0003202B6EB020E75EB030E22BFB61A7546ED
:1091C00040EA9C005B084FEA3202B6EB020E75EBF8
:1091D000030E22BFB61A754640EADC0055EA060EB9
:1091E00018D04FEA051545EA16754FEA06164FEAFC
:1091F000C30343EA52734FEAC2025FEA1C1CC0D1A8
:1092000011F4801F0BD141EA00014FF000004FF034
:10921000004CB6E711F4801F04BF01430020B4F1F5
:10922000FD0C88BFBCF5E06F3FF6AFAEB5EB030CAD
:1092300004BFB6EB020C5FEA500C50F1000041EBAA
:10924000045170BD0EF0004E4EEA113114EB5C0477
:10925000C2BFD4EB0C0541EA045170BD41F480114A
:109260004FF0000E013C90E645EA060E8DE60CEA52
:10927000135594EA0C0F08BF95EA0C0F3FF43BAF6F
:1092800094EA0C0F0AD150EA01347FF434AF95EA26
:109290000C0F7FF425AF104619462CE795EA0C0F0A
:1092A00006D152EA03353FF4FDAE1046194622E7D7
:1092B00050EA410618BF52EA43067FF4C5AE50EAB1
:1092C00041047FF40DAF52EA43057FF4EBAE12E7A1
:1092D0004FEA410212F5001215D211D56FF47873DE
:1092E000B3EB625212D94FEAC12343F0004343EA81
:1092F000505311F0004F23FA02F018BF404270475C
:109300004FF00000704750EA013005D111F00040E5
:1093100008BF6FF0004070474FF00000704700BF7B
:109320004FEA4102B2F1E04324BFB3F5001CDCF187
:10933000FE5C0DD901F0004C4FEAC0024CEA5070BF
:10934000B2F1004F40EB830008BF20F001007047EE
:1093500011F0804F21D113F13872BCBF01F00040F1
:10936000704741F480114FEA5252C2F11802C2F123
:10937000200C10FA0CF320FA02F018BF40F00100A4
:109380004FEAC1234FEAD32303FA0CFC40EA0C0056
:1093900023FA02F34FEA4303CCE77FEA625307D193
:1093A00050EA01331EBF4FF0FE4040F440007047CA
:1093B00001F0004040F0FE4040F40000704700BF64
:1093C0000A22002100F012B910B5054C13462CB149
:1093D0000A4601460220AFF3008010BD204610BDB2
:1093E0000000000010B501390244904207D010F887
:1093F000013B11F8014FA342F7D0181B10BD00200C
:1094000010BD10B5431E0A44914204D011F8014B1F
:1094100003F8014FF8E710BD02440346934202D01F
:1094200003F8011BFAE7704738B5124B1C68A36BB1
:109430000546D3B91820FDF7EDFE43F20E33A063C5
:1094400003804AF6CD33438041F2342383804EF2C9
:109450006D63C3804DF6EC630381052343810B23C9
:10946000838101220023C0E90423A36B00221D6134
:109470005A6138BD4CD2032010F8012B11F8013B82
:10948000012A28BF9A42F7D0D01A7047034611F834
:10949000012B03F8012B002AF9D17047034613F87A
:1094A000012B002AFBD1181A01387047F0B5037858
:1094B00063B90B78002B18BF0020F0BD15F8012F01
:1094C00062B114F8017F97423046F7D00346461C3C
:1094D000007810B14D1E5C1EF0E7F0BD1846F0BDDF
:1094E0002DE9F04780464048D0F800900F463D46B1
:1094F00015F8014B09EB0400407800F0080000F07B
:10950000FF0608B12F46F2E72D2C03D1BD1C7C7855
:10951000012603E02B2C04BF7C78BD1C13B1102B5B
:109520000AD15BE0302C57D1287800F0DF005828B2
:109530004DD16C7810230235002E14BF4FF0004C33
:109540006FF0004C0027BCFBF3FA384603FB1ACC43
:1095500009EB040E9EF801E01EF0040F01D0303C30
:109560000BE01EF0030E1BD0BEF1010F0CBF4FF03D
:10957000370E4FF0570ECEEB0404A34210DDB7F1C7
:10958000FF3F0AD0504506D801D1644503DC03FBF8
:109590000040012701E04FF0FF3715F8014BD7E7F6
:1095A0007B1C0CD1002E4FF0220314BF4FF0004063
:1095B0006FF00040C8F800302AB9BDE8F08706B166
:1095C000404272B107B1691E1160BDE8F0873024D6
:1095D000002BB1D10823AFE70A23ADE7302CA3D08D
:1095E000AAE7BDE8F08700BFE8D1032013460A468A
:1095F000014602480068FFF773BF00BF4CD203204A
:1096000021400D005D400D0089400D008D400D0092
:10961000000000000000000000000000E5400D0018
:109620000000000000000000B7400D00D7400D0012
:10963000BF400D00B9400D0064656661756C742013
:10964000004D5342004C5342003C53504953657403
:1096500074696E67732064656661756C743E003C66
:1096600053504953657474696E6773202573256C74
:1096700075202573204D4F444525643E0068656C78
:109680006C6F0068656C6C6F3232320054696D65C6
:10969000002C706D31305F7374616E6461726400B0
:1096A0002C706D32355F7374616E64617264002C6E
:1096B000706D3130305F7374616E64617264002C60
:1096C000706D31305F656E76002C706D32355F6580
:1096D0006E76002C706D3130305F656E76002C50E8
:1096E00033756D002C5035756D002C503130756D13
:1096F000002C503235756D002C503530756D002CB6
:1097000050313030756D002C636865636B73756D17
:10971000002C5368696E796569002C54656D70651D
:10972000726174757265002C48756D69646974792D
:1097300000436F6E6E656374696E672E2E2E002F68
:10974000696E6461746130312E7068703F75736545
:10975000726E616D653D25732670617373776F72EC
:10976000643D25732664626E616D653D25732674C4
:1097700061626C656E616D653D257326706D31307B
:109780005F7374643D256426706D32355F73746455
:109790003D256426706D3130305F7374643D2564FF
:1097A00026706D31305F656E763D256426706D32B2
:1097B000355F656E763D256426706D3130305F65AE
:1097C0006E763D25642670333D25642670353D2533
:1097D00064267031303D2564267032353D2564267F
:1097E0007035303D256426703130303D2564266368
:1097F0006865636B73756D3D25642654656D706592
:109800007261747572653D25662648756D69646977
:1098100074793D2566007B2274696D65223A2022A9
:10982000256C64222C2022706D3130223A2225646E
:10983000222C2022706D3235223A222564222C20DF
:1098400022706D313030223A222564222C20227081
:109850006E3033223A222564222C2022706E30355D
:10986000223A222564222C2022706E3130223A22A4
:109870002564222C2022706E3235223A2225642261
:109880002C2022706E3530223A222564222C202290
:10989000706E313030223A222564222C2022536807
:1098A000696E796569223A222566222C2022746528
:1098B0006D70223A222566222C202268756D69641B
:1098C000697479223A222566227D00474554005367
:1098D000656E64696E67204461746100416363650D
:1098E0007074002A2F2A0020485454502F312E30F3
:1098F0000D0A00636C6F736500436F6E6E65637471
:10990000696F6E00484F535400436F6E74656E74F8
:109910002D4C656E67746800504F5354000D0A0D4E
:109920000A001F1C1F1E1F1E1F1F1E1F1E1F0000C0
:109930000000000000000000D3720D00C9720D008D
:10994000BF720D00B5720D00A9720D009D720D0061
:1099500091720D0089720D007F720D0075720D00FD
:1099600099860D000000000000000000F1720D005B
:10997000F3720D00000810182028303862617564F9
:109980000053657269616C0053657269616C3100E6
:109990007479706500706172616D00636D64006957
:1099A0006400686E64007374726D0066696C7400A4
:1099B0006C766C0061646448616E646C6572007200
:1099C000656D6F766548616E646C657200656E7575
:1099D0006D48616E646C657273004A534F4E5374E8
:1099E0007265616D4C6F6748616E646C6572006191
:1099F000707000253031307520005D20002C200073
:109A000028293A2000205B00636F6465203D200018
:109A100025690064657461696C73203D20006C6E7B
:109A200000666E00636F64650064657461696C0054
:109A30006E6F6E6500747261636500696E666F00BB
:109A40007761726E006572726F720070616E696329
:109A500000616C6C005A00252B3033643A2530329B
:109A6000750025592D256D2D25645425483A254D21
:109A70003A2553257A0061736374696D65000000AF
:109A8000000000000000000035790D0025790D0070
:109A900027790D000000000000000000537A0D003F
:109AA000A37A0D00B17A0D0059760D008F7A0D0062
:109AB000557A0D006B7A0D009D7A0D00817A0D00AC
:109AC0004F7A0D0000000000000000006D7B0D00CB
:109AD000BD7B0D00CB7B0D0059760D00817B0D0009
