:02000004080AE8
:1000000000000A08C0670A08000006000600050193
:0800100004027E05000000005F
:04001800AC5E0A08C8
:1000200009480A4908B5884205D0094A824202D0E7
:10003000121A05F020FE0748074A0021121A05F09F
:1000400025FE064808BD00BF0000002094660A088F
:1000500004010020040100200018002000180020E6
:1000600070B503F0BDFE074B074C1E46E41AA4080A
:100070000025A54204D056F8253098470135F8E709
:1000800070BD00BF08660A088C660A0800F08AB9CD
:1000900008B500F05DFBBDE8084003F063BE03F067
:1000A000ABB803F0B1B80078B0FA80F040097047FF
:1000B0000123037070477047083001F08BBE07B50D
:1000C00002AB03F8011D01221946083001F082FE3F
:1000D00003B05DF804FB10B504462C2104F021FDAB
:1000E000204610BD7FB5024613790846956833B1A6
:1000F0003DB90C4904B0BDE8704003F0EABC0A4BBE
:1001000000E00A4B167B0A4C0A49527B012E08BFBD
:100110002146029201910095074A002103F050FD0B
:1001200004B070BDF55E0A08CE610A08E45E0A08F4
:10013000ED5E0A08F15E0A080B5F0A0810B5044676
:10014000043003F0D7FB204610BD10B504463C3008
:1001500003F0D0FB04F1280003F0CCFB204603F0B1
:10016000C9FB204610BD10B5044603689B6898473C
:10017000A368013BA3602BB923682046BDE810406B
:10018000DB68184710BD000010B5064B044603603D
:10019000806928B14368013B43600BB9FFF7E3FF77
:1001A000204610BD18620A0810B50446FFF7ECFFA0
:1001B000204610BD10B50446FFF7E6FF20461C217F
:1001C00004F0AFFC204610BD13460A4601490968F9
:1001D00001F0B1BD6C12002030B51D4B85B000930D
:1001E000137900F58C658DF804309368044602930A
:1001F000137B8DF80C30537B0A468DF80D3000F2DE
:100200006C416B46284602F02BF9F0B1256004F2F0
:100210003C45284601F088FD0121204601F0C9FF38
:10022000014668B12146284601F0A9FB68B194F85F
:100230003C3413F0700316BF064B18461D6005E0F2
:10024000204601F0B6FF0028ECD1002005B030BDFB
:10025000C85E0A086C12002070B50E463C4B8AB08E
:1002600001933C4B0025039301AA01230F2104466F
:1002700039488DF810308DF808508DF81150FFF77F
:10028000ABFF2B463246354901A88DF804508DF856
:10029000055001F050FD002858D104F1080540F246
:1002A000012231462846FFF78FFF284601F006FD60
:1002B0002B49204603F00DFC2C21204603F00DFCB9
:1002C0002849204603F005FC2749204603F001FC9D
:1002D0002649204603F0FDFB2549204603F0F9FBA3
:1002E0002449204603F0F5FB2349204603F0F1FBA7
:1002F0002249204603F0EDFB2149204603F0E9FBAB
:100300002049204603F0E5FB1F49204603F0E1FBAE
:100310001E49204603F0DDFB1D49204603F0D9FBB2
:100320001C49204603F0D5FB1B49204603F0D1FBB6
:100330001A49204603F0CDFB1949204603F0C9FBBA
:10034000204603F0CDFB284601F0EEFC0AB070BD5C
:10035000C85E0A0880F0FA02600100209C050020B7
:10036000295F0A082E5F0A083D5F0A084C5F0A08E9
:100370005C5F0A08665F0A08705F0A087B5F0A080C
:10038000815F0A08875F0A088E5F0A08955F0A087E
:100390009C5F0A08A45F0A08AE5F0A08B75F0A08F4
:1003A000C45F0A082DE9F0412C4D94B0284605F0B1
:1003B000CAFC2B4C8046204605F0C5FC07464C265F
:1003C0003246002101A805F061FC032325488DF881
:1003D00018300023194601AA406801960295CDF80D
:1003E0000C800494059702F0CFFE04F07DF94FF4E1
:1003F0001651002204F06EF91B4B0021188804F0FE
:1004000005FB1A4800F0E1FD20B94FF47A7003F0C3
:1004100047FCF6E7164E03AC06F108050FCD0FC4F6
:100420000FCD0FC42B6813492360736801A8029392
:10043000114B0193FFF710FF104802F06DFB0F48BE
:1004400002F071FB38B10E4A0E4901A802F0EAFA37
:1004500001A802F06FFB14B0BDE8F0812C00002071
:10046000E4050020FC16002028000020580E002083
:10047000080A00205C000020D45E0A08340E002028
:10048000CE5F0A08D75F0A082DE9F0470F46A14B57
:100490008AB00193A04B00250446039301AA0123CF
:1004A0000F219E488DF810308DF808508DF81150AE
:1004B000FFF792FE2B463A46994901A88DF8045061
:1004C0008DF8055001F037FC04F1080610B940F230
:1004D000012200E00922934D39463046FFF774FEB1
:1004E000304601F0EBFB29780A2201F5FA6120463B
:1004F00003F05AFB2D21204603F0EFFA0A22697817
:10050000204603F02DFB2D21204603F0E6FA0A22B7
:10051000A978204603F024FB8349204603F0D9FA4A
:100520000A22E978204603F01BFB3A21204603F01B
:10053000D4FA0A222979204603F012FB3A212046F8
:1005400003F0CBFA0A226979204603F009FB774BC6
:10055000DFF8F0A11D68DFF8F091284605F044FBB4
:10056000CAF8000005F026F90146284605F06CF8A7
:100570006F4905F073F905F037FB6E4BC9F80000C1
:100580001D68DFF8C881284605F02EFBC8F800007A
:1005900005F010F90146284605F056F8644905F0C3
:1005A0005DF905F021FB644F644D38602C21204635
:1005B00003F093FA2C21204603F08FFA0A2269886F
:1005C000204603F0F1FA2C21204603F086FA0A2295
:1005D000A988204603F0E8FA2C21204603F07DFA92
:1005E0000A22E988204603F0DFFA2C21204603F096
:1005F00074FA0A222989204603F0D6FA2C212046D3
:1006000003F06BFA0A226989204603F0CDFA2C2107
:10061000204603F062FA0A22A989204603F0C4FAB0
:100620002C21204603F059FA0A22E989204603F0DA
:10063000BBFA2C21204603F050FA0A22298A2046D0
:1006400003F0B2FA2C21204603F047FA0A22698A05
:10065000204603F0A9FA2C21204603F03EFA0A2294
:10066000A98A204603F0A0FA2C21204603F035FA8F
:100670000A22E98A204603F097FA2C21204603F04B
:100680002CFA0A22298B204603F08EFA2C212046D0
:1006900003F023FA0A22A98B204603F085FA2C21C5
:1006A000204603F01AFA264B0A221968204603F066
:1006B0007BFA2C21204603F010FA0A22DAF8001007
:1006C000204603F071FA2E21204603F006FA0A2292
:1006D000D9F80010204603F067FA2C21204603F0D9
:1006E000FCF90A22D8F80010204603F05DFA2E210A
:1006F000204603F0F2F90A223968204603F054FA42
:10070000204603F0EDF9304601F00EFB0AB0BDE8DB
:10071000F08700BFC85E0A0880F0FA02600100207E
:100720009C050020E5050020FF620A0868120020F1
:100730000000C842240E0020380A0020360E002097
:100740007C0E0020280E0020640E0020540E002095
:100750002DE9F04F614C0022A3B01146606802F011
:10076000EBFC034620B902460146606802F0CCFC6F
:1007700003F0BAFF03685B69984710F5827F00F0C9
:10078000D381574E574B32681340002BBEBF03F145
:10079000FF3363F001030133012B534B0AD10102F4
:1007A000012A196040F0B781422800F0B48100238B
:1007B0003360B0E11B68023A18441E2A00F2AB8194
:1007C000DFE812F01F00A9011F00A9012200A90102
:1007D0002500A9012800A9012B00A9012E00A901CB
:1007E0003100A9013400A9013700A9013A00A9018B
:1007F0003D00A9014000A9014300A901A901A901E7
:1008000046003A4B188086E1384B588083E1374BDD
:10081000988080E1354BD8807DE1344B18817AE1B6
:10082000324B588177E1314B988174E12F4BD8815D
:1008300071E12E4B18826EE12C4B58826BE12B4BF1
:10084000988268E1294BD88265E1284B188362E1E0
:10085000264C274DA08317A802F0DCF9254B1798EA
:10086000BDF86020186024489A8000F02FFA2860B4
:10087000214800F06DFA21498046286804F0EEFF17
:100880000021074605F09CF938B1384604F0FAFB20
:1008900000221B4B04F098FA06E0384604F0F2FB05
:1008A0000022174B04F08EFA04F052FE04F082FF8F
:1008B000124905F087F811492860404604F0CEFF40
:1008C0000021074605F07CF9E0B1384604F0DAFB78
:1008D00000220B4B04F078FA1BE000BFFC1600204E
:1008E000400000200100008008010020360E00209A
:1008F000240E0020E5050020580E00200000C8420C
:100900000000E03F384604F0BDFB0022884B04F0B5
:1009100059FA04F01DFE04F04DFF864905F052F827
:10092000DFF874B2844BCBF800000021188804F083
:1009300097F8DFF868A2814B814F1860DAF8003031
:100940001844CAF8000002F051FA3B68C01A7D4B07
:100950001B68984240F2D480DAF8000004F070FB83
:100960008946804602F042FA3B68C01A04F068FBF0
:100970000022754B04F0DAFB02460B46404649461E
:1009800004F0FEFC04F00CFEDFF814820023814624
:10099000C8F800002868CAF8003004F073FBCDE9FD
:1009A0001401DBF8000004F06DFBCDE912014846AC
:1009B00004F068FBCDE91001A38B644A0F93238BED
:1009C0004FF47A710E93E38A61480D93A38A0C93D6
:1009D000638A0B93238A0A93E3890993A389089373
:1009E0006389079323890693E3880593A388049377
:1009F00063880393574B0293574B0193574B0093D4
:100A0000574B02F011FC574802F06EF881462868F7
:100A100004F038FBCDE90E01DBF8000004F032FBF6
:100A2000CDE90C01D8F8000004F02CFBCDE90A0157
:100A3000238B4D4A0893E38A4FF47A710793A38A74
:100A40004A480693638A0593238A0493E3890393B0
:100A5000E3880293A3880193638819AC00934B4603
:100A600002F0E2FBDFF83CE10EF108050FCD0FC408
:100A70000FCD0FC42B683E492360DEF8043017A861
:100A800018933C4B1793FFF7FFFC02F09DFB0028E7
:100A900033D0DFF81481D023009399220F238021D3
:100AA00017A808F1140418AD03F0E2FC0FCD0FC431
:100AB0002B6827492370304B08F128001B68C8F8C1
:100AC000383002F071FF2D4B2D4A009341462D4BDB
:100AD0002D4800F0C1FA2D4B17A81B78234A8DF83A
:100AE00000302B493C2303F0E9FA189828B14368F9
:100AF000013B43600BB9FFF736FB02F077F9386032
:100B000003F0F2FD03F0EAFD03F0EEFD00224FF4E6
:100B1000165103F0DFFD3368013333603368212B56
:100B200002BF1C4B01221A6023B0BDE8F08F00BF4A
:100B30000000E03F0000C84228000020300E0020E6
:100B40000C0100204400002000002440E35F0A085C
:100B5000800E0020000000207000002048000020CF
:100B600014000020E5050020C5600A083C0A0020AA
:100B70005C000020D45E0A08940000207A610A0814
:100B8000680E002084000020EC050020340A0020BC
:100B90007E610A0840000020681200202C0E002010
:100BA00010010020080A002014010020F8B5314B84
:100BB0000127314C1F7002F0A1F80021384602F0E5
:100BC00077FA2E4D204600F01AFA2D4E20462D4C75
:100BD0002A462D4903F0A0FF3146204602F0D1FEFF
:100BE00004F1100003F00EFC314604F1280002F07D
:100BF000C8FE314604F13C0002F0C3FE2046234CFF
:100C00002A46234903F088FF3146201D02F0B9FE31
:100C10002A462049204603F07FFF1F4B642283F8B9
:100C200060241E4A0024C3F870241D4A1D48DC714C
:100C300083F83C4483F83D4483F86A4483F8747431
:100C4000C3F8784483F87C4483F87D44C3F86C246B
:100C5000154B2A460472447244601449036003F041
:100C60005BFF2146124801F08FFEBDE8F8401148B5
:100C700000F026B8340A0020EC0500200401002012
:100C8000CE610A0814010020A9010A08680E00209C
:100C90004B010A083D010A0860010020C85E0A08ED
:100CA0000C170020080A0020D45E0A08B7000A08C2
:100CB000E5050020580E00200368C9B29B6818475C
:100CC00040220272002242600260704710B5044662
:100CD00003F002FF94F9081003F099FD03F0FCFE05
:100CE0000368F5219B68984703F0F6FE002103F0A6
:100CF00091FD192002F0D4FF03F0EEFE032294F9D7
:100D0000081003F07BFD03F0E7FE03685B6998477A
:100D100084B203F0E1FE03685B69984740EA04206F
:100D200004B203F0D9FE03685B699847A0B204F0EF
:100D30003DFD054904F092FD4FF05E5104F08EFD3B
:100D4000024904F081FC10BD0000FA420000C040DE
:100D500010B5044603F0C0FE94F9081003F057FDE7
:100D600003F0BAFE0368F3219B68984703F0B4FED2
:100D7000002103F04FFD192002F092FF03F0ACFEBA
:100D8000032294F9081003F039FD03F0A5FE03686F
:100D90005B69984784B203F09FFE03685B699847DC
:100DA00040EA042004B203F097FE03685B699847A9
:100DB000A0B204F0FBFC04F065F90BA3D3E9002317
:100DC00004F0B4F904F0ECFB4FF05E5104F046FD82
:100DD00004F058F906A3D3E9002303F0F3FF04F06D
:100DE000DFFB10BDAFF30080D7A3703D0AF765406D
:100DF000CDCCCCCCCC6C474010B5044603F06CFE97
:100E000094F9081003F003FD03F066FE0368FE2169
:100E10009B68984703F060FE03F000FDBDE81040BA
:100E2000322002F03DBF10B5044603F055FE94F9A0
:100E3000081003F0ECFC03F04FFE0021FFF73CFF2D
:100E400003F04AFE0F21FFF737FF03F045FE03F0E2
:100E5000E5FC03F041FE082294F9081003F0CEFCF3
:100E600003F03AFE03685B699847206003F034FEA4
:100E700003685B69984723681B02236003F02CFE1C
:100E800003685B69984723681843206003F024FED9
:100E900003685B69984723681B02236003F01CFE0C
:100EA00003685B69984723681843206003F014FEC9
:100EB00003685B69984723681B02236003F00CFEFC
:100EC00003685B69984723681843206003F004FEB9
:100ED00003685B69984703F0FFFD94F9081003F07D
:100EE00096FC03F0F9FD0021FFF7E6FE03F0F4FDA8
:100EF000C921FFF7E1FE03F0EFFD03F08FFC03F0E3
:100F0000EBFD94F90810082203F078FC03F0E4FDEF
:100F100003685B699847606003F0DEFD03685B6906
:100F2000984763681B02636003F0D6FD03685B6942
:100F3000984763681843606003F0CEFD03685B69FF
:100F4000984763681B02636003F0C6FD03685B6932
:100F5000984763681843606003F0BEFD03685B69EF
:100F6000984763681B02636003F0B6FD03685B6922
:100F7000984763681843606003F0AEFDBDE8104019
:100F800003685B69184738B504460D4603F0A4FDB5
:100F900094F9081003F03BFC03F09EFD036829461A
:100FA0009B68984703F098FD002103F033FC03F0A1
:100FB00093FD012294F9081003F020FC03F08CFD4E
:100FC00003685B699847C0B238BD10B5044603F0AA
:100FD00083FD03F001FC2046FFF70EFFE7212046CA
:100FE000FFF7D1FF3A2804D12046FFF71CFF01206C
:100FF00010BD002010BD01F081BE01F07FBE10B514
:10100000044602F01FFC204610BD000038B504461F
:10101000154602F05EFD0549204602F05AFD2946BC
:101020002046BDE8384002F067BD00BF03630A08F0
:1010300038B50446154602F04CFD0549204602F03D
:1010400048FD29462046BDE838400A2202F0AEBDE0
:1010500003630A0801F052BE2DE9F04F0D461E460B
:101060004FF0FF338FB00446136000212846174627
:1010700002F0C6FCD5F8388060B92968B8F1000FD5
:1010800002D01FFA88F200E050220023204602F02E
:10109000FBFB14E0744B0DF1240E05F1140C0893C6
:1010A000BCE80F00AEE80F00DCF800301FFA88F251
:1010B0008EF8003008A90023204602F0ADFA003077
:1010C00018BF012018B9204602F08CFAC8E0189920
:1010D000204602F0FEFC6549204602F0FAFCA96AAF
:1010E000204602F0F6FC6249204602F0F2FC61491B
:1010F0002046614AFFF78AFF0021284602F080FC63
:1011000020B92A685D492046FFF780FF05F13C08B9
:101110000021404602F074FC08B96A6C05E05849A9
:10112000189804F0E3FD024618B956492046FFF727
:101130007FFF5EB1316849B17268204612B1FFF796
:1011400065FF01E002F0D8FC0836F3E7204602F024
:10115000C7FC204602F07BF90021404602F050FC1B
:1011600018B9E96B204602F0C7FC04F11C084FF4E3
:1011700080620021404604F089FD01F037FE002620
:101180008146354601F032FE41F2883A204602F0AF
:10119000EDF9D8B1204602F09EF9834601F026FE13
:1011A00040F2FE339D42814603D8631983F81CB098
:1011B0000AE040F2FF339D4206D1002384F81B343D
:1011C000204602F00FFA01260135DFE76319187790
:1011D00001F00CFEC9EB000B26B9D34502D8C8209C
:1011E00002F05EFD204602F0BEFA18B1D34501D8E8
:1011F000002ECBD0204602F0F5F94146684602F0B9
:10120000C0FB0C230922694604A802F01DFC1E49FC
:1012100008A802F0B6FB08A9684602F012FC0446D2
:1012200008A802F067FB631C14D03D1D174928462F
:1012300002F0BAFB221D694608A802F02DFC08A99D
:10124000284602F0D9FB08A802F054FB049804F0E9
:10125000F1FC386004A802F04DFB684602F04AFB3E
:101260000FB0BDE8F08F00BFA4630A08FF620A0850
:1012700094610A08A6610A08A0610A08B1610A0817
:10128000C5610A08B6610A08CA610A08CE610A087F
:1012900001F034BD01F032BD10B50446243000F039
:1012A00079FE28B104F50C70BDE8104000F072BE64
:1012B00010BD411E00F10A020020430843EAC0109D
:1012C00011F8013F18448A4200F0FF00F5D1704741
:1012D0002DE9F0470378441C202B01D12046F9E783
:1012E0000546704F88602C1A2E4615F8013B0BB34B
:1012F0002F2B01D1031917E05C2B02D10020BDE890
:10130000F087A3F12204E4B21D2C03D827FA04F4D9
:10131000E407F3D403F0BF043C2CEFD0203B5E2B5A
:10132000E1D9EBE72F2D05D11E4613F8015B202DE7
:10133000F8D1F9E7166003199842C0EB030809D009
:1013400013F8012D2E2AF7D0202AF5D0B8F1FF0F7F
:10135000D4DC01E04FF00008C1F8048001F10C0377
:1013600001F11702202403F8014F9342FBD10346F9
:101370001A1A13F8014B2E2CFAD0202CF8D0B2FAFE
:1013800082F408F1FF366409731C07D100274FF07F
:10139000070E3D46BA464FF0080909E0835D2E2B43
:1013A000F4D0013EF0E7835C202B04D1002401320D
:1013B0004245F8DB4BE02E2B02D1B242F6D103E0DE
:1013C000222B17D07C2B15D0A3F12A0CBCF1050FD2
:1013D00001D82D2B0ED1A3F13A0CBCF1050F09D980
:1013E000A3F15B0CBCF1020F04D9A3F1210CBCF1F9
:1013F0005D0F02D9B2420ED149E0B24247D07545E5
:1014000021D8A3F1610CBCF1190F08D8203BDBB245
:1014100049EA07070AE0754515D800245F23A3F1C0
:10142000410CBCF1190F98BF49EA0A0A05F1010CF9
:101430005FFA8CFC0D44BCF1060F6B7301D881F888
:101440000CC06546B3E7BEF10A0F17D100244B7BF1
:10145000202B3FF453AF3CB11AEA070F18BF022705
:101460000F700120BDE8F0870B7B01200870194444
:101470007E234B7331238B73BDE8F087B242E5DCEA
:1014800032464FF00A0E08254FF010098EE7BEF1E4
:101490000A0FDBD032464FF00A0E08254FF0100934
:1014A00085E700BF010100312DE9F84306460D46EE
:1014B00091F80C9002247E2701F10D086968AA6852
:1014C00063189BB21144914206D012F8010B03EB52
:1014D000431343409BB2F6E7B9F1030F28BF4FF027
:1014E000030909F10402D2B203F00F01A818013A6E
:1014F0000929D2B294BF30313731914541734FEA57
:101500001313F1D305EB09035F730021304600F09C
:101510001EFB0121304600F0FDFA014628B9707823
:10152000B0FA80F04009BDE8F88303784BB1C37A84
:101530001B07EED40B22404604F08EFB0028E8D1B6
:1015400002E00120BDE8F8830134A4B2642CB5D1D7
:10155000BDE8F8832DE9F04F9B460B7889B013F076
:10156000700F05900E46914601D10020A0E1059B29
:101570001B78002BF9D15368029313789B0700F076
:101580008D81029B0D270C33B3FBF7F70137FFB2B8
:101590004FF000080021304600F0D9FA4446434697
:1015A000454609F10D02CDF80C80CDF81080069269
:1015B0007269012130460793C2F34F1A00F0AAFA6C
:1015C000079B20B97378002B00F09080CDE702785C
:1015D000E52A00D042B9002C08BFD046BC423CBF2F
:1015E0000134E4B222B981E0BC4238BF002403E0F8
:1015F000E52A01D10025DBE72E2AFBD0C17A0F298D
:1016000052D13DB95106D3D5437B02F01F05039358
:101610002B4607E0013BDBB29A42EBD1427B0399B8
:101620009142E7D15A1E4FF00D0C0CFB02FC029ABE
:101630006245DFD94FF0000EBEF1040F5FFA8EF263
:1016400004D800EB4E02B2F801200CE00A2A95BF44
:101650000EF1FF320EF1010200EB420200EB4202FA
:1016600094BFD28892880299614503D1002A18BF9D
:1016700000259DE7FF2ABDD8D2B2A2F14101192968
:10168000D9F8081098BF203211F80C100CF1010A9B
:10169000A1F1410C98BFD2B2BCF1190F9CBF20310F
:1016A000C9B29142A6D1FBE00907A3D44DB1012BE9
:1016B0007FF45BAFFFF7FDFD039B83427FF455AFE3
:1016C0000FE00B220699079304F0C6FA079B002847
:1016D0007FF46EAF99F80020D20702D50122049260
:1016E00066E71BF4006F00F0D1803EE71BF4007F3B
:1016F0003FF43BAF0BF00303013B012B3FF635AF4B
:10170000002C08BFD046BC4202D3049BCBB91FE0DB
:101710000021304600F0FEF910B973785BB124E780
:101720000134E4B2EFE7B3681B79012BEDD8103434
:10173000E4B2A742E9D9304600F0D2F80028F2D14D
:1017400013E749463046FFF7AFFE00283FF40DAFE0
:101750004FEA4811304600F0FAF900283FF405AF8F
:101760007D1EEDB22C464FF0000A4FF00F0841E00D
:101770000021304600F0CEF9074600283FF4F5AED0
:10178000B268AC4292F8243043F0010382F824306E
:1017900014BF224644F04002027080F80B8080F8AB
:1017A0000CA009F10D000392FFF783FD039A7873F3
:1017B00087F81AA087F81BA002F01F020D23013A38
:1017C000D9F808E05A4300230299914215D91EF82E
:1017D0000210042B5FFA83FC03F1010013D807EB1E
:1017E0004303A3F801100D2802F101020346EBD1D7
:1017F000013CE4B2002CBBD10EE014BF4FF0FF312E
:10180000002189B2E5E7BCF10A0F94BF07EB43035F
:1018100007EB40039980E6E7736921463046C3F33E
:101820004F1A00F077F9074600283FF49EAE2022B9
:10183000214604F02BFA4B4653F80D2F3A605A68B4
:101840007A601A893A819B7ABB7299F8003003F06A
:1018500018033B73184B1B682BB107F10E0107F1FE
:101860001000984706E021233B7428237B7408234B
:10187000BC73FB733B8A7B823B83FB89FB82B26830
:1018800092F8243043F0010382F8243000955B463F
:1018900052463146059800F0A3F909E0012777E6A2
:1018A0000EF1010EBEF10D0F3FF482AED446C3E639
:1018B00009B0BDE8F08F00BF7012002001F01EBA21
:1018C00001F01CBA01F01ABA01F018BA837800F1DD
:1018D000100243F0040383700169806800F010BCBB
:1018E0002DE9F0410378044603F0200303F0FF05DF
:1018F0000BB100262EE04269184B9A42F9D8FFF747
:10190000E5FF06460028F4D02169A06800F08DFBB1
:101910000746A06805223946243000F062FB804665
:101920000028E6D029464FF4007204F0AFF90125F3
:10193000A3681A79AA4209D94246E919186800F041
:10194000CDFE0028D5D00135EDB2F1E7636903EB98
:10195000422363613046BDE8F08100BFFFFD1F00F8
:1019600010B5044680680A462430A16900F039FBAE
:1019700020B1A38803F00F0300EB431010BD70B536
:10198000047805460E4684B92422214604F07EF9E7
:10199000AE60F379102B03D0202B06D1402300E05A
:1019A000202301202B70A87070BD002070BD2DE990
:1019B000F74F03780446894615464BB18278D10724
:1019C00006D50CE05A46216900F035FB00283DDAC7
:1019D00063784FF0FF3043F00203637097E01A071B
:1019E00003D5E36962699B1A07E09A0608D5A368E4
:1019F0001A896369C3EB42139BB29D4228BF1D46FF
:101A00002E464FF0000804F1100B002E35D022783E
:101A1000636912F0200FC3F3080AA0684FEA53214C
:101A200002D0036A19441DE090F8058001EA080815
:101A3000BAF1000F10D1B8F1000F0DD1002BC1D1B8
:101A400053064CBF036A236A236105E004D123785F
:101A500013F0700F11D1BBE72169A06800F0E5FA1F
:101A600008EB0001A068BAF1000F35D1B6F5007F90
:101A700032D3C36A994202D12EE0A81B47E0B6F5E3
:101A8000806F1BD322784FEA562A970606D4027934
:101A9000C8EB0202D2B2924528BF924699424FEA61
:101AA0004A2707D2A06853464A46006800F0D4FD92
:101AB00060B98DE75344994221D3F3E74A46006861
:101AC00000F082FD002883D04FF400776369B944A9
:101AD0003B446361F61B98E70022243000F081FA52
:101AE00000283FF475AFCAF50077B74228BF3746E4
:101AF00000EB0A013A46484604F0BDF8E6E7243018
:101B0000019100F047FA01990028CBD160E703B0BA
:101B1000BDE8F08F37B543690446C3F3431505B1FB
:101B200069B901220DF107012046FFF740FF40B2DD
:101B3000012801D0002008E063691F3300E0203352
:101B4000A0686361303000EB451003B030BD2DE973
:101B5000F0410E46017804460769002939D04569ED
:101B6000B5423AD00EB9066131E00B0703D5C3691F
:101B70009E422ED807E0880605D5A3681B89B6EBE0
:101B8000431F26D823E0D4F808E06A1E9EF80630EA
:101B900003F10900731EC240C3409A4200D84DB9F8
:101BA0004A064CBFDEF82020226A22611D4604F15D
:101BB00010080AE09B1AF9E742462169A06800F084
:101BC0003AFA002805F1FF3503DD002DF4D16661F6
:101BD00003E027610020BDE8F0810120BDE8F0812D
:101BE000F8B50F4604461546002124221E4604F08F
:101BF0004DF8B868A580A0603B6A05F00F0200F1BF
:101C000030015201E3601144CB7A1D074CD4831894
:101C100093F83B3003F017032370C97A11F0180FC3
:101C200004BF43F0080323709DF81830E37006F0FA
:101C30000303012B09D0022B05D0002B34D17105F1
:101C400032D4012302E0032300E00223A370A17831
:101C50008B0703D5237813F0110F25D14BB216F45F
:101C6000005F06F0080114BF6FF07F0700271943DB
:101C70003943A170C36A0244A361B2F84410B2F8B8
:101C80004A30750543EA014104D581B100F073FA89
:101C900068B909E02162D36CE36173040CD5E16992
:101CA0002046FFF754FF38B900202070F8BDA37814
:101CB00043F00403A370F0E70120F8BD38B50378C2
:101CC00004460BB9012038BD83785A0723D501217A
:101CD000FFF746FE054628B96378002043F001036C
:101CE000637038BD0378E52BF6D023781B0744BF1B
:101CF000E369C361238C4383638C8382094B1B6834
:101D00002BB100F11601183098472B8B6B82A3780A
:101D100023F00403A370A068FFF7BEFA0028DBD00D
:101D2000D0E700BF7012002010B50446FFF7C6FFD1
:101D30000023237010BDF0B51F4693B000238DF82B
:101D400024308DF82530037806460C4601920BB1FD
:101D500000203DE00B7813F0700FF9D013782F2B93
:101D600012D1019B1A782F2A02D101330193F8E78F
:101D7000A1681AB93046FFF702FE29E009A8FFF76B
:101D8000FEFD0028E4D009AC01AA03A90198FFF7E1
:101D90009FFA0028DCD0019B1B789BB1002303AA8B
:101DA00021463046FFF7D6FB0028D1D0354609AC96
:101DB0000FCD0FC40FCD0FC42B6830462360FFF743
:101DC000B3FFE0E73B4603AA21463046FFF7C2FBDC
:101DD00013B0F0BD2DE9F047037889461907044692
:101DE000904608D583789A0705D51B070BD5E1697E
:101DF000FFF7ADFE38B963784FF0FF3043F00103D1
:101E00006370BDE8F0876369DB439845F3D84646C5
:101E10004FF0000A6369002E7FD0A068C3F3080763
:101E2000427912EA53251CD1DFB9216971B104F15D
:101E3000100200F000F90028DDDB40F08D80204624
:101E4000FFF744FD002840F08780D4E7236A3BB9C0
:101E50002046FFF73BFD0028CDD02369236200E038
:101E600023612169A06800F0E0F8291817B9B6F5D8
:101E7000007F21D2C7F50075B54228BF354637B976
:101E80006369E269934234BF0122052200E0012226
:101E9000A068243000F0A5F80028ACD038442A46C9
:101EA00049462F4403F0E7FEB7F5007F2FD1A06825
:101EB000243000F06FF816E0B6F5806FA06814D3F8
:101EC0000279730A521BD2B2934228BF1346C26AE8
:101ED0005D02914202D31A44914237D3A7684A4621
:101EE000386800F06DFC90B985E7C36A4A469942AC
:101EF00002BF4FF0FF3380F824A0C362A3681868C4
:101F000000F0ECFB00283FF476AF4FF400756369F6
:101F1000A9442B446361761B7CE7E269934201D9B3
:101F2000E36102E00F4B1B681BB1A37843F004038D
:101F3000A37094F90230002B02DB4046BDE8F08725
:101F40002046FFF7BBFE0028F7D154E74FF0FF32E1
:101F500080F824A0C262C1E72169A06800F065F89A
:101F6000014684E77012002000F0C8BE70B5054637
:101F70000C46084649B103F0E6FE2B6802462146AE
:101F80002846BDE87040DB68184770BD00F0B6BE5B
:101F900000F0B4BE70B503780446DA071ED5436876
:101FA00000F10C0681683246186800F097FB054680
:101FB00008B9002513E023789B0704D4237823F085
:101FC000010323700BE06368A0681969324601447D
:101FD000186800F083FB0028F0D1EAE701252846C5
:101FE00070BD70B5836804468B420E46154614D00A
:101FF000FFF7D0FF08B9002070BD6B0703D50023A1
:102000002370A66009E0636804F10C023146186889
:1020100000F0DAFA0028F2D1EDE72046237805F047
:1020200003051D4300F80C5B70BD837902394069DC
:10203000994008447047012970B505460C4616467C
:1020400002D84FF0FF3070BDC3699942F9D8C37907
:10205000202B10D18169022201EBD41100F50C7004
:10206000FFF7BFFF0028ECD004F07F0450F82430C5
:1020700023F070430FE0102BE3D18369C1F30721F4
:102080000222194400F50C70FFF7ABFF0028D8D0EE
:10209000E4B230F81430EA6993429ABF3360012009
:1020A000002070BD012938B50C46154601D8002026
:1020B00038BDC3699942FAD8C379202B0ED1816902
:1020C000032201EBD41100F50C70FFF78AFF002802
:1020D000EDD004F07F0440F824500FE0102BE6D13F
:1020E0008369C1F307210322194400F50C70FFF73F
:1020F00078FF0028DBD0E4B220F81450012038BD6E
:102100002DE9F341C46805468C420E46904607D23D
:102110000C460027EB6901349C4203D9CFB9EC6827
:102120000127F7E7A64214D001AA21462846FFF767
:1021300082FF00280DDBEDD0019B002BEAD107B117
:10214000EC606FF0704221462846FFF7ABFF074670
:1021500008B900270BE016B9C8F8004007E022468E
:1021600031462846FFF79EFF0028F5D1F1E73846B3
:1021700002B0BDE8F08173B505460C4601AA2146C0
:102180002846FFF758FF061E01DA00200FE0002264
:1021900021462846FFF786FF0028F6D0EB689C42D0
:1021A0009CBF04F1FF34EC60019C002EE6D102B02C
:1021B00070BD70B5044601230022C3604FF0FF33A9
:1021C000C2710D46A06280F82420C362C4F83402B4
:1021D00080F83022C0F83832A1B104295DD8114608
:1021E0002430FFF7FEFE002857D000EB051393F8CC
:1021F000AE315B0651D11B3500EB0515D5F8065005
:10220000002D4AD00022294604F12400FFF7E9FE00
:10221000002842D0B0F80B30B3F5007F3DD1037CED
:10222000022B3AD1C389002B37D0417B09264B1EA4
:1022300063710023A371217101238B4207D0013EFA
:102240002BD0A2795B000132DBB2A271F5E7C28A22
:1022500002B9426A2261C6892E44A661B0F81130E3
:1022600006EB420123812162B0F81120520102F2F3
:10227000FF1201EB62226261B0F8133003B9036A06
:10228000AD1A2B44A57923FA05F56B1CE36140F6E2
:10229000F4739D4203D80C23E371002070BD4FF608
:1022A000F4739D4289BFC36A102323622023E37124
:1022B000012070BD00F022BD00F020BD00F01EBD69
:1022C00070B50E46154600F089FD0C4C2368C01A07
:1022D0000B4B984208D900F089FD0A4B186000F0BA
:1022E0006BFF00F07BFD206000F080FD80B2801B62
:1022F000A842D4BF0020012070BD00BF741200208E
:10230000A08601002C17002038B5057A04464DB987
:10231000406800F07DFA63682946187D02F087FB6B
:102320000123237238BD10B5037A04466BB14368AC
:102330000121187D02F07BFBFF21606800F09AFA12
:10234000606800F079FA0023237210BDF8B50446E6
:102350000D46164600F04AFD87B2606800F06FFA3D
:10236000FF28607209D14FF47A7239462046FFF790
:10237000A7FF0028F1D055230BE0FE2801D0502301
:1023800007E032462946606800F05EFA607230B1BC
:10239000602320462370FFF7C6FF0020F8BD606869
:1023A00000F04DFA606800F04AFA0120F8BD70B5FF
:1023B00004460E4600F01AFD85B2324629462046F4
:1023C000FFF77EFF30B9606800F039FAFF28F4D1DA
:1023D000012070BD002070BDF7B5037A04460D469C
:1023E00001920BB9FFF790FF25B14FF4967120468B
:1023F000FFF7DDFF45F04001606800F03BFA0DF1AA
:1024000007060DF1030716F80119606800F032FAAB
:10241000BE42F8D1002D0CBF95218721606800F0E5
:1024200029FA606800F00BFA0B25606800F007FAE3
:102430000306607203D5013D15F0FF05F5D103B029
:10244000F0BD70B504460D46164637210022FFF751
:10245000C3FF324629462046BDE87040FFF7BCBFA7
:102460002DE9F04100250572057085724160044632
:1024700090461E4600F0BAFC41460746606800F0F0
:10248000CBF963684F4A4FF001081D72DA605D7442
:1024900083F810802046FFF737FF63684146187DB8
:1024A00002F0C5FA0A25FF216068013D00F0E2F95B
:1024B00015F0FF05F7D163682946187D02F0B7FAD9
:1024C0000A25002211462046FFF786FF0128804694
:1024D00012D0013D15F0FF0501D1202357E0FD2169
:1024E000606800F0C7F94FF40278606800F0A7F95F
:1024F000B8F10108F9D1E4E74FF4D572082120467C
:10250000FFF76AFF052802D184F80A800FE004254E
:10251000606800F094F9013D15F0FF056072F7D195
:10252000AA2802D10223A37201E025232FE0A37A77
:10253000BFB2022B0CBF4FF0804500252A4629214F
:102540002046FFF77EFF024648B14FF4FA62394653
:102550002046FFF7B5FE0028F0D0432317E0A37A0A
:10256000022B0ED02046FFF7DEFE6368B068347998
:10257000317B727BD8601C7219745A740120BDE8DB
:10258000F0813A212046FFF727FF38B13723204654
:102590002370FFF7C8FE0020BDE8F081606800F0FE
:1025A0004EF900F0C000C02804BF0323A372606886
:1025B00000F045F9606800F042F9606800F03FF90A
:1025C000D0E700BF90D0030038B5837A1546032BBF
:1025D00018BF49020A4611210446FFF7FDFE10B15B
:1025E000302323700BE029464FF400722046FFF79A
:1025F000ADFE054618B12046FFF795FE03E02046E4
:10260000FFF791FE0025284638BD10B5837A0A46AB
:10261000032B18BF4A0212210446FFF7DDFE30B13A
:10262000312320462370FFF77EFE002010BD0120DD
:1026300010BD10B500220C210446FFF7CDFE30B1CD
:10264000282320462370FFF76EFE002010BD204691
:10265000FFF769FE012010BDF8B5054616461F4676
:10266000FFF7D3FF98B10024A3B29F4206EB4421A9
:1026700008D94FF400722846FFF768FE013400289D
:10268000F2D104E02846BDE8F840FFF7D2BF0020B1
:10269000F8BD38B504461546406800F0EBF84FF435
:1026A00000722946606800F0E9F8FF21606800F0D8
:1026B000E1F8FF21606800F0DDF8606800F0BFF825
:1026C000607200F01F00052806D0572320462370B3
:1026D000FFF729FE002038BD012038BD70B5837A90
:1026E0001546032B18BF49020A4618210446FFF776
:1026F00073FE064608B132231DE02A46FE2120461D
:10270000FFF7C7FFC0B14FF4FA612046FFF74FFE55
:10271000054608B95A230EE032460D212046FFF740
:102720005BFE38B9606800F08AF818B92046FFF7F8
:10273000FAFD05E0292323702046FFF7F4FD00256C
:10274000284670BD38B50D464FF4FA610446FFF7D0
:102750002EFE10B95B23237005E02A46FC2120469B
:10276000FFF797FF18B92046FFF7DDFD002038BDC1
:1027700010B5837A0A46032B18BF4A021921044672
:10278000FFF72AFE30B1332320462370FFF7CBFD3D
:10279000002010BD012010BD38B54FF4FA61044689
:1027A000FFF705FE054620B1FD21606800F062F8E4
:1027B00001E0562323702046FFF7B5FD284638BDBB
:1027C000F8B5054616461F46FFF7D2FF70B1002444
:1027D000BC4206EB4421284604D0FFF7B3FF28B1E2
:1027E0000134F5E7BDE8F840FFF7D6BF2846FFF70C
:1027F0009AFD0020F8BD00F081BA00F07FBA00F029
:102800007DBA0000014B01221A7070477812002037
:10281000011D006800F062BD10B504460175006836
:1028200000F03EFD207D012102F0F0F8207D012125
:10283000BDE8104002F0FBB8006800F036BDFF2193
:10284000006800F0BBBD000037B5084B00250093C1
:10285000074C134600680A462946257000F0B4FD6F
:102860002378002BFCD0002003B030BD05280A08D7
:1028700078120020006800F0A1BD000037B5074BBA
:1028800000250093064C134600682A46257000F088
:102890009BFD2378002BFCD003B030BD05280A082F
:1028A0007812002000F02ABAB0F5FA6F30B528BFD0
:1028B000A0F5FA60104D28BF80B292B20023013318
:1028C000DCB2A14205D9EC1814F8014C224492B2B2
:1028D000F5E7022903D9830704BF013292B200EB66
:1028E000C003C11C00EBC30000EB8000431E03EBE0
:1028F000A100104480B230BDCF610A08037840784F
:10290000303BDBB20A2B28BF002303EB83033038B4
:1029100000EB4300C0B2704738B50C46054602F0E4
:10292000DBF8682101F06FFF02F0D6F80368294652
:102930009B68984702F0D0F8036821469B68984747
:1029400002F0CAF8BDE8384001F068BF10B504468F
:1029500002F0C2F8682101F056FF02F0BDF80368EA
:1029600021469B68984702F0B7F801F057FF02F044
:10297000B3F80122682101F03EFF02F0ADF80368D0
:102980005B699847C0B210BD234B3C220B4430B565
:10299000B3FBF2F402FB14314171B4FBF2F102FB20
:1029A000114202714FF46162B3FBF2F21824B2FBE0
:1029B000F4F104FB1122C270184AB3FBF2F30022B7
:1029C0009BB20270017811F003040CBF01220022B7
:1029D00002F5B6759D4207DAC2F57E429332134482
:1029E00001319BB20170EDE701220D4D427041783B
:1029F0006A1812F8012C1CB9022904BF0132D2B2A4
:102A000092B2934204D39B1A01319BB24170EEE71C
:102A10000133837030BD00BF80BC92C7805101007C
:102A2000CF610A0830B50D4685B00446086849688C
:102A300001AB03C32889A97A188099700DF10D00A4
:102A4000FFF75CFF04AD15F80C3D2070413B122BE5
:102A500030D8DFE803F0192F2F2D2F172F2F2F0A33
:102A60002F2F202B292F2F2F27009DF80530612B8A
:102A700006D09DF806306E2B0CBF0623072318E006
:102A8000012316E0022314E09DF80630722B0CBFE0
:102A9000042308230DE09DF80630722B0CBF03239E
:102AA000052306E0092304E00A2302E00B2300E0EB
:102AB0000C23637002A8FFF721FF2B46A07010685B
:102AC000516803C32846FFF719FFE0700DF10700B6
:102AD000FFF714FF20710DF10A00FFF70FFF60717F
:102AE000204605B030BD000010B50446827841781C
:102AF0000078FFF7D9FEE278182303FB0020237942
:102B00003C2202FB0030637902FB00330148184489
:102B100010BD00BF80436D3808B501F0DDFF01F046
:102B20005BFE012008BD08B50F20FFF70FFFC0F3C3
:102B3000C01008BD38B5054601F0CEFF682101F090
:102B400066FE01F0C9FF036800219B68984701F009
:102B5000C3FF6B790A24B3FBF4F101EB410103EBF2
:102B600041010368C9B29B68984701F0B5FF2B7912
:102B7000B3FBF4F101EB410103EB41010368C9B27E
:102B80009B68984701F0A8FFEB78B3FBF4F101EBE9
:102B9000410103EB41010368C9B29B68984701F00A
:102BA0009BFF036800219B68984701F095FFAB7875
:102BB000B3FBF4F101EB410103EB41010368C9B23E
:102BC0009B68984701F088FF6B78B3FBF4F101EB49
:102BD000410103EB41010368C9B29B68984701F0CA
:102BE0007BFF29780368B1FBF4F404EB440401EBA8
:102BF00044019B68C9B2984701F06EFF01F00EFED8
:102C00000F20FFF7A3FEBDE8384000F07F010F2042
:102C1000FFF782BE2DE9F843044601F05DFF68210D
:102C200001F0F5FD01F058FF036800219B6898470B
:102C300001F052FF01F0F2FD01F04EFF0722682182
:102C400001F0DCFD01F048FF03685B69984700F084
:102C50007F000511A5EB850500EB4500C5B201F02D
:102C60003BFF03685B699847C0F30316A6EB860633
:102C700000EB4600C6B201F02FFF03685B6998477E
:102C8000C0F30317A7EB870700EB4700C7B201F0BB
:102C900023FF03685B69984701F01EFF03685B69C7
:102CA0009847C0F30318A8EB880800EB48005FFAC8
:102CB00080F801F011FF03685B699847C0F30319BE
:102CC000A9EB890900EB49005FFA80F901F004FFE4
:102CD00003685B699847C0F30313A3EB830300EB1E
:102CE0004300207084F8019084F80280E770267118
:102CF00065712046BDE8F88300F000B808B5024BC6
:102D00001B681B68019308BDB001060808B5024B9B
:102D10001B689B68019308BDB001060808B5024B0B
:102D20001B68DB68019308BDB001060808B5024BBB
:102D30001B681B69019308BDB001060808B5024B6A
:102D40001B68DB6C019308BDB001060808B5024B97
:102D50001B681B68019308BDB401060808B5024B47
:102D60001B685B69019308BDB401060808B5024BF6
:102D70001B68DB69019308BDB401060808B5024B66
:102D80001B681B6A019308BDB401060808B5024B15
:102D90001B685B6A019308BDB401060808B5024BC5
:102DA0001B689B6A019308BDB401060808B5024B75
:102DB0001B689B6B019308BDB401060808B5024B64
:102DC0001B68DB6B019308BDB401060808B5024B14
:102DD0001B685B68019308BD9C01060808B5024B9F
:102DE0001B681B69019308BD9C01060808B5024BCE
:102DF0001B685B69019308BD9C01060808B5024B7E
:102E00001B681B6B019308BDD001060808B5024B77
:102E10001B689B6B019308BDD001060808B5024BE7
:102E20001B681B6C019308BDD001060808B5024B56
:102E30001B689B69019308BDC401060808B5024BD5
:102E40001B681B6A019308BDC401060808B5024B44
:102E50001B685B6A019308BDC401060808B5024BF4
:102E60001B689B6A019308BDC401060808B5024BA4
:102E70001B68DB6A019308BDC401060808B5024B54
:102E80001B681B6B019308BDC401060808B5024B03
:102E90001B685B6B019308BDC401060808B5024BB3
:102EA0001B689B6B019308BDC401060808B5024B63
:102EB0001B681B6C019308BDC401060808B5024BD2
:102EC0001B68DB6C019308BDC401060808B5024B02
:102ED0001B68DB6C019308BDAC01060808B5024B0A
:102EE0001B685B6D019308BDAC01060808B5024B79
:102EF0001B689B6D019308BDAC01060808B5024B29
:102F00001B68DB6D019308BDAC01060808B5024BD8
:102F10001B681B6E019308BDAC01060808B5024B87
:102F20001B685B6E019308BDAC01060808B5024B37
:102F30001B689B6E019308BDAC01060808B5024BE7
:102F40001B68DB6E019308BDAC01060808B5024B97
:102F50001B681B6F019308BDAC01060808B5024B46
:102F60001B685B6F019308BDAC01060808B5034BF5
:102F70001B68D3F88030019308BD0000AC0106083F
:102F800008B5024B1B681B68019308BDBC0106080D
:102F900008B5024B1B685B68019308BDBC010608BD
:102FA00008B5024B1B689B68019308BDBC0106086D
:102FB00008B5024B1B68DB68019308BDBC0106081D
:102FC00008B5024B1B681B69019308BDBC010608CC
:102FD00008B5024B1B681B6A019308BDBC010608BB
:102FE00008B5024B1B681B6B019308BDBC010608AA
:102FF00008B5024B1B685B6C019308BDBC01060859
:1030000008B5024B1B681B68019308BDD801060870
:1030100008B5024B1B681B69019308BDD80106085F
:1030200008B5024B1B685B69019308BDD80106080F
:1030300008B5024B1B689B69019308BDD8010608BF
:1030400008B5024B1B68DB69019308BDD80106086F
:1030500008B5024B1B681B6A019308BDD80106081E
:1030600008B5024B1B685B6C019308BDC0010608E4
:1030700008B5024B1B689B6C019308BDC001060894
:1030800008B5024B1B681B6D019308BDA80102081F
:1030900008B5024B1B685B68019308BDA4010608D4
:1030A00008B5024B1B685B69019308BDA4010608C3
:1030B00008B5024B1B68DB6A019308BDA401060832
:1030C00008B5024B1B68DB6C019308BDA401060820
:1030D00008B5024B1B685B6D019308BDA40106088F
:1030E00008B5034B1B68D3F89030019308BD00006E
:1030F000A401060808B5034B1B68D3F89C30019364
:1031000008BD0000A401060808B5024B1B685B68F7
:10311000019308BDC801060808B5024B1B689B68EF
:10312000019308BDC801060808B5024B1B68DB689F
:10313000019308BDC801060808B5024B1B681B694E
:10314000019308BDC801060808B5024B1B685B69FE
:10315000019308BDC801060808B5024B1B689B69AE
:10316000019308BDC801060808B5024B1B68DB695E
:10317000019308BDC801060808B5024B1B681B6A0D
:10318000019308BDC801060808B5024B1B689B6A7D
:10319000019308BDC801060808B5024B1B681B6BEC
:1031A000019308BDC801060808B5024B1B685B6B9C
:1031B000019308BDC801060808B5024B1B689B684F
:1031C000019308BDCC01060808B5024B1B685B697A
:1031D000019308BDCC01060808B5024B1B681B6AA9
:1031E000019308BDCC01060808B5024B1B68DB6BD8
:1031F000019308BDCC01060808B5024B1B681B688B
:10320000019308BDA001060808B5024B1B685B6866
:10321000019308BDA001060808B5024B1B689B6816
:10322000019308BDA001060808B5024B1B68DB69C5
:10323000019308BDA001060808B5024B1B685B6A34
:10324000019308BDA001060808B5024B1B68DB6AA4
:10325000019308BDA001060808B5024B1B681B6B53
:10326000019308BDA0010608704710B5044610215F
:1032700001F057FC204610BD70B504460E46074BC2
:103280000025036040F80C5FFFF7B8FD304626715B
:10329000FFF76CFDA560204670BD00BFE4610A0821
:1032A0004FF6FF710079FFF751BDC068FFF7B6BD5B
:1032B000400830B5186000241868E5B2884206D985
:1032C0000134082C02D040081860F5E70725024BAE
:1032D0005B5D137030BD00BFEC610A082DE9F0435F
:1032E00080468FB0C0680F46FFF790FD98F8044005
:1032F0001422002109A802F0C9FC0B232046002259
:1033000009A9ADF82430FFF741FD9DF82D404CB1DF
:103310009DF82C502DB90C9E9DF834909DF83540A9
:1033200003E00024A146264601253B790DB1002B80
:1033300040D19D420BD1BA68B24208D18DF820909D
:103340008DF82140BDF82010BA89914232D023BBBC
:103350008DF80F300DF10F0204ABB9680A98FFF732
:10336000A7FF3B7905B113BBAB4209D000213B7BE2
:1033700001917C7B9DF80F2098F80400009413E0E5
:10338000BB68B342F2D38DF820908DF82140BDF890
:103390002020BB899A42E9D109E000231A4698F817
:1033A0000400019300930121FFF708FD02E0049B54
:1033B000B342DBD100200FB0BDE8F08308B500793F
:1033C000FFF7CCFCC0B208BD30B587B00A9D0446FB
:1033D00000790095FFF7E2FC3DB902A92079FFF7DB
:1033E000E5FC9DF81430DB07F7D407B030BD007959
:1033F000FFF7C4BC4FF6FF72034B002018705880D3
:103400009A80FFF745BE00BF7A12002037B502ACA4
:10341000036804F8011DDD6B012247F23053214699
:10342000A84703B030BD10B40368DC6B47F23053DB
:10343000A44610BC604737B502AC036804F8011D10
:10344000DD6B214613460122A84703B030BD70470B
:1034500070470020704710B50446142101F061FB4D
:10346000204610BDFCF71DBE10B5044603689B68DE
:103470009847A368013BA3602BB923682046BDE8A9
:103480001040DB68184710BD70B5044606464D690C
:10349000044B8C3544F8043B0FCD0FC42B683046E9
:1034A000237070BDA4630A0810B543690446B3F8DD
:1034B0008620B3F884309A4205D06269B2F884302D
:1034C0001344187910BD03681B6998470028F4D18C
:1034D0004FF0FF3010BD10B543690446B3F88620A5
:1034E000B3F884309A4208D06269B2F88430591C2B
:1034F000A2F884101344187910BD03681B6998471B
:103500000028F1D14FF0FF3010BDF8B543691746E0
:10351000B3F88620B3F8843005469A420E4606D1A9
:1035200003681B69984710B94FF0FF3414E06969CC
:103530003046B1F88430B1F886401944E41ABC42F0
:1035400028BF3C460431224602F095FB6A69B2F876
:1035500084302344A2F884302046F8BD4269002319
:10356000A2F884304269A2F88630704738B54269C3
:103570000446B2F886301BB1B2F884209A420CD0CF
:10358000206901F009FA0368DB68984718B363699A
:103590001868FFF7FDFC18B91DE0FFF7DFFFEFE744
:1035A0006069B0F886107F2915D8051DC1F1800229
:1035B000002329440068FFF703FD00280BDD636941
:1035C000B3F886200AB9A3F884206269B2F886307D
:1035D0001844A2F886006269B2F88630B2F8840016
:1035E000181A38BD38B5436904461868FFF7D0FC8F
:1035F00018B163691868FFF7EBFC6569FFF7F0FC29
:1036000028606069112200218C3002F03FFB2046C7
:10361000BDE83840FFF7A2BF2DE9F0411F4603681F
:103620008AB0DB6A06460C4615469847384601F0D4
:10363000B3F90368DB689847002856D000972B46FB
:10364000062201210220D6F81480FFF7A9FC2023CE
:10365000C8F8000000270293736903971B680120D4
:103660000193234B02AA009322493B46FFF708FD32
:1036700073691868FFF78CFC002836D03046FFF7D6
:103680006DFF0223ADF808302B0A8DF80A30E3797C
:103690004FF4FA508DF80C30A3798DF80B508DF85B
:1036A0000D3063798DF80E3014F8043F8DF80F302B
:1036B000FFF7D6FC73690546102202A91868FFF7C8
:1036C00077FC80462846FFF7CBFC0FCC75698C351C
:1036D0000FC523682B70B8F1000F05D03368304652
:1036E000DB6A9847384600E001200AB0BDE8F08167
:1036F00063620A085C620A0810B5436904461868E8
:10370000FFF746FC08B9002010BD206901F044F91C
:103710000368DB6898470028F5D063691868FFF7ED
:103720002FFCB0FA80F0400910BD2DE9F3410025CF
:10373000456004460E4617469846FFF7DDFF60B128
:1037400060690195CDF800802B463A463146006805
:10375000FFF74EFC002803DA01E04FF0FF30606015
:1037600002B0BDE8F08138B50446FFF7C5FF00BBE5
:103770006369B3F88610B3F88420914219D11868B0
:10378000FFF706FC28B163691868FFF7F9FB012809
:1037900001D000250EE0236820461B6998470028C9
:1037A00014BF0125002505D123682046DB6A984710
:1037B00000E00125284638BD08B5FFF79DFF003021
:1037C00018BF012008BD10B5044600230160A0F811
:1037D0008430A0F88630883000F014FE204610BDFA
:1037E0004FF47A7270B58260144A0023436002601D
:1037F000436183610446A0200E46FCF750FC054659
:1038000010B13146FFF7DFFF1420FCF748FC0346F8
:1038100028B1012242608260094A05610260A06904
:103820006561A36128B14368013B43600BB9FFF7B1
:103830001BFE2046FFF792FE204670BD18620A0864
:10384000FC610A0810B50446FFF7CAFB0146204692
:10385000FFF7C6FF204610BD10B504460068FFF70D
:1038600097FB10B12068FFF7B3FB204610BD10B5E1
:1038700004692046FFF7F0FF24B12046BDE8104060
:10388000FCF70FBC10BD00002DE9F0431F46036894
:103890008FB0DB6A06460D4690469847134801F004
:1038A0002EF800B302A800F0ADFD284602F04BFA56
:1038B000002481B200943B4603AA2846FFF7D8FBB8
:1038C00080B9336809ADD3F82090094B03AC089355
:1038D0000FCC0FC5236842462B7008A93B463046E3
:1038E000C84700E020460FB0BDE8F0830417002071
:1038F000A4630A0810B504460068FFF785FC20465B
:1039000010BD10B50446006808B1FFF77DFC002328
:103910002360A360636010BD38B504460D4600689F
:103920000131FFF779FC10B184E82100012038BD96
:1039300010B50368044613B143688B4207D2204692
:10394000FFF7EAFF20B1A3680BB9226813700120CA
:1039500010BD70B50E46114604461546FFF7E8FF48
:1039600018B92046FFF7CDFF09E02A463146A56089
:10397000206802F080F92268A3680021D154204613
:1039800070BD38B500230446036043608360037351
:103990000D4639B1084602F0D6F9294602462046BE
:1039A000FFF7D7FF204638BD38B505460C4641B174
:1039B000084602F0C8F9214602462846FFF7C9FF2B
:1039C00001E0FFF79EFF284638BD70B504460E465D
:1039D00009B9002070BD6AB18368D5182946FFF780
:1039E000A7FF0028F5D02068A3683146184402F0EC
:1039F00087F9A560012070BD8A680968FFF7E5BFF7
:103A000008B582680B4612B919B9012008BD11B971
:103A10000368187802E0006802F068F9B0FA80F0F4
:103A2000400908BD10B58368934207D90468096846
:103A3000A01802F090F908B1001B10BD4FF0FF3044
:103A400010BD0022FFF7EEBF2DE9F0411C469A425F
:103A500088BF13460E46154688BF25460D4988BFC8
:103A60001C460746FFF78DFFB1688D420FD88C4288
:103A700028BF0C463368002213F804801A553168B9
:103A800038462944FFF790FF336803F8048038462E
:103A9000BDE8F081CE610A0810B504468B68FFF7D7
:103AA000D3FF204610BDF8B506460D468F180024FA
:103AB000BD420CD0336815F8011B9B68304698470F
:103AC000002801DB0444F3E7002C08BF044620462D
:103AD000F8BD08B5FEF74AFA08BD03689B681847A9
:103AE00038B50D210546FFF7F8FF0A2104462846A0
:103AF000FFF7F3FF204438BD38B50546FEF736FA28
:103B000004462846FFF7ECFF204438BD012A98BF41
:103B10000A2230B50B468BB000218DF824100DF130
:103B20002304B3FBF2F505FB1233DBB2092B94BF80
:103B300030333733DBB2214604F801392B46002DF0
:103B4000EFD1FEF713FA0BB030BD10B422B9036801
:103B5000C9B29B6810BC1847D2B210BCFFF7D6BFE1
:103B6000FFF7F3BF2DE9F04107460E4615462AB987
:103B7000BDE8F0410368C9B29B6818470A2A02D120
:103B8000002901DA04E0D2B2BDE8F041FFF7BEBF80
:103B90002D21FFF7A2FF2A46044671423846FFF75F
:103BA000B5FF2044BDE8F081FFF7DCBF38B505461E
:103BB000FFF7D8FF04462846FFF792FF204438BDA0
:103BC0000CB42DE9F04387B000AF07F1380454F886
:103BD000049B05460E4623464A461421381D3C6088
:103BE000FFF72AFB132805D8391D2846FEF7BEF932
:103BF000044613E000F1080323F00703E846ADEBA9
:103C0000030D411C23464A4668463C60FFF714FBFF
:103C100069462846FEF7AAF90446C5461EB128465D
:103C2000FFF75EFF044420461C37BD46BDE8F04365
:103C300002B0704700231A4619464068FFF784BA5D
:103C400038B5046805467CB16368013B63605BB9C5
:103C5000236820469B689847A368013BA3601BB973
:103C600023682046DB689847284638BD0B68036008
:103C700013B15A6801325A6070470000014A024B82
:103C80001A607047ED620A0880120020024B1A6821
:103C9000024B1A60704700BF980000208412002079
:103CA0000021FFF7FDB910B58368044613B1032264
:103CB00001469847204610BD10B50446FFF7F3FFB4
:103CC000204610BD13B50B46044603C88DE803001B
:103CD00093E8030084E803009DE8030083E8030001
:103CE00002B010BD034800238360034A034900F07B
:103CF00013BF00BF8812002004010020B93C0A084D
:103D000008B5144B33B100F02BFC03681B699847CE
:103D1000002816DC104B33B100F0E6FC03681B6989
:103D20009847002810DC0D4B0BB1AFF300800C4B13
:103D30007BB100F051FC03681B699847002806DC42
:103D400008BDAFF30080E5E7AFF30080EBE7AFF32A
:103D5000008008BD0000000000000000000000001E
:103D60000000000008B5FFF7CBFFFFF73FF8014B5D
:103D7000186008BD2C1700200248034A0349121A94
:103D800001F079BF004002400440024090660A08FA
:103D900007B5002300931A466FF07701FFF7AAF9E1
:103DA00003B05DF804FB000007B543880A2B08D078
:103DB000502B09D1094B1B683BB103B05DF804EBF4
:103DC0001847FFF7E5FF06E0002300931A466FF05F
:103DD0007701FFF78FF903B05DF804FB981200201C
:103DE00038B5104C104D2368AB42104B0CBF01226C
:103DF00000221A7002D0FFF7BFFF2560FEF7E6FF32
:103E0000044601F04BFF0A4B13B12046AFF300808C
:103E100000210748FFF7E8F9BDE8384000210548D0
:103E2000FFF75EB9004002401E1C279A9C1200203A
:103E300000000000A93D0A0870470020704710B537
:103E40000446102100F06DFE204610BD08B508B1F3
:103E5000FFF7F5FF08BD002202604FF69C728280DA
:103E600010B5B1F9044084808A8002680C6804604F
:103E70000A6010BD10B504460068FFF7C5F920467A
:103E800010BD38B5C468F4B12378022B03D104F116
:103E90000C00FFF7EFFF656835B12846FFF703FF19
:103EA0001021284600F03DFEA56835B12846FFF7F1
:103EB000FAFE1021284600F034FE2046BDE83840C6
:103EC000142100F02EBE38BD13B5044691E805005C
:103ED00000234B600B602060626001A80193009397
:103EE000FFF7AEFE204602B010BDF7B50C46064601
:103EF0000F4654F8043B02AD45F8083D214601A8A1
:103F0000FFF7B4FE29463046FFF7DEFF01A8FFF7B2
:103F100097FE2046FFF794FE3846082100F001FE88
:103F2000304603B0F0BD000038B5002304460360FE
:103F300010200D46FCF7B3F828B1012343608360DD
:103F4000024BC56003602060204638BD88630A08C4
:103F5000826810B50AB900F0E6FDC368BDE81040FC
:103F6000184708B5006800F11001FFF7F1FF08BD20
:103F7000826810B50AB900F0D6FDC368BDE81040EC
:103F8000184708B5006800F11001FFF7F1FF08BD00
:103F900038B5002383608B6804460D462BB102229E
:103FA0009847EB68E360AB68A360204638BD00002B
:103FB000F0B589B004686846FFF74DFF4FF0020284
:103FC00000238DF80830D4E84F3F002B03D1C4E81C
:103FD000412F0029F7D102D08DF8083063E014F1A9
:103FE0000C0503D069462846FFF735FFBFF35F8F06
:103FF00001236370BFF35F8F04F10803002053E8CF
:10400000006F43E80002002AF9D1BFF35F8F002E52
:1040100049D0FFF755F820B129463046FFF798FF01
:104020003AE0314602A8FFF7B3FFE068B4F9105058
:1040300008B101F06DFE06901020ADF81C50FCF7A1
:104040002EF80546E8B1002787601820FCF727F80E
:10405000044688B10146876002A8FFF733FE049B3F
:10406000A268A360059B0492E26806A9E36004F1DC
:1040700010000592FFF7EFFE0D4B2C60EB600D4B2F
:10408000AB6006A8FFF7F6FE02A8FFF70CFE0022C1
:1040900029460948FFF71CF83046FFF704FE1021B7
:1040A000304600F03EFD6846FFF7E4FE09B0F0BD83
:1040B000633F0A08D9410A0835470A082DE9F04F3D
:1040C0008BB006460F46904699469DF850A0FFF7E4
:1040D0007BF807AD834630BB4FF62E73059005A9DC
:1040E0002846ADF81830FFF7B6FE1420FBF7D7FFCF
:1040F000044658B10223037001234370C0F804B092
:10410000C0F808B029460C30FFF7A5FE304621461E
:1041100040F8044BFFF708FF2846FFF7ABFE05A861
:10412000FFF7A8FE52E000240C2314206C60AC6062
:104130000793FBF7B4FF014618B104704470446064
:10414000846004A80391FFF7EFFE224B0820089338
:10415000FBF7A5FF044628B1039B04A940F8043BE4
:10416000FFF784FD00955FFA8AF34A4641463846D8
:104170000994FFF731F820B9039B5B7803F0FF0245
:1041800083B1039B04A906A80593FFF76FFD05A95A
:104190003046FFF799FE06A8FFF752FD04A8FFF787
:1041A0004FFD13E04FF69C7305A903A80592ADF8E7
:1041B0001830FFF7FDFE05A8FFF75CFE05A809997A
:1041C000FFF793FE06A8FFF73BFDDAE730460BB09A
:1041D000BDE8F08F49430A08022AF8B5044606D024
:1041E000032A17D0012A22D10B6803601FE0182090
:1041F0000E68FBF754FF054650B13146FFF7C8FE85
:104200003069B6F9147008B101F082FD2861AF82FF
:1042100025600CE0046854B104F11000FFF72AFE99
:104220002046FFF740FD1821204600F07AFC0020D0
:10423000F8BD38B5002383608B6804460D462BB16A
:1042400002229847EB68E360AB68A360204638BD64
:10425000022A70B5044606D0032A11D0012A18D1CB
:104260000B68036015E014200E68FBF718FF054685
:1042700020B13146FFF7DDFF337C2B74256008E069
:10428000046834B12046FFF70EFD1421204600F0EB
:1042900048FC002070BD0000F0B50C46BFF35F8FF6
:1042A00087B0002350E8006F40E80032002AF9D1BF
:1042B000BFF35F8F002E3FD01846FEF701FF074681
:1042C00020B121463046FFF753FE2EE0314601A8CB
:1042D000FFF7AFFF237810208DF81430FBF7DFFED7
:1042E0000546D0B187601420FBF7D9FE044678B1AB
:1042F0008760014601A8FFF7E5FC039BA268A36065
:10430000049B0392E268E3609DF8143004922374E6
:104310000A4B2C60EB600A4BAB6001A8FFF7C3FCB3
:10432000002229460748FEF7D3FE3046FFF7BBFCC4
:104330001021304600F0F5FB07B0F0BD833F0A08BE
:1043400051420A0835470A0830B5044685B00D4683
:1043500068461146FFF7C9FD7CB124B228460DB16D
:1043600001F0D6FC029002A96846ADF80C40FFF7B8
:104370001FFE02A8FFF77EFD1DE04FF0010200982E
:104380008DF80840D0E84F3FA34203D1C0E8412F49
:104390000029F7D102D08DF808300CE010F10C01A3
:1043A0004FF0010318BF0373BFF35F8F043000F8B1
:1043B000033CFFF771FF01A8FFF742FC05B030BDD9
:1043C000704710B50446182100F0ABFB204610BD25
:1043D000F8B50F4600F10806051D002416F8011D6A
:1043E0000A223846FFF7BCFBAE42044407D0002C3B
:1043F000F4D02E213846FFF770FB0444EEE7204648
:10440000F8BD000010B50446044B112240F8043BEF
:10441000002101F03BFC204610BD00BFA4630A0848
:104420000346074A10B543F8042B01F1100251F876
:10443000044B914243F8044BF9D10A781A7010BD2D
:10444000A4630A08024A41600260042202757047B0
:10445000A4630A0810B59DF8084044EA032343EA20
:10446000024242EA016104234160037510BD00006D
:1044700037B5044D05609DF818500095FFF7EAFF29
:1044800003B030BDA4630A0841747047704708B593
:104490000021007CFEF7CCFD30EA200028BF4FF061
:1044A000FF3008BD08B50121007CFEF7C1FD30EAF0
:1044B000200028BF4FF0FF3008BD08B5007CFEF794
:1044C000AFFD20EAE07008BD08B5007CFEF7A0FD56
:1044D00020EAE07008BD007CFEF7BABD10B50446C6
:1044E000142100F01EFB204610BD38B50446007CA8
:1044F0000D46FEF795FD002801DC607C28B12946B9
:10450000207CFEF79DFD20EAE07038BD10B5044622
:10451000002363604FF47A73A360054B0846236061
:104520000123217463741146FEF76AFD204610BD15
:10453000B8630A0810B504461422002101F0A6FB56
:10454000054B20466360054BE36040F20113238175
:104550008123238210BD00BF25130020A412002058
:1045600030B50E4D87B001A8FFF7E4FF296811F0C0
:10457000010410D12846FBF796FD60B101AA21463F
:104580000748FFF7C3FF2846FBF792FD054A064997
:10459000034800F0C1FA024807B030BDA012002065
:1045A00028140020040100208D440A0810B5044698
:1045B0001422002101F06AFB054B20466360054B85
:1045C000E36040F2011323818123238210BD00BFE9
:1045D000D81400204014002010B50E4C86B001A85D
:1045E000FFF7E4FF2368DB0710D42046FBF75BFDF1
:1045F00060B101AA01210848FFF788FF2046FBF7B8
:1046000057FD064A0649044800F086FA024806B0FB
:1046100010BD00BF3C140020C41400200401002081
:104620008D440A0870474174704708B5007CFEF756
:104630003DFC20EAE07008BD08B5007CFEF70EFCEA
:1046400020EAE07008BD08B5007CFEF717FC30EAF0
:10465000200028BF4FF0FF3008BD08B5007CFEF7F2
:1046600005FC30EA200028BF4FF0FF3008BD007C79
:10467000FEF70CBC10B50446142100F052FA204697
:1046800010BD70B5457C04460E4625B9007CFEF78A
:104690000DFC002805DD3146207CBDE87040FEF7AA
:1046A000D5BB284670BD000010B50446084611462B
:1046B000002262604FF47A72A260054A2074226080
:1046C000012262741A46FEF7B1FB204610BD00BFFE
:1046D000E8630A080023007CFEF7F0BB007CFEF7CD
:1046E000ADBB007CFEF7DABB38B50C4D296811F084
:1046F000010411D12846FBF7D6FC68B1084A2146CF
:10470000084B0948FFF7D0FF2846FBF7D1FC074AC2
:104710000749054800F000FA034838BD7416002028
:1047200078160020F0150020DC1500200401002080
:1047300025460A0810B5836804460BB900F0F3F962
:10474000C3689847A3681BB10322214620469847B7
:104750002046BDE81040102100F0E3B97047F8B5DD
:10476000064615460C468F18BC4206D0336814F82E
:10477000011B9B6830469847F6E72846F8BD0022A3
:10478000007CFEF7C3BB0021007CFEF7C7BB002105
:10479000007CFEF7CBBB0021007CFEF7CFBB0021E5
:1047A000007CFEF7D3BB10B50446142100F0B9F924
:1047B000204610BD10B5044608464FF47A73A36036
:1047C000044B0021207461602360FEF7CFFB20467C
:1047D00010BD00BF18640A0800231A461946007C61
:1047E000FEF774BB13B50024007C0094FEF776FB43
:1047F000C0B202B010BD0123FFF7F4BF0123D2B253
:10480000C9B2FFF7EFBF0022007CFEF76FBBC9B251
:10481000FFF7F9BF0022007CFEF770BB0121FFF714
:10482000F9BF0021007CFEF799BB002211464068C9
:10483000FEF782BCF0B5164689B011220F46044639
:10484000002103A801F022FA304601F07CFA00258D
:10485000009581B27B6803AA3046FEF709FC20B1BF
:1048600029462046FFF7EEFD03E003A92046FFF7A7
:10487000D7FD204609B0F0BD002211464068FEF782
:104880007BBC002211464068FEF78EBC00224068C7
:10489000FEF782BC002281F001014068FEF764BC93
:1048A00000231A4619464068FEF756BC00221146FE
:1048B0004068FEF731BC002202214068FEF734BC9C
:1048C00000231A464068FEF71FBC0000024B04227A
:1048D0005A60024A1A607047FC16002040640A08B9
:1048E00000231A464068FEF70FBC002202214068F0
:1048F000FEF71ABC002211464068FEF70DBC0022EC
:1049000011464068FEF718BC00231A461946406855
:10491000FEF71ABC00231A4619464068FEF71CBC75
:10492000002281F001014068FEF71EBC00224068B1
:10493000FEF732BC002211464068FEF735BC00226B
:1049400011464068FEF718BC70B516468EB0044696
:1049500008A8FFF757FD1122002103A801F096F9DE
:10496000304601F0F0F900250A4B009581B25B68F2
:1049700003AA3046FEF77CFB20B129462046FFF70C
:1049800061FD03E003A92046FFF74AFD20460EB073
:1049900070BD00BFFC160020034B044A04280CBF66
:1049A00010461846704700BF04170020FC16002070
:1049B000024B034A1A6000225A6070470417002015
:1049C00074640A0810B504460F48FEF710FD28B1BC
:1049D000A4F10D03022B01D8002010BD00F07CF8DB
:1049E000FFF71FFF08B1012CF6D9FFF77DFEFFF797
:1049F00078FE18B1A4F11203012BEDD9172C8CBF4E
:104A00000020012010BD00BF0C170020172838B56A
:104A100004460D460AD8FF2908D0FFF7D3FF28B176
:104A200029462046BDE83840FEF770B938BD38B594
:104A300004460D46FEF772F9FF2810D0062804D868
:104A40004D2323FA00F0C30709D42046FFF7BAFF2D
:104A500028B129462046BDE83840FEF767B938BD81
:104A6000FEF76CB970B50C4C0C4E0D4D0021204674
:104A7000FEF702FC20460B4C3246294600F04CF86B
:104A800001212046FEF7F8FB324629462046BDE8C4
:104A9000704000F041B800BF0C1700200401002056
:104AA00069320A081C17002013B5084C00231A4667
:104AB000194600932046FFF7DBFC2046044A0549CF
:104AC00002B0BDE8104000F027B800BF301700204A
:104AD00004010020C1430A0838B50B4D296811F0C4
:104AE00001040FD12846FBF7DEFA58B121460748EA
:104AF000FFF760FE2846FBF7DBFA054A0549034845
:104B000000F00AF8014838BD481700204C17002073
:104B1000040100205D470A080B460146184601F0D3
:104B20008DB8FBF7BEBA08B5FEF78EFB184B1A68B6
:104B3000D1075CBF01221A60164B1A68D2075CBF0E
:104B400001221A60144B1A68D0075CBF01221A6058
:104B5000124B1A68D1075CBF01221A60104B1A6809
:104B6000D2075CBF01221A600E4B1A68D0075CBFE7
:104B700001221A600C4B1A68D1075CBF01221A602F
:104B80000A4B1A68D2075CBF01221A60704700BF47
:104B90007C17002078170020741700207017002061
:104BA0006C17002068170020641700206017002091
:104BB000244B1A68D0075CBF01221A60224B1A6886
:104BC000D1075CBF01221A60204B1A68D2075CBF74
:104BD00001221A601E4B1A68D0075CBF01221A60BE
:104BE0001C4B1A68D1075CBF01221A601A4B1A6865
:104BF000D2075CBF01221A60184B1A68D0075CBF4D
:104C000001221A60164B1A68D1075CBF01221A6094
:104C1000144B1A68D2075CBF01221A60124B1A6843
:104C2000D0075CBF01221A60104B1A68D1075CBF25
:104C300001221A600E4B1A68D2075CBF01221A606B
:104C4000704700BFAC170020A8170020A417002051
:104C5000A01700209C170020981700209417002010
:104C6000901700208C170020881700208417002040
:104C700080170020244B1A68D0075CBF01221A60FD
:104C8000224B1A68D1075CBF01221A60204B1A68B8
:104C9000D2075CBF01221A601E4B1A68D0075CBFA6
:104CA00001221A601C4B1A68D1075CBF01221A60EE
:104CB0001A4B1A68D2075CBF01221A60184B1A6897
:104CC000D0075CBF01221A60164B1A68D1075CBF7F
:104CD00001221A60144B1A68D2075CBF01221A60C5
:104CE000124B1A68D0075CBF01221A60104B1A6879
:104CF000D1075CBF01221A600E4B1A68D2075CBF55
:104D000001221A60704700BFDC170020D81700206E
:104D1000D4170020D0170020CC170020C81700207F
:104D2000C4170020C0170020BC170020B8170020AF
:104D3000B4170020B0170020184B1A68D1075CBFC9
:104D400001221A60164B1A68D2075CBF01221A6052
:104D5000144B1A68D0075CBF01221A60124B1A6804
:104D6000D1075CBF01221A60104B1A68D2075CBFE2
:104D700001221A600E4B1A68D0075CBF01221A602C
:104D80000C4B1A68D1075CBF01221A600A4B1A68E3
:104D9000D2075CBF01221A60704700BFFC170020D9
:104DA000F8170020F4170020F0170020EC1700205F
:104DB000E8170020E4170020E017002081F00041F0
:104DC00002E000BF83F0004330B54FEA41044FEAF0
:104DD000430594EA050F08BF90EA020F1FBF54EA8B
:104DE000000C55EA020C7FEA645C7FEA655C00F027
:104DF000E2804FEA5454D4EB5555B8BF6D420CDDF8
:104E00002C4480EA020281EA030382EA000083EA7A
:104E1000010180EA020281EA0303362D88BF30BD1A
:104E200011F0004F4FEA01314FF4801C4CEA113170
:104E300002D0404261EB410113F0004F4FEA0333CF
:104E40004CEA133302D0524263EB430394EA050F5A
:104E500000F0A780A4F10104D5F1200E0DDB02FAC9
:104E60000EFC22FA05F2801841F1000103FA0EF25D
:104E7000801843FA05F359410EE0A5F120050EF123
:104E8000200E012A03FA0EFC28BF4CF0020C43FA54
:104E900005F3C01851EBE37101F0004507D54FF061
:104EA000000EDCF1000C7EEB00006EEB0101B1F5B1
:104EB000801F1BD3B1F5001F0CD349085FEA3000F7
:104EC0004FEA3C0C04F101044FEA445212F5800F02
:104ED00080F09A80BCF1004F08BF5FEA500C50F19F
:104EE000000041EB045141EA050130BD5FEA4C0C82
:104EF000404141EB010111F4801FA4F10104E9D10B
:104F000091F0000F04BF01460020B1FA81F308BF01
:104F10002033A3F10B03B3F120020CDA0C3208DDCD
:104F200002F1140CC2F10C0201FA0CF021FA02F1A8
:104F30000CE002F11402D8BFC2F1200C01FA02F118
:104F400020FA0CFCDCBF41EA0C019040E41AA2BF3D
:104F500001EB0451294330BD6FEA04041F3C1CDA05
:104F60000C340EDC04F11404C4F1200220FA04F025
:104F700001FA02F340EA030021FA04F345EA0301CF
:104F800030BDC4F10C04C4F1200220FA02F001FA91
:104F900004F340EA0300294630BD21FA04F0294613
:104FA00030BD94F0000F83F4801306BF81F48011AC
:104FB0000134013D4EE77FEA645C18BF7FEA655C1F
:104FC00029D094EA050F08BF90EA020F05D054EAF1
:104FD000000C04BF1946104630BD91EA030F1EBFF6
:104FE0000021002030BD5FEA545C05D140004941FA
:104FF00028BF41F0004130BD14F580043CBF01F5ED
:10500000801130BD01F0004545F0FE4141F47001D2
:105010004FF0000030BD7FEA645C1ABF19461046AD
:105020007FEA655C1CBF0B46024650EA013406BFAE
:1050300052EA033591EA030F41F4002130BD00BF6D
:1050400090F0000F04BF0021704730B54FF480642A
:1050500004F132044FF000054FF0000150E700BFAB
:1050600090F0000F04BF0021704730B54FF480640A
:1050700004F1320410F0004548BF40424FF00001F7
:105080003EE700BF42004FEAE2014FEA31014FEA3A
:1050900002701FBF12F07F4393F07F4F81F0605189
:1050A000704792F0000F14BF93F07F4F704730B5F8
:1050B0004FF4607401F0004521F0004120E700BF8B
:1050C00050EA010208BF704730B54FF000050AE012
:1050D00050EA010208BF704730B511F0004502D513
:1050E000404261EB41014FF4806404F132045FEA15
:1050F000915C3FF4DCAE4FF003025FEADC0C18BFBA
:1051000003325FEADC0C18BF033202EBDC02C2F1AF
:10511000200300FA03FC20FA02F001FA03FE40EA41
:105120000E0021FA02F11444C1E600BF70B54FF041
:10513000FF0C4CF4E06C1CEA11541DBF1CEA135523
:1051400094EA0C0F95EA0C0F00F0DEF82C4481EA8B
:10515000030621EA4C5123EA4C5350EA013518BFAB
:1051600052EA033541F4801143F4801338D0A0FB98
:1051700002CE4FF00005E1FB02E506F00042E0FB45
:1051800003E54FF00006E1FB03569CF0000F18BF4B
:105190004EF0010EA4F1FF04B6F5007F64F54074F3
:1051A00004D25FEA4E0E6D4146EB060642EAC62186
:1051B00041EA55514FEAC52040EA5E504FEACE2EF3
:1051C000B4F1FD0C88BFBCF5E06F1ED8BEF1004FF6
:1051D00008BF5FEA500E50F1000041EB045170BD72
:1051E00006F0004646EA010140EA020081EA0301B6
:1051F000B4EB5C04C2BFD4EB0C0541EA045170BDB2
:1052000041F480114FF0000E013C00F3AB8014F12B
:10521000360FDEBF002001F0004170BDC4F1000474
:10522000203C35DA0C341BDC04F11404C4F12005F5
:1052300000FA05F320FA04F001FA05F240EA020050
:1052400001F0004221F0004110EBD37021FA04F686
:1052500042EB06015EEA430E08BF20EAD37070BD40
:10526000C4F10C04C4F1200500FA04F320FA05F09F
:1052700001FA04F240EA020001F0004110EBD370A1
:1052800041F100015EEA430E08BF20EAD37070BD11
:10529000C4F1200500FA05F24EEA020E20FA04F3EA
:1052A00001FA05F243EA020321FA04F001F0004199
:1052B00021FA04F220EA020000EBD3705EEA430E0A
:1052C00008BF20EAD37070BD94F0000F0FD101F039
:1052D0000046400041EB010111F4801F08BF013C72
:1052E000F7D041EA060195F0000F18BF704703F0B0
:1052F0000046520043EB030313F4801F08BF013D37
:10530000F7D043EA0603704794EA0C0F0CEA1355F2
:1053100018BF95EA0C0F0CD050EA410618BF52EAAC
:105320004306D1D181EA030101F000414FF00000B2
:1053300070BD50EA410606BF1046194652EA4306C0
:1053400019D094EA0C0F02D150EA013613D195EA34
:105350000C0F05D152EA03361CBF104619460AD17C
:1053600081EA030101F0004141F0FE4141F4700186
:105370004FF0000070BD41F0FE4141F4780170BD76
:1053800070B54FF0FF0C4CF4E06C1CEA11541DBFDB
:105390001CEA135594EA0C0F95EA0C0F00F0A7F8DD
:1053A000A4EB050481EA030E52EA03354FEA01310A
:1053B00000F088804FEA03334FF0805545EA13131D
:1053C00043EA12634FEA022245EA111545EA1065E5
:1053D0004FEA00260EF000419D4208BF964244F17C
:1053E000FD0404F5407402D25B084FEA3202B61A9B
:1053F00065EB03055B084FEA32024FF480104FF46F
:10540000002CB6EB020E75EB030E22BFB61A7546E2
:1054100040EA0C005B084FEA3202B6EB020E75EB75
:10542000030E22BFB61A754640EA5C005B084FEADD
:105430003202B6EB020E75EB030E22BFB61A7546AA
:1054400040EA9C005B084FEA3202B6EB020E75EBB5
:10545000030E22BFB61A754640EADC0055EA060E76
:1054600018D04FEA051545EA16754FEA06164FEAB9
:10547000C30343EA52734FEAC2025FEA1C1CC0D165
:1054800011F4801F0BD141EA00014FF000004FF0F2
:10549000004CB6E711F4801F04BF01430020B4F1B3
:1054A000FD0C88BFBCF5E06F3FF6AFAEB5EB030C6B
:1054B00004BFB6EB020C5FEA500C50F1000041EB68
:1054C000045170BD0EF0004E4EEA113114EB5C0435
:1054D000C2BFD4EB0C0541EA045170BD41F4801108
:1054E0004FF0000E013C90E645EA060E8DE60CEA10
:1054F000135594EA0C0F08BF95EA0C0F3FF43BAF2D
:1055000094EA0C0F0AD150EA01347FF434AF95EAE3
:105510000C0F7FF425AF104619462CE795EA0C0FC7
:1055200006D152EA03353FF4FDAE1046194622E794
:1055300050EA410618BF52EA43067FF4C5AE50EA6E
:1055400041047FF40DAF52EA43057FF4EBAE12E75E
:105550004FEA410212F5001215D211D56FF478739B
:10556000B3EB625212D94FEAC12343F0004343EA3E
:10557000505311F0004F23FA02F018BF4042704719
:105580004FF00000704750EA013005D111F00040A3
:1055900008BF6FF0004070474FF00000704700BF39
:1055A0004FEA4102B2F1E04324BFB3F5001CDCF145
:1055B000FE5C0DD901F0004C4FEAC0024CEA50707D
:1055C000B2F1004F40EB830008BF20F001007047AC
:1055D00011F0804F21D113F13872BCBF01F00040AF
:1055E000704741F480114FEA5252C2F11802C2F1E1
:1055F000200C10FA0CF320FA02F018BF40F0010062
:105600004FEAC1234FEAD32303FA0CFC40EA0C0013
:1056100023FA02F34FEA4303CCE77FEA625307D150
:1056200050EA01331EBF4FF0FE4040F44000704787
:1056300001F0004040F0FE4040F40000704700BF21
:1056400080F0004002E000BF81F0004142001FBF37
:105650005FEA410392EA030F7FEA226C7FEA236C40
:105660006AD04FEA1262D2EB1363C1BFD218414035
:1056700048404140B8BF5B42192B88BF704710F0CB
:10568000004F40F4000020F07F4018BF404211F06E
:10569000004F41F4000121F07F4118BF494292EAD6
:1056A000030F3FD0A2F1010241FA03FC10EB0C0002
:1056B000C3F1200301FA03F100F0004302D549428F
:1056C00060EB4000B0F5000F13D3B0F1807F06D33C
:1056D00040084FEA310102F10102FE2A51D2B1F134
:1056E000004F40EBC25008BF20F0010040EA030029
:1056F0007047490040EB000010F4000FA2F10102D6
:10570000EDD1B0FA80FCACF1080CB2EB0C0200FA5F
:105710000CF0AABF00EBC25052421843BCBFD040AD
:105720001843704792F0000F81F4000106BF80F427
:1057300000000132013BB5E74FEA41037FEA226CEA
:1057400018BF7FEA236C21D092EA030F04D092F0B5
:10575000000F08BF0846704790EA010F1CBF0020E9
:10576000704712F07F4F04D1400028BF40F0004046
:10577000704712F100723CBF00F50000704700F066
:10578000004343F0FE4040F4000070477FEA22628D
:1057900016BF08467FEA23630146420206BF5FEA5E
:1057A000412390EA010F40F4800070474FF000035E
:1057B00004E000BF10F0004348BF40425FEA000C25
:1057C00008BF704743F0964301464FF000001CE0CD
:1057D00050EA010208BF70474FF000030AE000BF23
:1057E00050EA010208BF704711F0004302D5404261
:1057F00061EB41015FEA010C02BF844601460020D3
:1058000043F0B64308BFA3F18053A3F50003BCFAED
:105810008CF2083AA3EBC25310DB01FA02FC63449A
:1058200000FA02FCC2F12002BCF1004F20FA02F2A1
:1058300043EB020008BF20F00100704702F1200294
:1058400001FA02FCC2F1200250EA4C0021FA02F2F5
:1058500043EB020008BF20EADC7070474FF0FF0CFA
:105860001CEAD0521EBF1CEAD15392EA0C0F93EAF5
:105870000C0F6FD01A4480EA010C400218BF5FEA97
:1058800041211ED04FF0006343EA501043EA51110A
:10589000A0FB01310CF00040B1F5000F3EBF490004
:1058A00041EAD3715B0040EA010062F17F02FD2A08
:1058B0001DD8B3F1004F40EBC25008BF20F00100EB
:1058C000704790F0000F0CF0004C08BF49024CEA02
:1058D000502040EA51207F3AC2BFD2F1FF0340EA94
:1058E000C250704740F400004FF00003013A5DDC05
:1058F00012F1190FDCBF00F000407047C2F1000246
:10590000410021FA02F1C2F1200200FA02FC5FEA32
:10591000310040F1000053EA4C0308BF20EADC707C
:10592000704792F0000F00F0004C02BF400010F4EE
:10593000000F013AF9D040EA0C0093F0000F01F09B
:10594000004C02BF490011F4000F013BF9D041EABD
:105950000C018FE70CEAD15392EA0C0F18BF93EABF
:105960000C0F0AD030F0004C18BF31F0004CD8D1E9
:1059700080EA010000F00040704790F0000F17BF70
:1059800090F0004F084691F0000F91F0004F14D0B6
:1059900092EA0C0F01D142020FD193EA0C0F03D10E
:1059A0004B0218BF084608D180EA010000F0004011
:1059B00040F0FE4040F40000704740F0FE4040F4EC
:1059C000400070474FF0FF0C1CEAD0521EBF1CEA8B
:1059D000D15392EA0C0F93EA0C0F69D0A2EB0302A9
:1059E00080EA010C49024FEA402037D04FF0805343
:1059F00043EA111143EA10130CF000408B4238BF08
:105A00005B0042F17D024FF4000C8B4224BF5B1A15
:105A100040EA0C00B3EB510F24BFA3EB510340EA63
:105A20005C00B3EB910F24BFA3EB910340EA9C0011
:105A3000B3EBD10F24BFA3EBD10340EADC001B0181
:105A400018BF5FEA1C1CE0D1FD2A3FF650AF8B4225
:105A500040EBC25008BF20F0010070470CF0004C32
:105A60004CEA50207F32C2BFD2F1FF0340EAC2505D
:105A7000704740F400004FF00003013A37E792F01E
:105A8000000F00F0004C02BF400010F4000F013A7C
:105A9000F9D040EA0C0093F0000F01F0004C02BF77
:105AA000490011F4000F013BF9D041EA0C0195E7E0
:105AB0000CEAD15392EA0C0F08D142027FF47DAF79
:105AC00093EA0C0F7FF470AF084676E793EA0C0F69
:105AD00004D14B023FF44CAF08466EE730F0004C67
