:02000002D0002C
:1040000000400D00449D0D00000006000C0005015D
:0840100004015004000000004F
:10401800E8930D0009480A49884208B505D0094ABD
:10402800824202D0121A05F0DCF80748074A00213C
:10403800121A05F0E1F8014808BD00BF48D1032075
:10404800109C0D0054D2032054D20320F0E7032023
:1040580070B503F031FC074C074BE41AA40800259F
:104068001E46A54204D056F8253098470135F8E792
:1040780070BD00BF109C0D00889B0D0000F0EEB8CD
:1040880008B500F077FBBDE8084003F0E3BB03F098
:10409800ADB803F0B3B803F0B1B80078B0FA80F067
:1040A800400970470123037070477047083001F0DA
:1040B800C7BE07B502AB012203F8011D0830194637
:1040C80001F0BEFE03B05DF804FB10B50446FFF72F
:1040D800E0FF204610BD00007FB502460846137970
:1040E800956833B13DB90C4904B0BDE8704003F0A0
:1040F800ACBA0A4B00E00A4B167B0A4C0A49527BC1
:104108000292012E08BF214601910095074A00211D
:1041180003F015FB04B070BD31940D0009970D0034
:1041280020940D0029940D002D940D0047940D0046
:1041380010B50446043003F099F9204610BD10B5B7
:1041480004463C3003F092F904F1280003F08EF99C
:10415800204603F08BF9204610BD000038B584696D
:104168000A4B036005467CB16368013B63605BB939
:10417800236820469B689847A368013BA3601BB946
:1041880023682046DB689847284638BD5C990D00AF
:1041980010B50446FFF7E2FF204610BD10B50446EF
:1041A800FFF7DCFF2046FFF774FF204610BD00B57F
:1041B8008BB000230A46014601A88DF804308DF81B
:1041C800053001F0EEFD0BB05DF804FB13460A461E
:1041D8000149096801F0E5BDC0E3032030B585B0A9
:1041E8001C4B009313798DF8043093680293137B6A
:1041F8008DF80C3000F58C65537B8DF80D30044636
:104208000A466B4600F26C41284602F061F9F0B1AB
:10421800256004F23C45284601F0BCFD01212046FA
:1042280001F0FFFF014668B12146284601F0DDFB99
:1042380068B194F83C3413F0700316BF064B184667
:104248001D6005E0204601F0ECFF0028ECD10020BD
:1042580005B030BD04940D00C0E303202DE9F04102
:1042680098B003F029FC4FF4E13103F013FC03F09C
:1042780023FC03F016FC0028F9D04FF47A6003F011
:10428800ABFA354D354C03F017FC354903F0F0F91E
:1042980003F012FC334903F0EBF9284604F0EEFF73
:1042A8008046204604F0EAFF4C26074632460021A5
:1042B80005A804F0A1FF03232B488DF8283000231C
:1042C800194605AA4068089405960695CDF81C80FD
:1042D800099702F063FF03F05FFC00224FF41651C8
:1042E80003F050FC214B0021188804F05BF90424EA
:1042F8001F4800F0A0FE88B9013C0FD04FF47A7037
:1043080003F06AFA03F0D8FB0546194800F093FE5B
:104318000A220146284603F008FAE9E71549164833
:10432800FFF745FF154802F0D3FB144802F0D7FB0E
:1043380070B116212B2200238DE80E0005A8132347
:10434800012240F2E47102F097FB05A802F0CEFBCF
:1043580018B0BDE8F08100BF74D10320D8D1032084
:1043680065940D006B940D0004E7032070D10320C1
:10437800ACDF0320A0D10320F0D6032064D20320B1
:104388007FB53A4A3A4B029201220E4600938DF8C5
:104398000C2000230E2104466A4636488DF8043066
:1043A8008DF80D30FFF71AFF31463348FFF7FFFE4F
:1043B800002858D104F1080540F201223146284668
:1043C800FFF704FF284601F0AFFC2C49204603F014
:1043D8003CF92C21204603F03CF92949204603F0FA
:1043E80034F92849204603F030F92749204603F0DC
:1043F8002CF92649204603F028F92549204603F0E0
:1044080024F92449204603F020F92349204603F0E3
:104418001CF92249204603F018F92149204603F0E7
:1044280014F92049204603F010F91F49204603F0EB
:104438000CF91E49204603F008F91D49204603F0EF
:1044480004F91C49204603F000F91B49204603F0F3
:10445800FCF81A49204603F0F8F8204603F0FCF867
:10446800284601F097FC04B070BD00BF80F0FA0246
:1044780004940D00B4D20320F0D6032074940D00E8
:1044880079940D0088940D0097940D00A7940D0061
:10449800B1940D00BB940D00C6940D00CC940D0092
:1044A800D2940D00D9940D00E0940D00E7940D000E
:1044B800EF940D00F9940D0002950D000F950D0075
:1044C8002DE9FF479C4A9D4B0292012204460D4666
:1044D80000938DF80C2000236A460E2198488DF829
:1044E80004308DF80D30FFF779FE29469548FFF71F
:1044F8005EFE04F1080610B940F2012200E009222C
:1045080029463046904DDFF860A2DFF86092DFF868
:1045180060828E4FFFF75AFE304601F005FC29787D
:104528000A2201F5FA61204603F0FDF82D21204604
:1045380003F08FF80A226978204603F0D0F82D217D
:10454800204603F086F80A22A978204603F0C7F827
:104558007F49204603F079F80A22E978204603F0DB
:10456800BEF83A21204603F074F80A222979204639
:1045780003F0B5F83A21204603F06BF80A2269796E
:10458800744D204603F0ABF8734BDFED746AD3ED3E
:10459800007A734BBDEEE77A2C218AED007AB8EEEB
:1045A800C77A204637EEC77AD3ED007A27EE267A07
:1045B800BDEEC77A89ED007ABDEEE77A88ED007A1C
:1045C800B8EEC77A77EEC77A67EEA67AFDEEE77A95
:1045D800C7ED007A03F03DF82C21204603F039F8A6
:1045E8000A226988204603F09EF82C21204603F011
:1045F80030F80A22A988204603F095F82C21204695
:1046080003F027F80A22E988204603F08CF82C21C9
:10461800204603F01EF80A222989204603F083F871
:104628002C21204603F015F80A226989204603F058
:104638007AF82C21204603F00CF80A22A989204692
:1046480003F071F82C21204603F003F80A22E989C7
:10465800204603F068F82C21204602F0FAFF0A22CF
:10466800298A204603F05FF82C21204602F0F1FF4A
:104678000A22698A204603F056F82C21204602F0C7
:10468800E8FF0A22A98A204603F04DF82C2120468B
:1046980002F0DFFF0A22E98A204603F044F82C21C1
:1046A800204602F0D6FF0A22298B204603F03BF869
:1046B8002C21204602F0CDFF0A22A98B204603F0C8
:1046C80032F82C21204602F0C4FF264B0A22196832
:1046D800204603F028F82C21204602F0BAFF0A22CF
:1046E800DAF80010204603F01EF82E21204602F0CA
:1046F800B0FF0A22D9F80010204603F014F82C2144
:10470800204602F0A6FF0A22D8F80010204603F03F
:104718000AF82E21204602F09CFF0A22396820461A
:1047280003F001F8204602F097FF304601F032FB13
:1047380004B0BDE8F08700BF80F0FA0204940D00D1
:10474800B4D20320F0D6032038D7032088DB032017
:1047580081970D0088DF0320BCE303200000C842D6
:1047680074DF0320D0DF032078DF0320B8DF0320C5
:10477800A8DF03202DE9F0472DED028B664C0022BF
:10478800A2B01146606802F0E1FC034648B9014650
:104798000246606802F0C2FC03F08EF95F4902F03D
:1047A80067FF03F0F9F903685B69984710F5827FA2
:1047B80000F0E9815A4D5B4B2A681340002BBEBFBD
:1047C80003F1FF3363F001030133012B564B0AD188
:1047D8000102012A196040F0CD81422800F0CA8107
:1047E80000232B60C6E11B68023A18441E2A00F217
:1047F800C181DFE812F01F00BF011F00BF012200C6
:10480800BF012500BF012800BF012B00BF012E00FA
:10481800BF013100BF013400BF013700BF013A00BA
:10482800BF013D00BF014000BF014300BF01BF0100
:10483800BF0146003D4B18809CE13C4B588099E1F4
:104848003A4B988096E1394BD88093E1374B1881E1
:1048580090E1364B58818DE1344B98818AE1334B96
:10486800D88187E1314B188284E1304B588281E14D
:104878002E4B98827EE12D4BD8827BE12B4B1883FF
:1048880078E12A4C2A4EA08317A802F09FF9294BF9
:1048980017981860BDF8602027489A8000F040FA01
:1048A800254886ED000A9FED258A00F07DFAD6EDB1
:1048B800007A67EE887AF0EE408AF5EEC07AF1EE7B
:1048C80010FA17EE900A06DB04F08CF900221C4B54
:1048D80004F02AF805E004F085F90022184B04F0EA
:1048E80021F804F0E5FB07EE900AF8EEE77A28EEE7
:1048F800880A87EE887AB5EEC00AF1EE10FA86EDDE
:10490800007A10EE100A1DDB04F06CF900220C4B43
:1049180004F00AF81CE000BF04E7032019950D0015
:1049280084D103200100008058D2032088DF0320AF
:1049380074DF032038D70320ACDF03200000C8420F
:104948000000E03F04F04EF90022914B03F0EAFF2B
:1049580004F0AEFB07EE900AF8EEE77ADFF89882EB
:104968008C4FD8F8003087EE887A002B87ED007AD4
:104978001DDCDFF8589209F1080CBCE80F000DF1B6
:10498800640EAEE80F00BCE80F00AEE80F00DCF8DC
:104998000030CEF80030D9F8043018937E497F4BA8
:1049A800179317A8FFF7ECFC0123C8F800307C4BDD
:1049B800DFF848821888DFF84892002103F01CFECF
:1049C800784B1860D8F800301844C8F8000002F096
:1049D80001FAD9F80030C01A734B1B68984240F2AC
:1049E800BE80D8F80000DFF81CA204F0D9F8CDE9A1
:1049F800140102F0EFF9D9F80030C01A04F0D0F829
:104A080000226A4B04F042F902460B46DDE9140124
:104A180004F066FA04F074FB0023C8F80030CAF802
:104A28000000306804F0DEF8CDE91201386804F0BF
:104A3800D9F8CDE91001A38B0F93238B0E93E38A4A
:104A48000D93A38A0C93638A0B93238A0A93E389B1
:104A58000993A38908936389079323890693E388B5
:104A68000593A388049363880393514B0293514B96
:104A78000193514B514A00934FF47A71504B51486E
:104A880002F0CCFB03F018F84E4902F0F1FD4E4855
:104A980002F006F88046306804F0A4F8CDE90E016B
:104AA80038684A4F04F09EF8CDE90C01DAF80000A6
:104AB80004F098F8CDE90A01238B0893E38A079359
:104AC800A38A0693638A0593238A0493E38903934D
:104AD800E3880293A3880193638800933C4A3D4886
:104AE80043464FF47A7107F1080602F097FB0FCEA0
:104AF80019AC0FC40FCE0FC4336823607B681893BA
:104B08002549264B179317A8FFF7DAFCD023009303
:104B180099220F23802117A818AE02F065FF0FCE47
:104B28002D4F07F114040FC4336823702B4B25490C
:104B38001B68BB6307F1280002F0F2FC284B294AE6
:104B480000933946284B294800F0BCFA02F0B4FF1C
:104B5800274902F08DFD02F03DF9C9F8000003F085
:104B68001BF803F013F803F017F800224FF416515E
:104B780003F008F82B6801332B602B68212B02BF48
:104B88001C4B01221A6022B0BDEC028BBDE8F087F5
:104B98000000E03FBCE30320A0D1032010940D00E7
:104BA80070D1032080DF032088D103200000244037
:104BB80048D10320B4D103208CD1032027950D00C0
:104BC8005CD10320D4DF032038D703205CDB03202B
:104BD800FE950D008CDB032068D20320E4D103206E
:104BE800B3960D00BCDF0320C8D1032040D70320B3
:104BF800B7960D0084D1032084DF03207CDF0320D7
:104C08005CD2032060D2032070B5304C304D314E59
:104C180002F060F80021012002F064FA204600F05A
:104C280024FA20462C4C2D492A4603F029FD31460A
:104C3800204602F062FC04F1100002F091FE3146B9
:104C480004F1280002F059FC314604F13C0002F05E
:104C580054FC2046224C23492A4603F011FD3146D4
:104C6800201D02F04AFC2A461F49204603F008FD91
:104C78001E4B1F481F49642283F860241E4AC3F84C
:104C880070240122002483F874241C4ADC7183F800
:104C98003C4483F83D4483F86A44C3F8784483F875
:104CA8007C4483F87D44C3F86C240472144B44722A
:104CB8002A464460036003F0E3FC2146114801F0F2
:104CC8008DFE1148BDE8704000F024B840D703209D
:104CD80054D2032009970D0068D2032099410D0092
:104CE800BCDF032047410D0039410D00B4D2032039
:104CF8005CDB0320B3400D0004940D0014E703208F
:104D080010940D0038D70320ACDF03200368C9B224
:104D18009B68184740220272002242600260704776
:104D280010B5044603F08CFC94F9081002F0B3FFA8
:104D380003F086FC0368F5219B68984703F080FC24
:104D4800002102F0ABFF192002F046FD03F078FCC9
:104D580094F90810032202F095FF03F071FC036830
:104D68005B69984784B203F06BFC03685B699847FA
:104D780040EA042004B203F063FC03685B699847C7
:104D8800A3B207EE903A9FED067AF8EE677AB9EE8D
:104D9800080A67EE877A9FED037AA7EE870A10BDA7
:104DA8000000FA420000803710B5044603F048FCC2
:104DB80094F9081002F06FFF03F042FC0368F32136
:104DC8009B68984703F03CFC002102F067FF19201C
:104DD80002F002FD03F034FC032294F9081002F0FB
:104DE80051FF03F02DFC03685B69984784B203F018
:104DF80027FC03685B69984740EA042004B203F083
:104E08001FFC03685B699847A0B207EE900AF8EEAA
:104E1800677A17EE900A03F0E5FE10A3D3E90023A2
:104E280003F034FF04F06CF9DFED0B7A07EE100A9B
:104E380067EE277A17EE900A03F0D4FE04A3D3E9AD
:104E4800002303F06FFD04F05BF900EE100A10BDBB
:104E5800CDCCCCCCCC6C474000008037D7A3703D7C
:104E68000AF7654010B5044603F0EAFB94F9081008
:104E780002F011FF03F0E4FB0368FE219B689847EA
:104E880003F0DEFB02F00EFF3220BDE8104002F016
:104E9800A3BC10B5044603F0D3FB94F9081002F044
:104EA800FAFE03F0CDFB0021FFF730FF03F0C8FB4B
:104EB8000F21FFF72BFF03F0C3FB02F0F3FE03F013
:104EC800BFFB082294F9081002F0DCFE03F0B8FBDF
:104ED80003685B699847206003F0B2FB03685B696D
:104EE800984723681B02236003F0AAFB03685B69E9
:104EF800984723681843206003F0A2FB03685B69A6
:104F0800984723681B02236003F09AFB03685B69D8
:104F1800984723681843206003F092FB03685B6995
:104F2800984723681B02236003F08AFB03685B69C8
:104F3800984723681843206003F082FB03685B6985
:104F4800984703F07DFB94F9081002F0A4FE03F0E3
:104F580077FB0021FFF7DAFE03F072FBC921FFF7A8
:104F6800D5FE03F06DFB02F09DFE03F069FB94F99A
:104F78000810082202F086FE03F062FB03685B69F2
:104F88009847606003F05CFB03685B699847636857
:104F98001B02636003F054FB03685B69984763680E
:104FA8001843606003F04CFB03685B6998476368CB
:104FB8001B02636003F044FB03685B6998476368FE
:104FC8001843606003F03CFB03685B6998476368BB
:104FD8001B02636003F034FB03685B6998476368EE
:104FE8001843606003F02CFB0368BDE810405B6960
:104FF800184738B504460D4603F022FB94F908100B
:1050080002F049FE03F01CFB036829469B68984799
:1050180003F016FB002102F041FE03F011FB012210
:1050280094F9081002F02EFE03F00AFB03685B698E
:105038009847C0B238BD10B5044603F001FB02F032
:105048000FFE2046FFF70EFFE7212046FFF7D1FFAE
:105058003A2804D12046FFF71CFF012010BD00208C
:1050680010BD01F037BE01F035BE10B5044603F09F
:1050780075F9204610BD000038B50446154602F003
:10508800E4FA0549204602F0E0FA29462046BDE840
:10509800384002F0EDBA00BF85970D0038B50446D8
:1050A800154602F0D2FA0549204602F0CEFA294602
:1050B80020460A22BDE8384002F037BB85970D002C
:1050C80001F008BE2DE9F04F0D461E464FF0FF33A4
:1050D8008FB00446136000212846174602F04CFAA8
:1050E800D5F8388060B92968B8F1000F02D01FFAE6
:1050F80088F200E050220023204602F0D5FE14E09A
:10510800744B089305F1140CBCE80F000DF1240E44
:10511800AEE80F00DCF800308EF800301FFA88F295
:10512800002308A9204602F0E9FF003018BF01203B
:1051380018B9204603F05FF8C8E01899204602F035
:1051480084FA6549204602F080FAA96A204602F0EE
:105158007CFA6249204602F078FA6149614A2046A1
:10516800FFF78AFF0021284602F006FA20B92A68CC
:105178005D492046FFF780FF05F13C0800214046C5
:1051880002F0FAF908B96A6C05E05849189804F071
:1051980063F8024618B956492046FFF77FFF5EB10B
:1051A800316849B17268204612B1FFF765FF01E026
:1051B80002F05EFA0836F3E7204602F04DFA204680
:1051C80002F044FE0021404602F0D6F918B9E96B16
:1051D800204602F04DFA04F11C084FF480620021C9
:1051E800404604F009F801F0F5FD814601F0F2FDB2
:1051F8000026354641F2883A204603F013F8D8B124
:10520800204602F030FF834601F0E4FD40F2FE3311
:105218009D42814603D8631983F81CB00AE040F226
:10522800FF339D4206D1002384F81B34204602F048
:10523800E2FF01260135DFE76319187701F0CAFD9F
:10524800C9EB000B26B9D34502D8C82002F0C4FA2E
:10525800204602F0FCFD18B1D34501D8002ECBD072
:10526800204602F0C8FF4146684602F046F90C2382
:105278000922694604A802F0A3F91E4908A802F009
:105288003CF908A9684602F098F9044608A802F013
:10529800EDF8631C14D03D1D1749284602F040F96B
:1052A800221D694608A802F0B3F908A9284602F0A9
:1052B8005FF908A802F0DAF8049803F071FF386083
:1052C80004A802F0D3F8684602F0D0F80FB0BDE8A1
:1052D800F08F00BF70980D0081970D00CF960D00DC
:1052E800E1960D00DB960D00EC960D0000970D0081
:1052F800F1960D0005970D0009970D0001F0EABC25
:1053080001F0E8BC10B50446243000F07BFE28B15B
:1053180004F50C70BDE8104000F074BE10BD411ECD
:1053280000F10A020020430843EAC01011F8013FC7
:1053380053FA80F08A42C0B2F5D170472DE9F047A0
:105348000378202B00F1010401D12046F8E7704FC3
:10535800886005462C1A2E4615F8013B0BB32F2BF7
:1053680001D1031917E05C2B02D10020BDE8F087BA
:10537800A3F12204E4B21D2C03D827FA04F4E407AD
:10538800F3D403F0BF043C2CEFD0203B5E2BE1D9D3
:10539800EBE72F2D05D11E4613F8015B202DF8D120
:1053A800F9E7166003199842C0EB030809D013F80F
:1053B800012D2E2AF7D0202AF5D0B8F1FF0FD4DC22
:1053C80001E04FF00008C1F8048001F10C0301F17D
:1053D8001702202403F8014F9342FBD103461A1AFF
:1053E80013F8014B2E2CFAD0202CF8D0B2FA82F404
:1053F800640908F1FF36731C07D100274FF0070E28
:105408003D46BA464FF0080909E0835D2E2BF4D0DB
:10541800013EF0E7835C202B04D100240132424591
:10542800F8DB4BE02E2B02D1B242F6D103E0222B5F
:1054380017D07C2B15D0A3F12A0CBCF1050F01D88D
:105448002D2B0ED1A3F13A0CBCF1050F09D9A3F10C
:105458005B0CBCF1020F04D9A3F1210CBCF15D0F68
:1054680002D9B2420ED149E0B24247D0754521D89F
:10547800A3F1610CBCF1190F08D8203BDBB249EA53
:1054880007070AE0754515D800245F23A3F1410CEE
:10549800BCF1190F98BF49EA0A0A05F1010C5FFA35
:1054A8008CFC0D44BCF1060F6B7301D881F80CC05D
:1054B8006546B3E7BEF10A0F17D100244B7B202BBA
:1054C8003FF453AF3CB11AEA070F18BF02270F7019
:1054D8000120BDE8F0870B7B0120087019447E236A
:1054E8004B7331238B73BDE8F087B242E5DC32465B
:1054F8004FF00A0E08254FF010098EE7BEF10A0F8B
:10550800DBD032464FF00A0E08254FF0100985E728
:10551800010100312DE9F84391F80C9006460D463B
:1055280002247E2701F10D086968AA6863189BB2F6
:105538001144914206D012F8010B03EB4313434088
:105548009BB2F6E7B9F1030F28BF4FF0030909F141
:105558000402D2B203F00F01A818013A0929D2B205
:1055680094BF30313731914541734FEA1313F1D36A
:1055780005EB090300215F73304600F01EFB012193
:10558800304600F0FDFA014628B97078B0FA80F08C
:105598004009BDE8F88303784BB1C37A1B07EED402
:1055A8000B22404603F00EFE0028E8D102E001205D
:1055B800BDE8F8830134A4B2642CB5D1BDE8F88302
:1055C8002DE9F04F9B460B7889B013F0700F0590CA
:1055D8000E46914601D10020A0E1059B1B78002BC7
:1055E800F9D15368029313789B0700F08D81029BD1
:1055F8000D270C33B3FBF7F70137FFB20021304614
:1056080000F0DBFA4FF0000809F10D02CDF80C802C
:10561800434644464546CDF8108006927269079382
:1056280001213046C2F34F1A00F0AAFA079B20B9AD
:105638007378002B00F09080CDE70278E52A00D03F
:1056480042B9002C08BFD046BC423CBF0134E4B28A
:1056580022B981E0BC4238BF002403E0E52A01D129
:105668000025DBE72E2AFBD0C17A0F2952D13DB99C
:105678005106D3D5437B039302F01F052B4607E061
:10568800013BDBB29A42EBD1427B03999142E7D1CD
:105698005A1E4FF00D0C0CFB02FC029A6245DFD932
:1056A8004FF0000EBEF1040F5FFA8EF204D800EB43
:1056B8004E02B2F801200CE00A2A95BF0EF1FF3223
:1056C8000EF1010200EB420200EB420294BFD288C5
:1056D80092880299614503D1002A18BF00259DE7E9
:1056E800FF2ABDD8D2B2A2F141011929D9F8081070
:1056F80011F80C1098BF20320CF1010AA1F1410CED
:1057080098BFD2B2BCF1190F9CBF2031C9B29142E7
:10571800A6D1FBE00907A3D44DB1012B7FF45BAF01
:10572800FFF7FDFD039B83427FF455AF0FE00B228B
:105738000699079303F046FD079B00287FF46EAF98
:1057480099F80020D20702D50122049266E71BF4DB
:10575800006F00F0D1803EE71BF4007F3FF43BAFC1
:105768000BF00303013B012B3FF635AF002C08BFBC
:10577800D046BC4202D3049BCBB91FE0002130467F
:1057880000F0FEF910B973785BB124E70134E4B294
:10579800EFE7B3681B79012BEDD81034E4B2A742C8
:1057A800E9D9304600F0D2F80028F2D113E749468B
:1057B8003046FFF7AFFE00283FF40DAF4FEA48111F
:1057C800304600F0FAF900283FF405AF7D1EEDB22F
:1057D8002C464FF0000A4FF00F0841E000213046F8
:1057E80000F0CEF9074600283FF4F5AEB26892F80B
:1057F8002430AC4243F0010382F824300CBF44F05B
:1058080040022246027080F80B8080F80CA009F153
:105818000D000392FFF783FD039A787387F81AA0A7
:1058280087F81BA002F01F020D23013AD9F808E0FF
:105838005A4300230299914215D91EF80210042BED
:105848005FFA83FC03F1010013D807EB4303A3F8C5
:1058580001100D2802F101020346EBD1013CE4B22C
:10586800002CBBD10EE014BF4FF0FF31002189B2EC
:10587800E5E7BCF10A0F94BF07EB430307EB4003CE
:105888009980E6E7736921463046C3F34F1A00F062
:1058980077F9074600283FF49EAE2022214603F000
:1058A800ABFC4B4653F80D2F3A605A687A601A8958
:1058B8003A819B7ABB7299F8003003F018033B7366
:1058C800184B1B682BB107F10E0107F11000984720
:1058D80006E021233B7428237B740823BC73FB73E5
:1058E8003B8A7B823B83FB89FB82B26892F8243037
:1058F80043F0010382F8243000955B465246314656
:10590800059800F0A3F909E0012777E60EF1010EEA
:10591800BEF10D0F3FF482AED446C3E609B0BDE830
:10592800F08F00BFC4E3032001F0D4B901F0D2B96D
:1059380001F0D0B901F0CEB98378016943F00403CE
:10594800837000F11002806800F012BC2DE9F0416C
:10595800037803F02003044603F0FF050BB100268B
:105968002EE04269184B9A42F9D8FFF7E5FF064640
:105978000028F4D02169A06800F08FFB0746A068D2
:1059880005223946243000F064FB80460028E6D022
:1059980029464FF4007203F02FFC0125A3681A79F9
:1059A800AA4209D94246E919186800F0CFFE002832
:1059B800D5D00135EDB2F1E7636903EB42236361AA
:1059C8003046BDE8F08100BFFFFD1F0010B504465A
:1059D80080680A462430A16900F03BFB20B1A38807
:1059E80003F00F0300EB431010BD70B504780546B3
:1059F8000E4684B92422214603F0FEFBAE60F379FB
:105A0800102B03D0202B06D1402300E020230120B7
:105A18002B70A87070BD002070BD2DE9F74F03787A
:105A28000446894615464BB18278D10706D50CE065
:105A38005A46216900F037FB00283DDA637843F0C5
:105A4800020363704FF0FF3097E01A0703D5E3694C
:105A580062699B1A07E09A0608D5A3681A896369E0
:105A6800C3EB42139BB29D4228BF1D462E464FF002
:105A7800000804F1100B002E35D022786369A06865
:105A880012F0200FC3F3080A4FEA532102D0036A29
:105A980019441DE090F8058001EA0808BAF1000FE2
:105AA80010D1B8F1000F0DD1002BC1D153064CBF56
:105AB800036A236A236105E004D1237813F0700F89
:105AC80011D1BBE72169A06800F0E7FA08EB0001F3
:105AD800A068BAF1000F35D1B6F5007F32D3C36A9A
:105AE800994202D12EE0A81B47E0B6F5806F1BD380
:105AF800227897064FEA562A06D40279C8EB0202A2
:105B0800D2B2924528BF924699424FEA4A2707D215
:105B1800A06853464A46006800F0D6FD60B98DE794
:105B28005344994221D3F3E74A46006800F084FDC4
:105B3800002883D04FF4007763693B44B94463611C
:105B4800F61B98E70022243000F083FA00283FF47F
:105B580075AFCAF50077B74228BF374600EB0A0190
:105B68003A46484603F03DFBE6E72430019100F051
:105B780049FA01990028CBD160E703B0BDE8F08F5E
:105B880037B54369C3F34315044605B169B9012222
:105B98000DF107012046FFF740FF40B2012801D070
:105BA800002008E063691F3300E02033A0686361C8
:105BB800303000EB451003B030BD2DE9F0410E4602
:105BC800017807690446002939D04569B5423AD0B9
:105BD8000EB9066131E00B0703D5C3699E422ED882
:105BE80007E0880605D5A3681B89B6EB431F26D8AE
:105BF80023E0D4F808E09EF806306A1E03F1090095
:105C0800731EC240C3409A4200D84DB94A064CBFE1
:105C1800DEF82020226A22611D4604F110080AE0FD
:105C28009B1AF9E742462169A06800F03CFA00286F
:105C380005F1FF3503DD002DF4D1666103E027612E
:105C48000020BDE8F0810120BDE8F081F8B50F46DD
:105C580015460021242204461E4603F0CDFAB868F2
:105C6800A06005F00F02A58000F1300152013B6AE7
:105C7800E3601144CB7A1D074CD4831893F83B306A
:105C880003F017032370C97A11F0180F04BF43F00B
:105C9800080323709DF81830E37006F00303012B06
:105CA80009D0022B05D0002B34D1710532D4012341
:105CB80002E0032300E00223A370A1788B0703D539
:105CC800237813F0110F25D14BB216F4005F06F0BC
:105CD800080114BF6FF07F07002719433943A170EB
:105CE800C36AA36102447505B2F84410B2F84A3099
:105CF80043EA014104D581B100F075FA68B909E0B9
:105D08002162D36CE36173040CD5E1692046FFF787
:105D180054FF38B900202070F8BDA37843F004037D
:105D2800A370F0E70120F8BD38B5037804460BB935
:105D3800012038BD83785A0723D50121FFF746FE95
:105D4800054628B9637843F001036370002038BD25
:105D58000378E52BF6D023781B0744BFE369C361BA
:105D6800238C4383638C8382094B1B682BB100F11E
:105D78001601183098472B8B6B82A37823F0040305
:105D8800A370A068FFF7BEFA0028DBD0D0E700BFF9
:105D9800C4E3032010B50446FFF7C6FF00232370B1
:105DA80010BDF0B593B01F4600238DF824308DF850
:105DB80025300378019206460C460BB100203DE0E1
:105DC8000B7813F0700FF9D013782F2B12D1019B99
:105DD8001A782F2A02D101330193F8E7A1681AB97A
:105DE8003046FFF702FE29E009A8FFF7FEFD00286C
:105DF800E4D009AC01AA03A90198FFF79FFA00288B
:105E0800DCD0019B1B789BB1002303AA21463046B6
:105E1800FFF7D6FB0028D1D035460FCD09AC0FC40B
:105E28000FCD0FC42B6823603046FFF7B3FFE0E7C0
:105E38003B4603AA21463046FFF7C2FB13B0F0BD2C
:105E48002DE9F0470378894619070446904608D596
:105E580083789A0705D51B070BD5E169FFF7ADFED7
:105E680038B9637843F0010363704FF0FF30BDE841
:105E7800F0876369DB439845F3D846464FF0000A3C
:105E88006369002E00F08180A068427912EA5325E8
:105E9800C3F308071CD1DFB9216971B104F11002FD
:105EA80000F001F90028DCDB40F08E802046FFF787
:105EB80043FD002840F08880D3E7236A3BB9204699
:105EC800FFF73AFD0028CCD02369236200E0236164
:105ED8002169A06800F0E1F8291817B9B6F5007F24
:105EE80021D2C7F50075B54228BF354637B9636971
:105EF800E269934234BF0122052200E00122A06832
:105F0800243000F0A6F80028ABD038442A46494689
:105F18002F4403F066F9B7F5007F30D1A06824302C
:105F280000F070F817E0B6F5806FA06815D3027915
:105F3800521B730AD2B2934228BF1346C26A9142D7
:105F48004FEA432502D31A44914237D3A7684A46F9
:105F5800386800F06DFC90B983E7C36A994202BFC4
:105F68004FF0FF3380F824A0C362A3684A4618683C
:105F780000F0ECFB00283FF474AF4FF40075636940
:105F88002B446361A944761B7AE7E269934201D9FD
:105F9800E36102E00F4B1B681BB1A37843F00403D5
:105FA800A37094F90230002B02DB4046BDE8F0876D
:105FB8002046FFF7B9FE0028F7D152E74FF0FF322D
:105FC80080F824A0C262C1E72169A06800F065F8E2
:105FD800014683E7C4E3032000F07CBE70B50546A4
:105FE8000C46084649B103F049F92B680246214698
:105FF8002846DB68BDE87040184770BD00F06ABEEF
:1060080000F068BE70B50378DA0704461ED5436809
:10601800816800F10C063246186800F097FB0546C7
:1060280008B9002513E023789B0704D4237823F0CC
:10603800010323700BE06368A068196932460144C4
:10604800186800F083FB0028F0D1EAE7012528460C
:1060580070BD70B583688B4204460E46154614D051
:10606800FFF7D0FF08B9002070BD6B0703D50023E8
:106078002370A66009E0636804F10C0231461868D1
:1060880000F0DAFA0028F2D1EDE72378204605F08F
:1060980003051D4300F80C5B70BD83794069023924
:1060A800994008447047012970B505460C461646C4
:1060B80002D84FF0FF3070BDC3699942F9D8C3794F
:1060C800202B10D18169022201EBD41100F50C704C
:1060D800FFF7BFFF0028ECD004F07F0450F824300D
:1060E80023F070430FE0102BE3D18369C1F307213C
:1060F8000222194400F50C70FFF7ABFF0028D8D036
:10610800E4B230F81430EA6993429ABF3360012050
:10611800002070BD012938B50C46154601D800206D
:1061280038BDC3699942FAD8C379202B0ED1816949
:10613800032201EBD41100F50C70FFF78AFF002849
:10614800EDD004F07F0440F824500FE0102BE6D186
:106158008369C1F307210322194400F50C70FFF786
:1061680078FF0028DBD0E4B220F81450012038BDB5
:106178002DE9F341C4688C4205460E46904607D285
:106188000C460027EB6901349C4203D9CFB9EC686F
:106198000127F7E7A64214D001AA21462846FFF7AF
:1061A80082FF00280DDBEDD0019B002BEAD107B15F
:1061B800EC606FF0704221462846FFF7ABFF0746B8
:1061C80008B900270BE016B9C8F8004007E02246D6
:1061D80031462846FFF79EFF0028F5D1F1E73846FB
:1061E80002B0BDE8F08173B505460C4601AA214608
:1061F8002846FFF758FF061E01DA00200FE00022AC
:1062080021462846FFF786FF0028F6D0EB689C4217
:106218009CBF04F1FF34EC60019C002EE6D102B073
:1062280070BD70B5012304460022C3604FF0FF33F0
:10623800C2710D46A06280F82420C362C4F83402FB
:1062480080F83022C0F83832A1B104295DD811464F
:106258002430FFF7FEFE002857D000EB051393F813
:10626800AE315B0651D11B3500EB0515D5F806504C
:10627800002D4AD00022294604F12400FFF7E9FE48
:10628800002842D0B0F80B30B3F5007F3DD1037C35
:10629800022B3AD1C389002B37D0417B21714B1E89
:1062A80063710023A371092601238B4207D0013EA5
:1062B8002BD0A2795B000132DBB2A271F5E7C28A6A
:1062C80002B9426A2261C6892E44A661B0F811302B
:1062D800238106EB42012162B0F81120520102F23B
:1062E800FF1201EB62226261B0F8133003B9036A4E
:1062F800AD1A2B44A57923FA05F56B1CE36140F62A
:10630800F4739D4203D80C23E371002070BD4FF64F
:10631800F4739D4285BFC36A236210232023E3716F
:10632800012070BD00F0D6BC00F0D4BC00F0D2BC97
:1063380070B50E4C0E46154600F044FD2368C01A91
:106348000B4B984208D900F045FD0A4B186000F045
:106358003DFF00F037FD206000F03CFD80B2801B5F
:10636800A842D4BF0020012070BD00BFC8E30320AD
:10637800A086010034E7032038B5057A04464DB9F4
:10638800406800F07DFA63682946187D02F01BF921
:106398000123237238BD10B5037A04466BB14368F4
:1063A8000121187D02F00FF9FF21606800F09AFAC8
:1063B800606800F079FA0023237210BDF8B504462E
:1063C8000D46164600F006FD87B2606800F06FFAC9
:1063D800FF28607209D14FF47A7239462046FFF7D8
:1063E800A7FF0028F1D055230BE0FE2801D0502349
:1063F80007E032462946606800F05EFA607230B104
:10640800602320462370FFF7C6FF0020F8BD6068B0
:1064180000F04DFA606800F04AFA0120F8BD70B546
:1064280004460E4600F0D6FC85B232462946204680
:10643800FFF77EFF30B9606800F039FAFF28F4D121
:10644800012070BD002070BDF7B5037A01920446A3
:106458000D460BB9FFF790FF25B14FF49671204612
:10646800FFF7DDFF45F04001606800F03BFA0DF1F1
:1064780007060DF1030716F80119606800F032FAF3
:10648800BE42F8D1002D0CBF95218721606800F02D
:1064980029FA606800F00BFA0B25606800F007FA2B
:1064A8000306607203D5013D15F0FF05F5D103B071
:1064B800F0BD70B504460D46164637210022FFF799
:1064C800C3FF324629462046BDE87040FFF7BCBFEF
:1064D8002DE9F0410025057205708572416004467A
:1064E80090461E4600F076FC41460746606800F07C
:1064F800CBF963684F4A1D724FF00108DA605D748A
:1065080083F810802046FFF737FF63684146187DFF
:1065180002F059F80A25FF216068013D00F0E2F910
:1065280015F0FF05F7D163682946187D02F04BF88E
:106538000A25002211462046FFF786FF01288046DB
:1065480012D0013D15F0FF0501D1202357E0FD21B0
:10655800606800F0C7F94FF40278606800F0A7F9A6
:10656800B8F10108F9D1E4E74FF4D57208212046C3
:10657800FFF76AFF052802D184F80A800FE0042596
:10658800606800F094F9013D15F0FF056072F7D1DD
:10659800AA2802D10223A37201E025232FE0A37ABF
:1065A800022B0CBF4FF080450025BFB22A46292197
:1065B8002046FFF77EFF024648B14FF4FA6239469B
:1065C8002046FFF7B5FE0028F0D0432317E0A37A52
:1065D800022B0ED02046FFF7DEFE6368B0683479E0
:1065E800317B727B5A74D8601C7219740120BDE823
:1065F800F0813A212046FFF727FF38B1372320469C
:106608002370FFF7C8FE0020BDE8F081606800F045
:106618004EF900F0C000C02804BF0323A3726068CD
:1066280000F045F9606800F042F9606800F03FF951
:10663800D0E700BF90D0030038B5837A032B18BF8A
:10664800490215460A4611210446FFF7FDFE10B11E
:10665800302323700BE029464FF400722046FFF7E1
:10666800ADFE054618B12046FFF795FE03E020462B
:10667800FFF791FE0025284638BD10B5837A032B15
:106688000A4618BF4A0212210446FFF7DDFE30B160
:10669800312320462370FFF77EFE002010BD012025
:1066A80010BD10B500220C210446FFF7CDFE30B115
:1066B800282320462370FFF76EFE002010BD2046D9
:1066C800FFF769FE012010BDF8B5054616461F46BE
:1066D800FFF7D3FF98B10024A3B29F4206EB4421F1
:1066E80008D94FF400722846FFF768FE01340028E5
:1066F800F2D104E02846BDE8F840FFF7D2BF0020F9
:10670800F8BD38B504461546406800F0EBF84FF47C
:1067180000722946606800F0E9F8FF21606800F01F
:10672800E1F8FF21606800F0DDF8606800F0BFF86C
:10673800607200F01F00052806D0572320462370FA
:10674800FFF729FE002038BD012038BD70B5837AD7
:10675800032B18BF490215460A4618210446FFF7BD
:1067680073FE064608B132231DE02A46FE21204664
:10677800FFF7C7FFC0B14FF4FA612046FFF74FFE9D
:10678800054608B95A230EE032460D212046FFF788
:106798005BFE38B9606800F08AF818B92046FFF740
:1067A800FAFD05E0292323702046FFF7F4FD0025B4
:1067B800284670BD38B50D464FF4FA610446FFF718
:1067C8002EFE10B95B23237005E02A46FC212046E3
:1067D800FFF797FF18B92046FFF7DDFD002038BD09
:1067E80010B5837A032B0A4618BF4A0219210446BA
:1067F800FFF72AFE30B1332320462370FFF7CBFD85
:10680800002010BD012010BD38B54FF4FA610446D0
:10681800FFF705FE054620B1FD21606800F062F82B
:1068280001E0562323702046FFF7B5FD284638BD02
:10683800F8B5054616461F46FFF7D2FF70B100248B
:10684800BC4206EB4421284604D0FFF7B3FF28B129
:106858000134F5E7BDE8F840FFF7D6BF2846FFF753
:106868009AFD0020F8BD00F035BA00F033BA00F008
:1068780031BA0000014B01221A707047CCE30320A3
:10688800011D006800F05ABD10B504460175006886
:1068980000F036FD207D012101F084FE207D0121DC
:1068A800BDE8104001F08FBE006800F02EBDFF214A
:1068B800006800F0B3BD000037B5084B0093002511
:1068C800074C0068257013460A46294600F0ACFDBF
:1068D8002378002BFCD0002003B030BD7D680D006C
:1068E800CCE30320006800F099BD000037B5074BE2
:1068F80000930025064C0068257013462A4600F0D0
:1069080093FD2378002BFCD003B030BD7D680D00CB
:10691800CCE3032000F0DEB9B0F5FA6F30B528BF3C
:10692800A0F5FA60104D28BF80B292B2002301335F
:10693800DCB2A14205D9EC1814F8014C224492B2F9
:10694800F5E7022903D9830704BF013292B200EBAD
:10695800C003C11C00EBC30000EB8000431E03EB27
:10696800A100104480B230BD0A970D0038B50C461E
:10697800054601F065FE682101F089F901F060FE25
:10698800036829469B68984701F05AFE0368214628
:106998009B68984701F054FEBDE8384001F082B981
:1069A80010B5044601F04CFE682101F070F901F0C1
:1069B80047FE036821469B68984701F041FE01F0B5
:1069C80071F901F03DFE0122682101F058F901F04A
:1069D80037FE03685B699847C0B210BD234B3C2261
:1069E8000B4430B5B3FBF2F402FB14314171B4FB34
:1069F800F2F102FB1142182402714FF46162B3FBF9
:106A0800F2F2B2FBF4F104FB1122C270184AB3FB94
:106A1800F2F300229BB20270017811F003040CBF5C
:106A28000122002202F5B6759D4207DAC2F57E42C0
:106A38009332134401319BB20170EDE701220D4DF1
:106A4800427041786A1812F8012C1CB9022904BF57
:106A58000132D2B292B2934204D39B1A01319BB253
:106A68004170EEE70133837030BD00BF80BC92C730
:106A7800805101000A970D00B1F5FA6F83709DF8F7
:106A88000030C37028BFA1F5FA619DF80430037186
:106A980028BF89B29DF80830017042704371704771
:106AA80010B50446827841780078FFF735FFE27820
:106AB800182303FB002023793C2202FB0030637972
:106AC80002FB00330148184410BD00BF80436D38F5
:106AD80008B501F0B5FD01F0C3F8012008BD08B5FF
:106AE8000F20FFF75DFFC0F3C01008BD38B505469D
:106AF80001F0A6FD682101F0CEF801F0A1FD0368C0
:106B080000219B68984701F09BFD6B790A24B3FB31
:106B1800F4F101EB410103EB41010368C9B29B6841
:106B2800984701F08DFD2B79B3FBF4F101EB41019E
:106B380003EB41010368C9B29B68984701F080FDE7
:106B4800EB78B3FBF4F101EB410103EB410103687E
:106B5800C9B29B68984701F073FD036800219B68E0
:106B6800984701F06DFDAB78B3FBF4F101EB4101FF
:106B780003EB41010368C9B29B68984701F060FDC7
:106B88006B78B3FBF4F101EB410103EB41010368BE
:106B9800C9B29B68984701F053FD29780368B1FB97
:106BA800F4F404EB440401EB44019B68C9B2984730
:106BB80001F046FD01F076F80F20FFF7F1FEBDE881
:106BC800384000F07F010F20FFF7D0BE2DE9F843D1
:106BD800044601F035FD682101F05DF801F030FD53
:106BE800036800219B68984701F02AFD01F05AF8D4
:106BF80001F026FD0722682101F044F801F020FD8C
:106C080003685B69984700F07F000511A5EB8505CF
:106C180000EB4500C5B201F013FD03685B699847B6
:106C2800C0F30316A6EB860600EB4600C6B201F0D9
:106C380007FD03685B699847C0F30317A7EB87074D
:106C480000EB4700C7B201F0FBFC03685B6998479B
:106C580001F0F6FC03685B699847C0F30318A8EBDA
:106C6800880800EB48005FFA80F801F0E9FC036847
:106C78005B699847C0F30319A9EB890900EB490040
:106C88005FFA80F901F0DCFC03685B699847C0F3A0
:106C98000313A3EB830300EB4300207084F80190F7
:106CA80084F80280E770267165712046BDE8F88394
:106CB80000F010B808B5024B1B689B68019308BD2B
:106CC8006802030008B5024B1B68DB68019308BD26
:106CD8006802030008B5024B1B681B68019308BDD6
:106CE8002C02030008B5024B1B689B68019308BD82
:106CF8002C02030008B5024B1B68DB68019308BD32
:106D08002C02030008B5024B1B681B69019308BDE0
:106D18002C02030008B5024B1B68DB6C019308BD0D
:106D28002C02030008B5024B1B681B68019308BDC1
:106D38003002030008B5024B1B685B69019308BD6C
:106D48003002030008B5024B1B68DB69019308BDDC
:106D58003002030008B5024B1B681B6A019308BD8B
:106D68003002030008B5024B1B685B6A019308BD3B
:106D78003002030008B5024B1B689B6A019308BDEB
:106D88003002030008B5024B1B689B6B019308BDDA
:106D98003002030008B5024B1B68DB6B019308BD8A
:106DA8003002030008B5024B1B685B69019308BDFC
:106DB8006C02030008B5024B1B685B68019308BDB1
:106DC8001802030008B5024B1B681B69019308BD34
:106DD8001802030008B5024B1B685B69019308BDE4
:106DE8001802030008B5024B1B689B68019308BD95
:106DF8004802030008B5024B1B681B69019308BDD4
:106E08004802030008B5024B1B685B69019308BD83
:106E18004802030008B5024B1B681B6B019308BDB1
:106E28004802030008B5024B1B689B6B019308BD21
:106E38004802030008B5024B1B681B6C019308BD90
:106E48004802030008B5024B1B685B6C019308BD40
:106E58004802030008B5024B1B685B69019308BD33
:106E68006402030008B5024B1B681B6A019308BD46
:106E78006402030008B5024B1B689B6A019308BDB6
:106E88006402030008B5024B1B681B68019308BD28
:106E98003C02030008B5024B1B689B68019308BDC0
:106EA8003C02030008B5024B1B68DB68019308BD70
:106EB8003C02030008B5024B1B681B69019308BD1F
:106EC8003C02030008B5024B1B685B69019308BDCF
:106ED8003C02030008B5024B1B689B69019308BD7F
:106EE8003C02030008B5024B1B68DB69019308BD2F
:106EF8003C02030008B5024B1B681B6A019308BDDE
:106F08003C02030008B5024B1B689B6A019308BD4D
:106F18003C02030008B5024B1B68DB6A019308BDFD
:106F28003C02030008B5024B1B68DB68019308BDEF
:106F38002802030008B5024B1B685B69019308BD72
:106F48002802030008B5024B1B689B69019308BD22
:106F58002802030008B5024B1B68DB69019308BDD2
:106F68002802030008B5024B1B681B6A019308BD81
:106F78002802030008B5024B1B685B6A019308BD31
:106F88002802030008B5024B1B689B6A019308BDE1
:106F98002802030008B5024B1B68DB6A019308BD91
:106FA8002802030008B5024B1B681B6B019308BD40
:106FB8002802030008B5024B1B685B6B019308BDF0
:106FC8002802030008B5024B1B681B6C019308BD1F
:106FD8002802030008B5024B1B689B69019308BD92
:106FE8003802030008B5024B1B68DB69019308BD32
:106FF8003802030008B5024B1B681B6A019308BDE1
:107008003802030008B5024B1B689B6A019308BD50
:107018003802030008B5024B1B681B6B019308BDBF
:107028003802030008B5024B1B689B6B019308BD2F
:107038003802030008B5024B1B681B68019308BDA2
:107048004C02030008B5024B1B685B68019308BD3E
:107058004C02030008B5024B1B681B69019308BD6D
:107068004C02030008B5024B1B685B69019308BD1D
:107078004C02030008B5024B1B689B69019308BDCD
:107088004C02030008B5024B1B68DB69019308BD7D
:107098004C02030008B5024B1B681B6A019308BD2C
:1070A8004C02030008B5024B1B685B6A019308BDDC
:1070B8004C02030008B5024B1B681B6D019308BD09
:1070C8006002030008B5024B1B685B68019308BDAA
:1070D8002002030008B5024B1B685B69019308BDD9
:1070E8002002030008B5024B1B68DB6A019308BD48
:1070F8002002030008B5034B1B68D3F888300193BE
:1071080008BD00002002030008B5034B1B68D3F834
:107118009430019308BD00002002030008B5024B1B
:107128001B685B68019308BD4002030008B5024B69
:107138001B689B68019308BD4002030008B5024B19
:107148001B68DB68019308BD4002030008B5024BC9
:107158001B681B69019308BD4002030008B5024B78
:107168001B685B69019308BD4002030008B5024B28
:107178001B689B69019308BD4002030008B5024BD8
:107188001B68DB69019308BD4002030008B5024B88
:107198001B681B6A019308BD4002030008B5024B37
:1071A8001B689B6A019308BD4002030008B5024BA7
:1071B8001B681B6B019308BD4002030008B5024B16
:1071C8001B685B6B019308BD4002030008B5024BC6
:1071D8001B689B68019308BD4402030008B5024B75
:1071E8001B68DB6B019308BD4402030008B5024B22
:1071F8001B681B68019308BD1C02030008B5024BFD
:107208001B685B68019308BD1C02030008B5024BAC
:107218001B689B68019308BD1C02030008B5024B5C
:107228001B68DB69019308BD1C02030008B5024B0B
:107238001B685B6A019308BD1C02030008B5024B7A
:107248001B68DB6B019308BD1C020300002211467A
:107258004068FFF79BBF002211464068FFF7AEBFAA
:1072680000224068FFF7A2BF002281F001014068B8
:10727800FFF784BF00231A4619464068FFF776BF18
:1072880000231A4619464068FFF768BF00221146D6
:107298004068FFF75BBF002211464068FFF746BF12
:1072A800002202214068FFF749BF00231A464068C0
:1072B800FFF734BF024B03225A60024A1A60704734
:1072C800D0E3032020970D00704710B50446FCF763
:1072D800E0FE204610BD000070B5084B0360044670
:1072E80000250E4640F80C5FFFF794FD30462671E6
:1072F800FFF728FDA560204670BD00BF54970D001C
:107308004FF6FF710079FFF70DBDC068FFF792BD1A
:10731800400830B51860002418688842E5B206D9DC
:107328000134082C02D040081860F5E70725024B05
:107338005B5D137030BD00BF5C970D002DE9F04315
:1073480080468FB0C0680F46FFF76CFD98F8044080
:107358001422002109A801F04FFF0B232046002228
:1073680009A9ADF82430FFF7FDFC9DF82D404CB17C
:107378009DF82C502DB90C9E9DF834909DF8354001
:1073880003E00024A146264601253B790DB1002BD8
:1073980040D19D420BD1BA68B24208D18DF82090F5
:1073A8008DF82140BDF82010BA89914232D023BB14
:1073B8008DF80F300DF10F0204ABB9680A98FFF78A
:1073C800A7FF3B7905B113BBAB4209D000213B7B3A
:1073D80001917C7B9DF80F2098F80400009413E03D
:1073E800BB68B342F2D38DF820908DF82140BDF8E8
:1073F8002020BB899A42E9D109E0002398F80400CB
:10740800019300931A460121FFF7C4FC02E0049B94
:10741800B342DBD100200FB0BDE8F08308B5007996
:10742800FFF788FCC0B208BD30B587B004460A9D96
:1074380000790095FFF79EFC3DB902A92079FFF776
:10744800A1FC9DF81430DB07F7D407B030BD0079F4
:10745800FFF780BC044B00204FF6FF72187058806D
:107468009A80FFF72FBE00BFD8E3032010B504466B
:107478000068FFF7C3FE204610BD10B5044600683B
:1074880008B1FFF7BBFE00232360A360636010BD53
:1074980038B504460D4600680131FFF7B7FE10B154
:1074A80084E82100012038BD10B50368044613B1F3
:1074B80043688B4207D22046FFF7EAFF20B1A36852
:1074C8000BB922681370012010BD70B50E46114625
:1074D80004461546FFF7E8FF18B92046FFF7CDFF29
:1074E80009E02A463146A560206801F07AFE226844
:1074F800A3680021D154204670BD38B50023044646
:1075080003604360836003730D4639B1084601F098
:10751800B5FE294602462046FFF7D7FF204638BD6C
:1075280038B505460C4641B1084601F0A7FE21468C
:1075380002462846FFF7C9FF01E0FFF79EFF2846ED
:1075480038BD70B504460E4609B9002070BD6AB151
:107558008368D5182946FFF7A7FF0028F5D02068CB
:10756800A3683146184401F081FEA560012070BD72
:107578008A680968FFF7E5BF08B582680B4612B943
:1075880019B9012008BD11B90368187802E000682C
:1075980001F062FEB0FA80F0400908BD10B58368BA
:1075A800934207D904680968A01801F06FFE08B172
:1075B800001B10BD4FF0FF3010BD0022FFF7EEBFDB
:1075C8002DE9F0419A420E461C46104988BF1346E1
:1075D8001546074684BF25461C46FFF78EFFB1684F
:1075E8008D420FD88C4228BF0C463368002213F80E
:1075F80004801A55316838462944FFF791FF3368EB
:1076080003F804803846BDE8F08100BF09970D00F3
:1076180010B504468B68FFF7D3FF204610BDF8B5B8
:1076280006460D468F180024BD420CD0336815F865
:10763800011B9B6830469847002801DB0444F3E7A8
:10764800002C08BF04462046F8BD08B5FEF7C6FC66
:1076580008BD03689B68184738B50D210546FFF734
:10766800F8FF0A2104462846FFF7F3FF204438BDF7
:1076780038B50546FEF7B2FC04462846FFF7ECFF8E
:10768800204438BD30B58BB00B4600218DF824104E
:10769800012A98BF0A220DF12304B3FBF2F505FB7A
:1076A800123303F0FF03092B94BF30333733DBB2B7
:1076B800214604F801392B46002DEED1FEF78EFC49
:1076C8000BB030BD10B42AB903685DF8044B9B6851
:1076D800C9B21847D2B25DF8044BFFF7D3BFFFF722
:1076E800F1BF2DE9F04107460E4615462AB9036851
:1076F800C9B29B68BDE8F04118470A2A02D100299F
:1077080001DA04E0D2B2BDE8F041FFF7BBBF2D219A
:10771800FFF79FFF2A46044671423846FFF7B2FF3B
:107728002044BDE8F081FFF7DCBF38B50546FFF718
:10773800D8FF04462846FFF78FFF204438BD0CB415
:107748002DE9F04387B000AF07F13804054654F837
:10775800049B3C600E4623464A461421381DFFF719
:1077680065FD132805D8391D2846FEF737FC044661
:1077780013E000F1080323F00703E846ADEB030D1F
:10778800411C23464A4668463C60FFF74FFD694660
:107798002846FEF723FC0446C5461EB12846FFF7D7
:1077A8005BFF044420461C37BD46BDE8F04302B0E9
:1077B80070470000014B024A1A607047E0E303205B
:1077C80014980D00024B1A68024B1A60704700BFEC
:1077D800E8D10320E4E303200021FFF77BBC10B5C8
:1077E8008368044613B1032201469847204610BD1A
:1077F80010B50446FFF7F3FF204610BD0348044ABE
:1078080004490023836000F03BBF00BFE8E3032086
:1078180054D20320F9770D0008B50C4B33B100F0B2
:107828004BF903681B699847002809DC084B63B1CA
:1078380000F0B2F903681B699847002803DC08BD0B
:10784800AFF30080F2E7AFF3008008BD000000004E
:107858000000000008B5FFF7DFFFFFF7BBFA014B98
:10786800186008BD34E7032007B5002300931A46C3
:107878006FF07701FFF748FC03B05DF804FB0000E8
:1078880007B543880A2B08D0502B09D1094B1B6830
:107898003BB103B05DF804EB1847FFF7E5FF06E0DE
:1078A800002300931A466FF07701FFF72DFC03B011
:1078B8005DF804FBF8E3032010B5FFF77BFA0446F4
:1078C80001F0A2FC074B13B12046AFF30080002162
:1078D8000448FFF783FC00210348BDE81040FFF788
:1078E80009BC00BF0000000089780D00704710B582
:1078F8000446FCF7CEFB204610BDF0B5037D062BF1
:107908008DB00E4600F104074FF0000402D000F1DC
:10791800080518E00CAD394605F8304D2F232A46E6
:107928000A20FFF797FA284601F0A8FC33680246B8
:10793800DB682946304698470FE024B12E213046AF
:10794800FFF787FE044415F8011D0A223046FFF7A9
:10795800C6FEBD420444F0D120460DB0F0BD000083
:1079680010B5054B0446112240F8043B002101F0F4
:1079780043FC204610BD00BF70980D000346074A1F
:1079880010B543F8042B01F1100251F8044B43F8E9
:10799800044B9142F9D10A781A7010BD70980D0005
:1079A800037D042B01D1406808E0062B0AD1436807
:1079B80053B1836843B1C36833B10069003018BF5D
:1079C80001207047002070471846704710B59DF891
:1079D800084044EA032343EA024242EA01610423DD
:1079E8004160037510BD000037B5044D05609DF872
:1079F80018500095FFF7EAFF03B030BD70980D00EE
:107A080037B50D788B784A78C97800912946FFF701
:107A1800DDFF03B030BD4174704770470021007C22
:107A2800FFF728BB0121007CFFF724BB007CFFF790
:107A380019BB007CFFF70EBB38B50446007C0D4629
:107A4800FFF710FB002801DC607C20B12946207C70
:107A5800FFF718FB012038BD007CFFF71BBB10B5F2
:107A68000446FCF716FB204610BD000010B504467E
:107A7800002363604FF47A73A360054B23600123EE
:107A88000846217463741146FFF7D4FA204610BDE6
:107A980084980D000022007CFFF7D4BA007CFFF721
:107AA80001BBFFF7FBBF10B514220446002101F00B
:107AB800A3FB204610BD000030B50E4D87B001A8CD
:107AC800FFF7F1FF296811F0010410D12846FCF7EF
:107AD800E4FA60B101AA21460748FFF7C7FF284624
:107AE800FCF7E0FA054A0649034800F0C9FD0248D8
:107AF80007B030BDFCE3032000E4032054D2032088
:107B0800237A0D00704741747047007CFFF7FAB97B
:107B1800007CFFF7CFB9007CFFF7DCB9007CFFF7EA
:107B2800D1B9007CFFF7DEB910B50446FCF7B1FA0D
:107B3800204610BD70B5457C04460E4625B9007C2C
:107B4800FFF7E0F9002805DD3146207CBDE87040EC
:107B5800FFF7A8B9284670BD10B504460846114677
:107B6800002262604FF47A72A260054A2260012204
:107B7800207462741A46FFF785F9204610BD00BFCD
:107B8800B4980D000023007CFFF7C4B9007CFFF710
:107B980081B9007CFFF7AEB938B50C4D296811F0F2
:107BA800010411D12846FCF778FA68B1084A094B54
:107BB80009482146FFF7D0FF2846FCF773FA074A21
:107BC8000749054800F05CFD034838BDACE40320D4
:107BD800B0E4032028E4032014E4032054D2032053
:107BE8000D7B0D007047F8B5064615460C468F18F4
:107BF800BC4206D0336814F8011B9B68304698478E
:107C0800F6E72846F8BD0022007CFFF7ABB9002153
:107C1800007CFFF7AFB90021007CFFF7B3B9002162
:107C2800007CFFF7B7B90021007CFFF7BBB910B59E
:107C38000446FCF72EFA204610BD000010B5044695
:107C48004FF47A730846A3600021044B20746160E6
:107C58002360FFF7B7F9204610BD00BFE4980D0078
:107C680000231A461946007CFFF75CB913B50024B7
:107C7800007C0094FFF75EF9C0B202B010BD01238A
:107C8800FFF7F4BF0123D2B2C9B2FFF7EFBF00225A
:107C9800007CFFF757B9C9B2FFF7F9BF0022007C93
:107CA800FFF758B90121FFF7F9BF0021007CFFF762
:107CB80081B9002211464068FFF768BA00221146D0
:107CC8004068FFF77BBA00224068FFF76FBA0022CE
:107CD80081F001014068FFF751BA00231A4619469E
:107CE8004068FFF743BA00231A4619464068FFF771
:107CF80035BA002211464068FFF728BA002211461B
:107D08004068FFF713BA002202214068FFF716BA4D
:107D180000231A464068FFF701BA38B5054678B11E
:107D2800046844B1A3681BB1032221462046984742
:107D38002046FCF7AEF92846BDE83840FCF7A9B95B
:107D480038BD10B103685B681847704710B5036801
:107D58000446BBB15868FFF745F878B923685A7CE0
:107D680012B95868FFF746F823685868FFF74AF8C9
:107D780020680023236028B1FFF7CFFF206808B1EF
:107D8800FFF7CBFF204610BD38B50B4B0360044608
:107D9800D0F8CC0108B1FCF77EF9D4F8C4512DB164
:107DA8002846FFF7D3FF2846FCF773F9A06808B107
:107DB800FFF7C7FF204638BD0C990D0038B50D4CAC
:107DC8000D4B23600025022304F5E4706360A56071
:107DD800C4F8C451C4F8C851FFF734F8074BC4F8C5
:107DE800CC5123602046064A0649BDE8384000F0D9
:107DF80047BC00BF34E50320F4990D000C990D0031
:107E080054D20320917D0D0037B502AC036804F805
:107E1800011DDD6B01224FF0FF332146A84703B057
:107E280030BD10B40368DC6B4FF0FF33A4465DF837
:107E3800044B604737B502AC036804F8011DDD6BDD
:107E4800214613460122A84703B030BD704738B514
:107E580043691A68002A044605DAB3F88620B3F89D
:107E680084309A4201D001250BE003681B699847CA
:107E7800002814BF0125002503D123682046DB6AAA
:107E88009847284638BD43691868C043C00F7047F3
:107E980070470020704710B50446FCF7FAF82046F2
:107EA80010BDFCF7F6B800002DE9F04398460368CA
:107EB80093B0DB6A0C4606461746984712AB002576
:107EC80043F8485D2A4629462046FEF7FBFE00286F
:107ED8003ADB009B002B39D05B69002B36D006A813
:107EE800FFF73EFD009B5C696378022B01D1211DE1
:107EF80013E00A2B14D11122294601A801F07CF9BC
:107F0800A36833BBE36823BB4FF6FF702569FEF710
:107F1800A9FF85421DD104F1140106A8FFF770FDE1
:107F280006A8FFF73DFD88B1336807ADD3F8209068
:107F3800184B0C930FCD0DAC0FC42B6823703A4629
:107F480043460CA93046C84704461CE04FF0FF34AE
:107F580019E004F1080301AD1834186859682A4675
:107F680003C20833A3421546F7D1062301A90CA87A
:107F78000DAD8DF81430FFF701FD0FCD07AC0FC420
:107F88002B682370CCE70098FEF794FE204613B0C8
:107F9800BDE8F08370980D007FB516460022426058
:107FA800029203925A1C04460D4608D04FF47A7286
:107FB800B3FBF2F1029102FB11314A43039260696B
:107FC8000823009341F205026B4440F6FF710068F4
:107FD800FFF700F8002808DB6069002332462946CD
:107FE8000068FFF717F8002804DAFFF727F9036895
:107FF8006360002004B070BD10B5036804469B6838
:108008009847A368013BA3602BB923682046DB6827
:10801800BDE81040184710BD70B504464D69054BC2
:1080280044F8043B8C3506460FCD0FC42B682370EB
:10803800304670BD70980D0010B54369B3F88620BE
:10804800B3F884309A42044605D06269B2F88430A5
:108058001344187910BD03681B6998470028F4D1A8
:108068004FF0FF3010BD10B54369B3F88620B3F860
:1080780084309A42044608D06269B2F88430591CA8
:108088001344A2F88410187910BD03681B69984737
:108098000028F1D14FF0FF3010BDF8B543691746FD
:1080A800B3F88620B3F884309A4205460E4606D1C6
:1080B80003681B69984710B94FF0FF3414E06969E9
:1080C800B1F88430B1F88640E41ABC4228BF3C4677
:1080D800194422460431304601F083F86A69B2F83F
:1080E80084302344A2F884302046F8BD4269002336
:1080F800A2F884304269A2F8863070472DE9F04131
:10810800984603680D468AB0DB6A064617469847C4
:108118002B7D7469042B0CBF02200A200622012142
:10812800FEF780FF206073691C68002C5BDB30461B
:10813800FFF7DCFFB8F1000F17D0002303A95FFA9F
:1081480088F00393ADF81030FEF72CFE002849DBC9
:1081580070690623009341F20B0203AB40F6FF71EE
:108168000068FEF737FF00283CDB1C24224600216C
:1081780003A801F041F82B7D8DF80C40042B0CD19D
:10818800022338468DF80D30FEF774FEADF80E0068
:108198006868FEF767FE049013E00A2338468DF8F6
:1081A8000D30FEF767FE05ACADF80E002B1D05F18E
:1081B800140718685968224603C20833BB4214469C
:1081C800F7D173691C2203A91868FEF713FF00286A
:1081D80008DB2C1D0FCC76698C360FC623683370EC
:1081E800012404E0044633683046DB6A9847204699
:1081F8000AB0BDE8F08110B5436904461868002844
:1082080001DBFEF7EFFE63694FF0FF321A60606929
:10821800112200218C3000F0EFFF2046BDE810400D
:10822800FFF764BF30B54269B2F886308BB00446B8
:108238001BB1B2F884209A4240D0636918680028BC
:108248003FDBB3F886507F2D3BD8191DC5F180025E
:1082580008232944FEF7D6FE00280CDD6369B3F82D
:1082680086200AB9A3F884206269B2F886301844D7
:10827800A2F8860025E0FEF7E1FF03680B2B20D06B
:10828800FEF7DCFF03680B2B1BD02023002502938D
:108298000395FEF7D3FF036801930E4B009302AAE0
:1082A8002B460D493220FEF705FF63691868FEF773
:1082B80099FE63694FF0FF321A6002E0FFF716FF7C
:1082C800BBE76269B2F88630B2F88400181A0BB0BE
:1082D80030BD00BFA7990D00A0990D0010B500236F
:1082E80004460160A0F88430A0F886308830FFF793
:1082F80037FB204610BD00004FF47A7270B500239A
:108308008260144A43600260436183610446A0208E
:108318000E46FBF7BCFE054610B13146FFF7DEFFFF
:108328001420FBF7B4FE034628B1012242608260A4
:10833800094A02600561A0696561A36128B14368C3
:10834800013B43600BB9FFF757FE2046FFF7CEFE0F
:10835800204670BD5C990D0040990D0010B54FF096
:10836800FF310446FFF7C8FF204610BD10B504468C
:108378000068002801DBFEF735FE204610BD10B569
:1083880004692046FFF7F2FF24B12046BDE81040FB
:10839800FBF77FBE10BD002211464068FEF7D6BE2F
:1083A800002211464068FEF7F1BE002211464068DF
:1083B800FEF704BF00224068FEF7F8BE002281F0F5
:1083C80001014068FEF7DABE00231A4619464068E4
:1083D800FEF7CCBE00231A4619464068FEF7BEBE1B
:1083E800002211464068FEF7A1BE00220221406823
:1083F800FEF7A4BE00231A464068FEF78FBE0000B1
:10840800024B04225A60024A1A60704704E70320AC
:10841800C0990D0000231A464068FEF77FBE00226F
:1084280002214068FEF78ABE002211464068FEF726
:108438007DBE002211464068FEF788BE00231A461A
:1084480019464068FEF78ABE00231A461946406856
:10845800FEF78CBE002281F001014068FEF78EBE57
:1084680000224068FEF7A2BE002211464068FEF7CF
:10847800A5BE002211464068FEF788BE2DE9F043EC
:10848800002495B016460D460746FFF769FA2146BF
:1084980020220CA8009400F0AFFE40230C93214644
:1084A8006B460CAA3046FEF70DFC0446002844D162
:1084B800024601216868FEF749FE022180462246ED
:1084C8006868FEF743FE009E81462146002E34D0A0
:1084D800002932D17368022B02D00A2B09D02AE076
:1084E800B8F1000F27D0716938460431FFF788FAD0
:1084F80020E0B9F1000F1ED07469112201A800F024
:108508007BFE06238DF8143001AD04F108031834FE
:10851800186859682A4603C20833A3421546F7D19A
:1085280001A906A807ADFFF729FA0FCD3C1D0FC416
:108538002B6823700121F669C8E70098FEF7BAFB9B
:10854800384615B0BDE8F083024B034A1A60002292
:108558005A6070470CE70320F4990D0010B50446E3
:108568000F48FEF774FF28B1A4F10B03022B01D8C2
:10857800002010BD00F064F8FFF797FB08B1012C4C
:10858800F6D9FFF709FBFFF704FB18B1A4F10903BB
:10859800012BEDD9232C8CBF0020012010BD00BF7A
:1085A80014E70320232838B504460D460AD8FF29C6
:1085B80008D0FFF7D3FF28B129462046BDE8384048
:1085C800FEF790BB38BD38B504460D46FEF792FB62
:1085D800FF2810D0062804D84D2323FA00F0C3073B
:1085E80009D42046FFF7BAFF28B129462046BDE83E
:1085F8003840FEF787BB38BDFEF78CBB70B50C4C16
:108608000C4E0D4D00212046FEF766FE20460B4C11
:108618003246294600F034F801212046FEF75CFE78
:10862800324629462046BDE8704000F029B800BF10
:1086380014E7032054D20320D1720D0024E703204D
:1086480038B50B4D296811F001040FD12846FBF706
:1086580024FD58B121460748FFF7F0FA2846FBF7F2
:1086680021FD054A0549034800F00AF8014838BDCC
:1086780038E703203CE7032054D20320ED7B0D00AC
:108688000B460146184600F08FBD0000184B1A68CB
:10869800D1075CBF01221A60164B1A68D2075CBF6B
:1086A80001221A60144B1A68D0075CBF01221A60B5
:1086B800124B1A68D1075CBF01221A60104B1A6866
:1086C800D2075CBF01221A600E4B1A68D0075CBF44
:1086D80001221A600C4B1A68D1075CBF01221A608C
:1086E8000A4B1A68D2075CBF01221A60704700BFA4
:1086F8006CE7032068E7032064E7032060E70320B2
:108708005CE7032058E7032054E7032050E70320E1
:10871800244B1A68D0075CBF01221A60224B1A68E2
:10872800D1075CBF01221A60204B1A68D2075CBFD0
:1087380001221A601E4B1A68D0075CBF01221A601A
:108748001C4B1A68D1075CBF01221A601A4B1A68C1
:10875800D2075CBF01221A60184B1A68D0075CBFA9
:1087680001221A60164B1A68D1075CBF01221A60F1
:10877800144B1A68D2075CBF01221A60124B1A68A0
:10878800D0075CBF01221A60104B1A68D1075CBF82
:1087980001221A600E4B1A68D2075CBF01221A60C8
:1087A800704700BF9CE7032098E7032094E7032065
:1087B80090E703208CE7032088E7032084E7032061
:1087C80080E703207CE7032078E7032074E7032091
:1087D80070E70320244B1A68D0075CBF01221A6097
:1087E800224B1A68D1075CBF01221A60204B1A6815
:1087F800D2075CBF01221A601E4B1A68D0075CBF03
:1088080001221A601C4B1A68D1075CBF01221A604A
:108818001A4B1A68D2075CBF01221A60184B1A68F3
:10882800D0075CBF01221A60164B1A68D1075CBFDB
:1088380001221A60144B1A68D2075CBF01221A6021
:10884800124B1A68D0075CBF01221A60104B1A68D5
:10885800D1075CBF01221A600E4B1A68D2075CBFB1
:1088680001221A60704700BFCCE70320C8E7032045
:10887800C4E70320C0E70320BCE70320B8E70320D0
:10888800B4E70320B0E70320ACE70320A8E7032000
:10889800A4E70320A0E70320184B1A68D1075CBFA0
:1088A80001221A60164B1A68D2075CBF01221A60AF
:1088B800144B1A68D0075CBF01221A60124B1A6861
:1088C800D1075CBF01221A60104B1A68D2075CBF3F
:1088D80001221A600E4B1A68D0075CBF01221A6089
:1088E8000C4B1A68D1075CBF01221A600A4B1A6840
:1088F800D2075CBF01221A60704700BFECE7032073
:10890800E8E70320E4E70320E0E70320DCE70320AF
:10891800D8E70320D4E70320D0E7032081F0004103
:1089280002E000BF83F0004330B54FEA41044FEA4C
:10893800430594EA050F08BF90EA020F1FBF54EAE7
:10894800000C55EA020C7FEA645C7FEA655C00F083
:10895800E2804FEA5454D4EB5555B8BF6D420CDD54
:108968002C4480EA020281EA030382EA000083EAD7
:10897800010180EA020281EA0303362D88BF30BD77
:1089880011F0004F4FEA01314FF4801C4CEA1131CD
:1089980002D0404261EB410113F0004F4FEA03332C
:1089A8004CEA133302D0524263EB430394EA050FB7
:1089B80000F0A780A4F10104D5F1200E0DDB02FA26
:1089C8000EFC22FA05F2801841F1000103FA0EF2BA
:1089D800801843FA05F359410EE0A5F120050EF180
:1089E800200E012A03FA0EFC28BF4CF0020C43FAB1
:1089F80005F3C01851EBE37101F0004507D54FF0BE
:108A0800000EDCF1000C7EEB00006EEB0101B1F50D
:108A1800801F1BD3B1F5001F0CD349085FEA300053
:108A28004FEA3C0C04F101044FEA445212F5800F5E
:108A380080F09A80BCF1004F08BF5FEA500C50F1FB
:108A4800000041EB045141EA050130BD5FEA4C0CDE
:108A5800404141EB010111F4801FA4F10104E9D167
:108A680091F0000F04BF01460020B1FA81F308BF5E
:108A78002033A3F10B03B3F120020CDA0C3208DD2A
:108A880002F1140CC2F10C0201FA0CF021FA02F105
:108A98000CE002F11402D8BFC2F1200C01FA02F175
:108AA80020FA0CFCDCBF41EA0C019040E41AA2BF9A
:108AB80001EB0451294330BD6FEA04041F3C1CDA62
:108AC8000C340EDC04F11404C4F1200220FA04F082
:108AD80001FA02F340EA030021FA04F345EA03012C
:108AE80030BDC4F10C04C4F1200220FA02F001FAEE
:108AF80004F340EA0300294630BD21FA04F0294670
:108B080030BD94F0000F83F4801306BF81F4801108
:108B18000134013D4EE77FEA645C18BF7FEA655C7B
:108B280029D094EA050F08BF90EA020F05D054EA4D
:108B3800000C04BF1946104630BD91EA030F1EBF52
:108B48000021002030BD5FEA545C05D14000494156
:108B580028BF41F0004130BD14F580043CBF01F549
:108B6800801130BD01F0004545F0FE4141F470012F
:108B78004FF0000030BD7FEA645C1ABF194610460A
:108B88007FEA655C1CBF0B46024650EA013406BF0B
:108B980052EA033591EA030F41F4002130BD00BFCA
:108BA80090F0000F04BF0021704730B54FF4806487
:108BB80004F132044FF000054FF0000150E700BF08
:108BC80090F0000F04BF0021704730B54FF4806467
:108BD80004F1320410F0004548BF40424FF0000154
:108BE8003EE700BF42004FEAE2014FEA31014FEA97
:108BF80002701FBF12F07F4393F07F4F81F06051E6
:108C0800704792F0000F14BF93F07F4F704730B554
:108C18004FF4607401F0004521F0004120E700BFE7
:108C280050EA010208BF704730B54FF000050AE06E
:108C380050EA010208BF704730B511F0004502D56F
:108C4800404261EB41014FF4806404F132045FEA71
:108C5800915C3FF4DCAE4FF003025FEADC0C18BF16
:108C680003325FEADC0C18BF033202EBDC02C2F10C
:108C7800200300FA03FC20FA02F001FA03FE40EA9E
:108C88000E0021FA02F11444C1E600BF70B54FF09E
:108C9800FF0C4CF4E06C1CEA11541DBF1CEA135580
:108CA80094EA0C0F95EA0C0F00F0DEF82C4481EAE8
:108CB800030621EA4C5123EA4C5350EA013518BF08
:108CC80052EA033541F4801143F4801338D0A0FBF5
:108CD80002CE4FF00005E1FB02E506F00042E0FBA2
:108CE80003E54FF00006E1FB03569CF0000F18BFA8
:108CF8004EF0010EA4F1FF04B6F5007F64F5407450
:108D080004D25FEA4E0E6D4146EB060642EAC621E2
:108D180041EA55514FEAC52040EA5E504FEACE2E4F
:108D2800B4F1FD0C88BFBCF5E06F1ED8BEF1004F52
:108D380008BF5FEA500E50F1000041EB045170BDCE
:108D480006F0004646EA010140EA020081EA030112
:108D5800B4EB5C04C2BFD4EB0C0541EA045170BD0E
:108D680041F480114FF0000E013C00F3AB8014F188
:108D7800360FDEBF002001F0004170BDC4F10004D1
:108D8800203C35DA0C341BDC04F11404C4F1200552
:108D980000FA05F320FA04F001FA05F240EA0200AD
:108DA80001F0004221F0004110EBD37021FA04F6E3
:108DB80042EB06015EEA430E08BF20EAD37070BD9D
:108DC800C4F10C04C4F1200500FA04F320FA05F0FC
:108DD80001FA04F240EA020001F0004110EBD370FE
:108DE80041F100015EEA430E08BF20EAD37070BD6E
:108DF800C4F1200500FA05F24EEA020E20FA04F347
:108E080001FA05F243EA020321FA04F001F00041F5
:108E180021FA04F220EA020000EBD3705EEA430E66
:108E280008BF20EAD37070BD94F0000F0FD101F095
:108E38000046400041EB010111F4801F08BF013CCE
:108E4800F7D041EA060195F0000F18BF704703F00C
:108E58000046520043EB030313F4801F08BF013D93
:108E6800F7D043EA0603704794EA0C0F0CEA13554F
:108E780018BF95EA0C0F0CD050EA410618BF52EA09
:108E88004306D1D181EA030101F000414FF000000F
:108E980070BD50EA410606BF1046194652EA43061D
:108EA80019D094EA0C0F02D150EA013613D195EA91
:108EB8000C0F05D152EA03361CBF104619460AD1D9
:108EC80081EA030101F0004141F0FE4141F47001E3
:108ED8004FF0000070BD41F0FE4141F4780170BDD3
:108EE80070B54FF0FF0C4CF4E06C1CEA11541DBF38
:108EF8001CEA135594EA0C0F95EA0C0F00F0A7F83A
:108F0800A4EB050481EA030E52EA03354FEA013166
:108F180000F088804FEA03334FF0805545EA131379
:108F280043EA12634FEA022245EA111545EA106541
:108F38004FEA00260EF000419D4208BF964244F1D8
:108F4800FD0404F5407402D25B084FEA3202B61AF7
:108F580065EB03055B084FEA32024FF480104FF4CB
:108F6800002CB6EB020E75EB030E22BFB61A75463F
:108F780040EA0C005B084FEA3202B6EB020E75EBD2
:108F8800030E22BFB61A754640EA5C005B084FEA3A
:108F98003202B6EB020E75EB030E22BFB61A754607
:108FA80040EA9C005B084FEA3202B6EB020E75EB12
:108FB800030E22BFB61A754640EADC0055EA060ED3
:108FC80018D04FEA051545EA16754FEA06164FEA16
:108FD800C30343EA52734FEAC2025FEA1C1CC0D1C2
:108FE80011F4801F0BD141EA00014FF000004FF04F
:108FF800004CB6E711F4801F04BF01430020B4F110
:10900800FD0C88BFBCF5E06F3FF6AFAEB5EB030CC7
:1090180004BFB6EB020C5FEA500C50F1000041EBC4
:10902800045170BD0EF0004E4EEA113114EB5C0491
:10903800C2BFD4EB0C0541EA045170BD41F4801164
:109048004FF0000E013C90E645EA060E8DE60CEA6C
:10905800135594EA0C0F08BF95EA0C0F3FF43BAF89
:1090680094EA0C0F0AD150EA01347FF434AF95EA40
:109078000C0F7FF425AF104619462CE795EA0C0F24
:1090880006D152EA03353FF4FDAE1046194622E7F1
:1090980050EA410618BF52EA43067FF4C5AE50EACB
:1090A80041047FF40DAF52EA43057FF4EBAE12E7BB
:1090B8004FEA410212F5001215D211D56FF47873F8
:1090C800B3EB625212D94FEAC12343F0004343EA9B
:1090D800505311F0004F23FA02F018BF4042704776
:1090E8004FF00000704750EA013005D111F0004000
:1090F80008BF6FF0004070474FF00000704700BF96
:109108004FEA4102B2F1E04324BFB3F5001CDCF1A1
:10911800FE5C0DD901F0004C4FEAC0024CEA5070D9
:10912800B2F1004F40EB830008BF20F00100704708
:1091380011F0804F21D113F13872BCBF01F000400B
:10914800704741F480114FEA5252C2F11802C2F13D
:10915800200C10FA0CF320FA02F018BF40F00100BE
:109168004FEAC1234FEAD32303FA0CFC40EA0C0070
:1091780023FA02F34FEA4303CCE77FEA625307D1AD
:1091880050EA01331EBF4FF0FE4040F440007047E4
:1091980001F0004040F0FE4040F40000704700BF7E
:1091A8000A22002100F012B910B5054C13462CB163
:1091B8000A4601460220AFF3008010BD204610BDCC
:1091C8000000000010B501390244904207D010F8A1
:1091D800013B11F8014FA342F7D0181B10BD002026
:1091E80010BD10B5431E0A44914204D011F8014B3A
:1091F80003F8014FF8E710BD02440346934202D03A
:1092080003F8011BFAE7704738B5124B1C68A36BCB
:109218000546D3B91820FDF7E9FF43F20E33A063E2
:1092280003804AF6CD33438041F2342383804EF2E3
:109238006D63C3804DF6EC630381052343810B23E3
:10924800838101220023C0E90423A36B00221D614E
:109258005A6138BD50D2032010F8012B11F8013B98
:10926800012A28BF9A42F7D0D01A7047034611F84E
:10927800012B03F8012B002AF9D17047034613F894
:10928800012B002AFBD1181A01387047F0B5037872
:1092980063B90B78002B18BF0020F0BD15F8012F1B
:1092A80062B114F8017F97423046F7D00346461C56
:1092B800007810B14D1E5C1EF0E7F0BD1846F0BDF9
:1092C8002DE9F04780464048D0F800900F463D46CB
:1092D80015F8014B09EB0400407800F0080000F095
:1092E800FF0608B12F46F2E72D2C03D1BD1C7C7870
:1092F800012603E02B2C04BF7C78BD1C13B1102B76
:109308000AD15BE0302C57D1287800F0DF005828CC
:109318004DD16C7810230235002E14BF4FF0004C4D
:109328006FF0004C0027BCFBF3FA384603FB1ACC5D
:1093380009EB040E9EF801E01EF0040F01D0303C4A
:109348000BE01EF0030E1BD0BEF1010F0CBF4FF057
:10935800370E4FF0570ECEEB0404A34210DDB7F1E1
:10936800FF3F0AD0504506D801D1644503DC03FB12
:109378000040012701E04FF0FF3715F8014BD7E710
:109388007B1C0CD1002E4FF0220314BF4FF000407D
:109398006FF00040C8F800302AB9BDE8F08706B180
:1093A800404272B107B1691E1160BDE8F0873024F0
:1093B800002BB1D10823AFE70A23ADE7302CA3D0A7
:1093C800AAE7BDE8F08700BFECD1032013460A46A0
:1093D800014602480068FFF773BF00BF50D2032060
:1093E8001D400D0059400D0085400D0089400D00BD
:1093F800000000000000000000000000E1400D0037
:109408000000000000000000B3400D00D3400D0034
:10941800BB400D00B5400D0064656661756C742035
:10942800004D5342004C5342003C5350495365741D
:1094380074696E67732064656661756C743E003C80
:1094480053504953657474696E6773202573256C8E
:1094580075202573204D4F444525643E0068656C92
:109468006C6F0068656C6C6F3232320054696D65E0
:10947800002C706D31305F7374616E6461726400CA
:109488002C706D32355F7374616E64617264002C88
:10949800706D3130305F7374616E64617264002C7A
:1094A800706D31305F656E76002C706D32355F659A
:1094B8006E76002C706D3130305F656E76002C5002
:1094C80033756D002C5035756D002C503130756D2D
:1094D800002C503235756D002C503530756D002CD0
:1094E80050313030756D002C636865636B73756D32
:1094F800002C5368696E796569002C54656D706538
:10950800726174757265002C48756D696469747947
:1095180000436F6E6E656374696E672E2E2E002F82
:10952800696E6461746130312E7068703F7573655F
:10953800726E616D653D25732670617373776F7206
:10954800643D25732664626E616D653D25732674DE
:1095580061626C656E616D653D257326706D313095
:109568005F7374643D256426706D32355F7374646F
:109578003D256426706D3130305F7374643D256419
:1095880026706D31305F656E763D256426706D32CC
:10959800355F656E763D256426706D3130305F65C8
:1095A8006E763D25642670333D25642670353D254D
:1095B80064267031303D2564267032353D25642699
:1095C8007035303D256426703130303D2564266382
:1095D8006865636B73756D3D25642654656D7065AC
:1095E8007261747572653D25662648756D69646992
:1095F80074793D2566007B2274696D65223A2022C4
:10960800256C64222C2022706D3130223A22256488
:10961800222C2022706D3235223A222564222C20F9
:1096280022706D313030223A222564222C2022709B
:109638006E3033223A222564222C2022706E303577
:10964800223A222564222C2022706E3130223A22BE
:109658002564222C2022706E3235223A222564227B
:109668002C2022706E3530223A222564222C2022AA
:10967800706E313030223A222564222C2022536821
:10968800696E796569223A222566222C2022746542
:109698006D70223A222566222C202268756D696435
:1096A800697479223A222566227D00474554005381
:1096B800656E64696E672044617461004163636527
:1096C8007074002A2F2A0020485454502F312E300D
:1096D8000D0A00636C6F736500436F6E6E6563748B
:1096E800696F6E00484F535400436F6E74656E7413
:1096F8002D4C656E67746800504F5354000D0A0D69
:109708000A001F1C1F1E1F1E1F1F1E1F1E1F0000DA
:109718000000000000000000B3720D00A9720D00E7
:109728009F720D0095720D0089720D007D720D00FB
:1097380071720D0069720D005F720D0055720D0097
:1097480085840D000000000000000000D1720D00AB
:10975800D3720D0000081018202830386C6E00668F
:109768006E00636F64650064657461696C00253020
:1097780031307520005D20002C200028293A200077
:10978800205B00636F6465203D20002569006465E7
:109798007461696C73203D200062617564005365D3
:1097A8007269616C0053657269616C31007479701B
:1097B8006500706172616D00636D640069640068C2
:1097C8006E64007374726D0066696C74006C766CFC
:1097D8000061646448616E646C65720072656D6FE7
:1097E800766548616E646C657200656E756D48617A
:1097F8006E646C657273004A534F4E5374726561A0
:109808006D4C6F6748616E646C65720061707000C2
:109818006E6F6E6500747261636500696E666F00D5
:109828007761726E006572726F720070616E696343
:1098380000616C6C005A00252B3033643A253032B5
:10984800750025592D256D2D25645425483A254D3B
:109858003A2553257A0061736374696D65000000C9
:10986800000000000000000003790D00F5780D00ED
:10987800F7780D000000000000000000237A0D00BA
:10988800677A0D00417A0D0027760D003B7A0D00AE
:10989800257A0D002D7A0D00617A0D00357A0D00BC
:1098A8001F7A0D0000000000000000000D7B0D0075
:1098B800317B0D003D7B0D0027760D00197B0D00D7
:1098C800257B0D001F7B0D002B7B0D000F7B0D00F2
:1098D800137B0D000000000000000000ED7B0D0070
:1098E800377C0D000F7C0D00EF7B0D00177C0D0001
:1098F8001F7C0D00277C0D002F7C0D000000000050
:1099080000000000197D0D000F7D0D00057D0D0084
:10991800FB7C0D00EF7C0D00E37C0D00D77C0D0077
:10992800CF7C0D00C57C0D00BB7C0D0085840D002F
:109938000000000000000000997E0D009F7E0D00D1
:1099480087830D00AB7E0D009B7E0D00000000009C
:109958000000000065410D00A5410D00117E0D00BD
:109968002B7E0D002D820D006F800D0041800D00B3
:10997800557E0D0005810D00B17E0D00A3800D0000
:10998800FF810D00577E0D008F7E0D003D7E0D007E
:10999800A17F0D0021800D00776972696E670072E2
:1099A800656376206572726F72203D202564000021
:1099B8000000000000000000FD830D00F3830D008F
:1099C800E9830D009F830D00DD830D00D1830D0019
:1099D800C5830D00BD830D00B3830D00A9830D0061
:1099E80085840D0000000000000000001D840D00AB
:1099F80027840D0031840D003B840D0045840D0043
:109A080051840D005D840D0069840D0071840D0082
:109A18007B840D0085840D0000202020202020203C
:109A28002020282828282820202020202020202006
:109A38002020202020202020208810101010101016
:109A48001010101010101010100404040404040462
:109A580004040410101010101010414141414141FC
:109A680001010101010101010101010101010101DE
:109A780001010101101010101010424242424242EE
:109A880002020202020202020202020202020202AE
:109A98000202020210101010200000000000000056
:109AA80000000000000000000000000000000000AE
:109AB800000000000000000000000000000000009E
:109AC800000000000000000000000000000000008E
